{
  "contractName": "Contacts",
  "abi": [
    {
      "constant": true,
      "inputs": [],
      "name": "count",
      "outputs": [
        {
          "internalType": "uint256",
          "name": "",
          "type": "uint256"
        }
      ],
      "payable": false,
      "stateMutability": "view",
      "type": "function"
    }
  ],
  "bytecode": "0x608060405260008055348015601357600080fd5b506084806100226000396000f3fe6080604052348015600f57600080fd5b506004361060285760003560e01c806306661abd14602d575b600080fd5b60336049565b6040518082815260200191505060405180910390f35b6000548156fea265627a7a72315820149b963be3fa8752e65f54556485c4a0fc9c49f4702bd90b9eebb941f0a1f35a64736f6c63430005100032",
  "source": "pragma solidity >=0.4.22 <0.9.0;\n\ncontract Contacts {\n  uint public count = 0; // state variable\n}",
  "sourcePath": "C:\\uni\\blockchain\\contracts\\contracts\\contacts.sol",
  "compiler": {
    "name": "solc",
    "version": "0.5.16+commit.9c3226ce.Emscripten.clang"
  },
  "schemaVersion": "3.4.6",
  "updatedAt": "2022-03-31T17:20:58.122Z",
  "networkType": "ethereum",
  "devdoc": {
    "methods": {}
  },
  "userdoc": {
    "methods": {}
  }
}