{
    "contractName": "AMM",
    "abi": [
        {
            "inputs": [
                {
                    "internalType": "address",
                    "name": "",
                    "type": "address"
                }
            ],
            "stateMutability": "nonpayable",
            "type": "constructor"
        },
        {
            "inputs": [
                {
                    "internalType": "uint256",
                    "name": "_amountToken1",
                    "type": "uint256"
                },
                {
                    "internalType": "uint256",
                    "name": "_amountToken2",
                    "type": "uint256"
                }
            ],
            "name": "faucet",
            "outputs": [],
            "stateMutability": "nonpayable",
            "type": "function"
        },
        {
            "inputs": [
                {
                    "internalType": "uint256",
                    "name": "_amountToken2",
                    "type": "uint256"
                }
            ],
            "name": "getEquivalentToken1Estimate",
            "outputs": [
                {
                    "internalType": "uint256",
                    "name": "reqToken1",
                    "type": "uint256"
                }
            ],
            "stateMutability": "view",
            "type": "function"
        },
        {
            "inputs": [
                {
                    "internalType": "uint256",
                    "name": "_amountToken1",
                    "type": "uint256"
                }
            ],
            "name": "getEquivalentToken2Estimate",
            "outputs": [
                {
                    "internalType": "uint256",
                    "name": "reqToken2",
                    "type": "uint256"
                }
            ],
            "stateMutability": "view",
            "type": "function"
        },
        {
            "inputs": [],
            "name": "getMyHoldings",
            "outputs": [
                {
                    "internalType": "uint256",
                    "name": "amountToken1",
                    "type": "uint256"
                },
                {
                    "internalType": "uint256",
                    "name": "amountToken2",
                    "type": "uint256"
                },
                {
                    "internalType": "uint256",
                    "name": "myShare",
                    "type": "uint256"
                }
            ],
            "stateMutability": "view",
            "type": "function"
        },
        {
            "inputs": [],
            "name": "getPoolDetails",
            "outputs": [
                {
                    "internalType": "uint256",
                    "name": "",
                    "type": "uint256"
                },
                {
                    "internalType": "uint256",
                    "name": "",
                    "type": "uint256"
                },
                {
                    "internalType": "uint256",
                    "name": "",
                    "type": "uint256"
                }
            ],
            "stateMutability": "view",
            "type": "function"
        },
        {
            "inputs": [
                {
                    "internalType": "uint256",
                    "name": "_amountToken1",
                    "type": "uint256"
                }
            ],
            "name": "getSwapToken1Estimate",
            "outputs": [
                {
                    "internalType": "uint256",
                    "name": "amountToken2",
                    "type": "uint256"
                }
            ],
            "stateMutability": "view",
            "type": "function"
        },
        {
            "inputs": [
                {
                    "internalType": "uint256",
                    "name": "_amountToken2",
                    "type": "uint256"
                }
            ],
            "name": "getSwapToken1EstimateGivenToken2",
            "outputs": [
                {
                    "internalType": "uint256",
                    "name": "amountToken1",
                    "type": "uint256"
                }
            ],
            "stateMutability": "view",
            "type": "function"
        },
        {
            "inputs": [
                {
                    "internalType": "uint256",
                    "name": "_share",
                    "type": "uint256"
                }
            ],
            "name": "getWithdrawEstimate",
            "outputs": [
                {
                    "internalType": "uint256",
                    "name": "amountToken1",
                    "type": "uint256"
                },
                {
                    "internalType": "uint256",
                    "name": "amountToken2",
                    "type": "uint256"
                }
            ],
            "stateMutability": "view",
            "type": "function"
        },
        {
            "inputs": [
                {
                    "internalType": "uint256",
                    "name": "_amount",
                    "type": "uint256"
                }
            ],
            "name": "provide",
            "outputs": [],
            "stateMutability": "nonpayable",
            "type": "function"
        },
        {
            "inputs": [
                {
                    "internalType": "uint256",
                    "name": "_amountToken1",
                    "type": "uint256"
                },
                {
                    "internalType": "uint256",
                    "name": "_amountToken2",
                    "type": "uint256"
                }
            ],
            "name": "provide",
            "outputs": [
                {
                    "internalType": "uint256",
                    "name": "share",
                    "type": "uint256"
                }
            ],
            "stateMutability": "nonpayable",
            "type": "function"
        },
        {
            "inputs": [
                {
                    "internalType": "uint256",
                    "name": "_amountToken1",
                    "type": "uint256"
                }
            ],
            "name": "swapToken1",
            "outputs": [
                {
                    "internalType": "uint256",
                    "name": "amountToken2",
                    "type": "uint256"
                }
            ],
            "stateMutability": "nonpayable",
            "type": "function"
        },
        {
            "inputs": [
                {
                    "internalType": "uint256",
                    "name": "_share",
                    "type": "uint256"
                }
            ],
            "name": "withdraw",
            "outputs": [
                {
                    "internalType": "uint256",
                    "name": "amountToken1",
                    "type": "uint256"
                },
                {
                    "internalType": "uint256",
                    "name": "amountToken2",
                    "type": "uint256"
                }
            ],
            "stateMutability": "nonpayable",
            "type": "function"
        }
    ],
    "bytecode": "608060405234801561001057600080fd5b50604051610bae380380610bae83398101604081905261002f91610035565b50610065565b60006020828403121561004757600080fd5b81516001600160a01b038116811461005e57600080fd5b9392505050565b610b3a806100746000396000f3fe608060405234801561001057600080fd5b50600436106100b45760003560e01c8063aca34c1111610071578063aca34c111461017f578063b32440411461018d578063d212b440146101a0578063e8c3c54f146101b3578063f4cb34d4146101c6578063f9813798146101d957600080fd5b8063078b7fdc146100b95780632e1a7d4d146100df5780632e2ebe0614610107578063319bb38f1461011a578063450177c61461012d57806391e0dbb814610140575b600080fd5b6100cc6100c73660046109a7565b6101ec565b6040519081526020015b60405180910390f35b6100f26100ed3660046109a7565b610239565b604080519283526020830191909152016100d6565b6101186101153660046109a7565b50565b005b6100cc6101283660046109a7565b61038f565b6100cc61013b3660046109a7565b6103c3565b33600090815260056020908152604080832054600683528184205460049093529220545b604080519384526020840192909252908201526060016100d6565b600154600254600054610164565b6100f261019b3660046109a7565b610438565b6100cc6101ae3660046109a7565b6104f8565b6100cc6101c13660046109c0565b6105a6565b6100cc6101d43660046109a7565b610847565b6101186101e73660046109c0565b61094c565b600080600054116102185760405162461bcd60e51b815260040161020f906109e2565b60405180910390fd5b600254826001546102299190610a20565b6102339190610a3f565b92915050565b600080600080541161025d5760405162461bcd60e51b815260040161020f906109e2565b600483600081116102805760405162461bcd60e51b815260040161020f90610a61565b336000908152602083905260409020548111156102af5760405162461bcd60e51b815260040161020f90610a91565b6102b885610438565b336000908152600460205260408120805493975091955087926102dc908490610abe565b92505081905550846000808282546102f49190610abe565b92505081905550836001600082825461030d9190610abe565b9250508190555082600260008282546103269190610abe565b909155505060025460015461033b9190610a20565b600355336000908152600560205260408120805486929061035d908490610ad5565b90915550503360009081526006602052604081208054859290610381908490610ad5565b925050819055505050915091565b600080600054116103b25760405162461bcd60e51b815260040161020f906109e2565b600154826002546102299190610a20565b600080600054116103e65760405162461bcd60e51b815260040161020f906109e2565b6000826001546103f69190610ad5565b90506000816003546104089190610a3f565b9050806002546104189190610abe565b92506002548303610431578261042d81610aed565b9350505b5050919050565b600080600080541161045c5760405162461bcd60e51b815260040161020f906109e2565b6000548311156104ba5760405162461bcd60e51b8152602060048201526024808201527f53686172652073686f756c64206265206c657373207468616e20746f74616c536044820152636861726560e01b606482015260840161020f565b6000546001546104ca9085610a20565b6104d49190610a3f565b9150600054600254846104e79190610a20565b6104f19190610a3f565b9050915091565b6000806000541161051b5760405162461bcd60e51b815260040161020f906109e2565b600254821061056c5760405162461bcd60e51b815260206004820152601960248201527f496e73756666696369656e7420706f6f6c2062616c616e636500000000000000604482015260640161020f565b60008260025461057c9190610abe565b905060008160035461058e9190610a3f565b90506001548161059e9190610abe565b949350505050565b6000600583600081116105cb5760405162461bcd60e51b815260040161020f90610a61565b336000908152602083905260409020548111156105fa5760405162461bcd60e51b815260040161020f90610a91565b6006846000811161061d5760405162461bcd60e51b815260040161020f90610a61565b3360009081526020839052604090205481111561064c5760405162461bcd60e51b815260040161020f90610a91565b60005460000361066b57610664620f42406064610a20565b9450610711565b60006001548860005461067e9190610a20565b6106889190610a3f565b905060006002548860005461069d9190610a20565b6106a79190610a3f565b905080821461070d5760405162461bcd60e51b815260206004820152602c60248201527f50726f766964656420746f6b656e7320617265206e6f74206f6620657175697660448201526b30b632b73a103b30b63ab29760a11b606482015260840161020f565b5094505b600085116107725760405162461bcd60e51b815260206004820152602860248201527f41737365742076616c7565206973206e6f7420656e6f75676820746f20636f6e6044820152673a3934b13aba329760c11b606482015260840161020f565b3360009081526005602052604081208054899290610791908490610abe565b909155505033600090815260066020526040812080548892906107b5908490610abe565b9250508190555086600160008282546107ce9190610ad5565b9250508190555085600260008282546107e79190610ad5565b90915550506002546001546107fc9190610a20565b600381905550846000808282546108139190610ad5565b90915550503360009081526004602052604081208054879290610837908490610ad5565b9091555094979650505050505050565b6000806000541161086a5760405162461bcd60e51b815260040161020f906109e2565b6005826000811161088d5760405162461bcd60e51b815260040161020f90610a61565b336000908152602083905260409020548111156108bc5760405162461bcd60e51b815260040161020f90610a91565b6108c5846103c3565b336000908152600560205260408120805492955086929091906108e9908490610abe565b9250508190555083600160008282546109029190610ad5565b92505081905550826002600082825461091b9190610abe565b9091555050336000908152600660205260408120805485929061093f908490610ad5565b9091555092949350505050565b33600090815260056020526040812054610967908490610ad5565b3360009081526005602090815260408083208490556006909152902054909150610992908390610ad5565b33600090815260066020526040902055505050565b6000602082840312156109b957600080fd5b5035919050565b600080604083850312156109d357600080fd5b50508035926020909101359150565b6020808252600e908201526d5a65726f204c697175696469747960901b604082015260600190565b634e487b7160e01b600052601160045260246000fd5b6000816000190483118215151615610a3a57610a3a610a0a565b500290565b600082610a5c57634e487b7160e01b600052601260045260246000fd5b500490565b602080825260169082015275416d6f756e742063616e6e6f74206265207a65726f2160501b604082015260600190565b602080825260139082015272125b9cdd59999a58da595b9d08185b5bdd5b9d606a1b604082015260600190565b600082821015610ad057610ad0610a0a565b500390565b60008219821115610ae857610ae8610a0a565b500190565b600081610afc57610afc610a0a565b50600019019056fea2646970667358221220f02b2a473644e4e155c6e8d24d4ee790fe677464a0968271a4133461ffd25ce064736f6c634300080d0033",
    "sourcePath": "d:/Pre_install/Git Repositories/dex/contracts/contracts/AutomatedMarketMaker.sol",
    "compiler": {
        "name": "solc",
        "version": "0.8.13+commit.abaa5c0e"
    },
    "functionHashes": {
        "faucet(uint256,uint256)": "f9813798",
        "getEquivalentToken1Estimate(uint256)": "078b7fdc",
        "getEquivalentToken2Estimate(uint256)": "319bb38f",
        "getMyHoldings()": "91e0dbb8",
        "getPoolDetails()": "aca34c11",
        "getSwapToken1Estimate(uint256)": "450177c6",
        "getSwapToken1EstimateGivenToken2(uint256)": "d212b440",
        "getWithdrawEstimate(uint256)": "b3244041",
        "provide(uint256)": "2e2ebe06",
        "provide(uint256,uint256)": "e8c3c54f",
        "swapToken1(uint256)": "f4cb34d4",
        "withdraw(uint256)": "2e1a7d4d"
    },
    "gasEstimates": {
        "creation": {
            "codeDepositCost": "574800",
            "executionCost": "infinite",
            "totalCost": "infinite"
        },
        "external": {
            "faucet(uint256,uint256)": "infinite",
            "getEquivalentToken1Estimate(uint256)": "6765",
            "getEquivalentToken2Estimate(uint256)": "6831",
            "getMyHoldings()": "6825",
            "getPoolDetails()": "6540",
            "getSwapToken1Estimate(uint256)": "11224",
            "getSwapToken1EstimateGivenToken2(uint256)": "infinite",
            "getWithdrawEstimate(uint256)": "infinite",
            "provide(uint256)": "256",
            "provide(uint256,uint256)": "infinite",
            "swapToken1(uint256)": "infinite",
            "withdraw(uint256)": "infinite"
        }
    }
}