{
    "contractName": "LiquidityPool",
    "abi": [
        {
            "inputs": [
                {
                    "internalType": "contract ERC20",
                    "name": "_token",
                    "type": "address"
                }
            ],
            "stateMutability": "payable",
            "type": "constructor"
        },
        {
            "anonymous": false,
            "inputs": [
                {
                    "indexed": false,
                    "internalType": "address",
                    "name": "approver",
                    "type": "address"
                },
                {
                    "indexed": false,
                    "internalType": "address",
                    "name": "spender",
                    "type": "address"
                },
                {
                    "indexed": false,
                    "internalType": "uint256",
                    "name": "amount",
                    "type": "uint256"
                }
            ],
            "name": "Approval",
            "type": "event"
        },
        {
            "anonymous": false,
            "inputs": [
                {
                    "indexed": false,
                    "internalType": "address",
                    "name": "optionsMarketAddress",
                    "type": "address"
                },
                {
                    "indexed": false,
                    "internalType": "uint256",
                    "name": "amount",
                    "type": "uint256"
                }
            ],
            "name": "CapitalProvided",
            "type": "event"
        },
        {
            "anonymous": false,
            "inputs": [
                {
                    "indexed": false,
                    "internalType": "address",
                    "name": "account",
                    "type": "address"
                },
                {
                    "indexed": false,
                    "internalType": "address",
                    "name": "token",
                    "type": "address"
                },
                {
                    "indexed": false,
                    "internalType": "uint256",
                    "name": "amountToken1",
                    "type": "uint256"
                },
                {
                    "indexed": false,
                    "internalType": "uint256",
                    "name": "amountToken2",
                    "type": "uint256"
                }
            ],
            "name": "TokenSwapped",
            "type": "event"
        },
        {
            "anonymous": false,
            "inputs": [
                {
                    "indexed": false,
                    "internalType": "address",
                    "name": "from",
                    "type": "address"
                },
                {
                    "indexed": false,
                    "internalType": "address",
                    "name": "to",
                    "type": "address"
                },
                {
                    "indexed": false,
                    "internalType": "uint256",
                    "name": "tokens",
                    "type": "uint256"
                }
            ],
            "name": "Transfer",
            "type": "event"
        },
        {
            "stateMutability": "payable",
            "type": "fallback"
        },
        {
            "inputs": [
                {
                    "internalType": "uint256",
                    "name": "_amount1",
                    "type": "uint256"
                },
                {
                    "internalType": "uint256",
                    "name": "_amount2",
                    "type": "uint256"
                }
            ],
            "name": "deposit",
            "outputs": [
                {
                    "internalType": "bool",
                    "name": "",
                    "type": "bool"
                }
            ],
            "stateMutability": "payable",
            "type": "function"
        },
        {
            "inputs": [],
            "name": "owner",
            "outputs": [
                {
                    "internalType": "address",
                    "name": "",
                    "type": "address"
                }
            ],
            "stateMutability": "view",
            "type": "function"
        },
        {
            "inputs": [],
            "name": "percScale",
            "outputs": [
                {
                    "internalType": "uint256",
                    "name": "",
                    "type": "uint256"
                }
            ],
            "stateMutability": "view",
            "type": "function"
        },
        {
            "inputs": [
                {
                    "internalType": "address",
                    "name": "",
                    "type": "address"
                }
            ],
            "name": "poolOwnerBalance",
            "outputs": [
                {
                    "internalType": "uint256",
                    "name": "",
                    "type": "uint256"
                }
            ],
            "stateMutability": "view",
            "type": "function"
        },
        {
            "inputs": [],
            "name": "poolTotalValue",
            "outputs": [
                {
                    "internalType": "uint256",
                    "name": "",
                    "type": "uint256"
                }
            ],
            "stateMutability": "view",
            "type": "function"
        },
        {
            "inputs": [],
            "name": "swapToken1ToToken2",
            "outputs": [],
            "stateMutability": "payable",
            "type": "function"
        },
        {
            "inputs": [
                {
                    "internalType": "address",
                    "name": "",
                    "type": "address"
                }
            ],
            "name": "tokenAddressWhitelisted",
            "outputs": [
                {
                    "internalType": "bool",
                    "name": "",
                    "type": "bool"
                }
            ],
            "stateMutability": "view",
            "type": "function"
        },
        {
            "inputs": [
                {
                    "internalType": "address",
                    "name": "recipient",
                    "type": "address"
                },
                {
                    "internalType": "uint256",
                    "name": "amount",
                    "type": "uint256"
                }
            ],
            "name": "transfer",
            "outputs": [
                {
                    "internalType": "bool",
                    "name": "",
                    "type": "bool"
                }
            ],
            "stateMutability": "nonpayable",
            "type": "function"
        },
        {
            "inputs": [
                {
                    "internalType": "address",
                    "name": "sender",
                    "type": "address"
                },
                {
                    "internalType": "address",
                    "name": "recipient",
                    "type": "address"
                },
                {
                    "internalType": "uint256",
                    "name": "amount",
                    "type": "uint256"
                }
            ],
            "name": "transferFrom",
            "outputs": [
                {
                    "internalType": "bool",
                    "name": "",
                    "type": "bool"
                }
            ],
            "stateMutability": "nonpayable",
            "type": "function"
        },
        {
            "inputs": [
                {
                    "internalType": "uint256",
                    "name": "_amount",
                    "type": "uint256"
                }
            ],
            "name": "withdraw",
            "outputs": [
                {
                    "internalType": "bool",
                    "name": "",
                    "type": "bool"
                }
            ],
            "stateMutability": "nonpayable",
            "type": "function"
        },
        {
            "stateMutability": "payable",
            "type": "receive"
        }
    ],
    "bytecode": "6080604081905260006004819055670de0b6b3a76400006005556006556008805460ff60a01b1916600160a01b17905561156f3881900390819083398101604081905261004b916100c7565b6001600055600780546001600160a01b0319166001600160a01b038316179055604051610077906100ba565b604051809103906000f080158015610093573d6000803e3d6000fd5b50600880546001600160a01b0319166001600160a01b0392909216919091179055506100f7565b6106b880610eb783390190565b6000602082840312156100d957600080fd5b81516001600160a01b03811681146100f057600080fd5b9392505050565b610db1806101066000396000f3fe60806040526004361061008f5760003560e01c80638da5cb5b116100565780638da5cb5b146101605780638f617c6c146101985780639fc12985146101ae578063a9059cbb146101c4578063e2bbb158146101e457005b8063038bb9011461009857806323b872dd146100dd5780632e1a7d4d146100fd5780632f1d56dc1461011d5780636ec81b761461012557005b3661009657005b005b3480156100a457600080fd5b506100c86100b3366004610bb1565b60026020526000908152604090205460ff1681565b60405190151581526020015b60405180910390f35b3480156100e957600080fd5b506100c86100f8366004610bcc565b6101f7565b34801561010957600080fd5b506100c8610118366004610c08565b6103db565b610096610500565b34801561013157600080fd5b50610152610140366004610bb1565b60016020526000908152604090205481565b6040519081526020016100d4565b34801561016c57600080fd5b50600354610180906001600160a01b031681565b6040516001600160a01b0390911681526020016100d4565b3480156101a457600080fd5b5061015260045481565b3480156101ba57600080fd5b5061015260055481565b3480156101d057600080fd5b506100c86101df366004610c21565b61076d565b6100c86101f2366004610c4b565b610937565b6001600160a01b0383166000908152600160205260408120548211156102595760405162461bcd60e51b8152602060048201526012602482015271496e73756666696369656e742066756e647360701b60448201526064015b60405180910390fd5b6001600160a01b0383166102af5760405162461bcd60e51b815260206004820152601b60248201527f54686973206164647265737320646f6573206e6f7420657869737400000000006044820152606401610250565b6007546040516323b872dd60e01b81526001600160a01b03909116906323b872dd906102e390879087908790600401610c6d565b6020604051808303816000875af1158015610302573d6000803e3d6000fd5b505050506040513d601f19601f820116820180604052508101906103269190610ca1565b506001600160a01b03841660009081526001602052604090205461034a9083610b76565b6001600160a01b0380861660009081526001602052604080822093909355908516815220546103799083610b89565b6001600160a01b0384166000908152600160205260409081902091909155517fddf252ad1be2c89b69c2b068fc378daa952ba7f163c4a11628f55a4df523b3ef906103c990869086908690610c6d565b60405180910390a15060019392505050565b600080821180156103ed575060648211155b6104525760405162461bcd60e51b815260206004820152603060248201527f596f75206d75737420776974686472617720612070657263656e74616765206260448201526f065747765656e203020616e64203130360841b6064820152608401610250565b600654604051630441a3e760e41b815260048101849052602481019190915260009081908190339063441a3e70906044016060604051808303816000875af11580156104a2573d6000803e3d6000fd5b505050506040513d601f19601f820116820180604052508101906104c69190610cbc565b92509250925080156104f5576104dd3033856101f7565b506104e93033846101f7565b50600195945050505050565b506000949350505050565b600034116105495760405162461bcd60e51b8152602060048201526016602482015275416d6f756e742063616e6e6f74206265207a65726f2160501b6044820152606401610250565b600854604051632280bbe360e11b81523460048201526000916001600160a01b03169063450177c690602401602060405180830381865afa158015610592573d6000803e3d6000fd5b505050506040513d601f19601f820116820180604052508101906105b69190610cf1565b6007546040516370a0823160e01b815230600482015291925082916001600160a01b03909116906370a0823190602401602060405180830381865afa158015610603573d6000803e3d6000fd5b505050506040513d601f19601f820116820180604052508101906106279190610cf1565b101561063257600080fd5b600854604051633d32cd3560e21b81523460048201526000916001600160a01b03169063f4cb34d4906024016020604051808303816000875af115801561067d573d6000803e3d6000fd5b505050506040513d601f19601f820116820180604052508101906106a19190610cf1565b60075460405163a9059cbb60e01b8152336004820152602481018390529192506001600160a01b03169063a9059cbb906044016020604051808303816000875af11580156106f3573d6000803e3d6000fd5b505050506040513d601f19601f820116820180604052508101906107179190610ca1565b50600754604080513381526001600160a01b039092166020830152348282015260608201839052517f30b60ee4dc75c0fb04420331b13e9ad7f8ff8fc51eac9c97d36fb20ccbe09d669181900360800190a15050565b336000908152600160205260408120548211156107c15760405162461bcd60e51b8152602060048201526012602482015271496e73756666696369656e742066756e647360701b6044820152606401610250565b6001600160a01b0383166108175760405162461bcd60e51b815260206004820152601b60248201527f54686973206164647265737320646f6573206e6f7420657869737400000000006044820152606401610250565b6007546040516323b872dd60e01b81526001600160a01b03909116906323b872dd9061084b90339087908790600401610c6d565b6020604051808303816000875af115801561086a573d6000803e3d6000fd5b505050506040513d601f19601f8201168201806040525081019061088e9190610ca1565b50336000908152600160205260409020546108a99083610b89565b33600090815260016020526040808220929092556001600160a01b038516815220546108d59083610b76565b6001600160a01b0384166000908152600160205260409081902091909155517fddf252ad1be2c89b69c2b068fc378daa952ba7f163c4a11628f55a4df523b3ef9061092590339086908690610c6d565b60405180910390a15060015b92915050565b600080831180156109485750600082115b6109855760405162461bcd60e51b815260206004820152600e60248201526d125b9d985b1a5908105b5bdd5b9d60921b6044820152606401610250565b6007546040516323b872dd60e01b81526001600160a01b03909116906323b872dd906109b990339030908890600401610c6d565b6020604051808303816000875af11580156109d8573d6000803e3d6000fd5b505050506040513d601f19601f820116820180604052508101906109fc9190610ca1565b506008546006546040516327f83cd360e01b81526004810186905260248101859052604481019190915260009182916001600160a01b03909116906327f83cd39060640160408051808303816000875af1158015610a5e573d6000803e3d6000fd5b505050506040513d601f19601f82011682018060405250810190610a829190610d0a565b9150915081156104f5576007546040516323b872dd60e01b81526001600160a01b03909116906323b872dd90610ac090339030908990600401610c6d565b6020604051808303816000875af1158015610adf573d6000803e3d6000fd5b505050506040513d601f19601f82011682018060405250810190610b039190610ca1565b5033600090815260016020526040902054610b1f908290610d4c565b3360009081526001602052604081209190915560068054839290610b44908490610d4c565b90915550610b5490508486610d4c565b60046000828254610b659190610d4c565b909155506001935061093192505050565b6000610b828284610d64565b9392505050565b6000610b828284610d4c565b80356001600160a01b0381168114610bac57600080fd5b919050565b600060208284031215610bc357600080fd5b610b8282610b95565b600080600060608486031215610be157600080fd5b610bea84610b95565b9250610bf860208501610b95565b9150604084013590509250925092565b600060208284031215610c1a57600080fd5b5035919050565b60008060408385031215610c3457600080fd5b610c3d83610b95565b946020939093013593505050565b60008060408385031215610c5e57600080fd5b50508035926020909101359150565b6001600160a01b039384168152919092166020820152604081019190915260600190565b80518015158114610bac57600080fd5b600060208284031215610cb357600080fd5b610b8282610c91565b600080600060608486031215610cd157600080fd5b8351925060208401519150610ce860408501610c91565b90509250925092565b600060208284031215610d0357600080fd5b5051919050565b60008060408385031215610d1d57600080fd5b610d2683610c91565b9150602083015190509250929050565b634e487b7160e01b600052601160045260246000fd5b60008219821115610d5f57610d5f610d36565b500190565b600082821015610d7657610d76610d36565b50039056fea26469706673582212200c480deba96c0e44d3e36e19cd088521967c9e1e897b8620d4c3544fd347fd5364736f6c634300080e0033608060405234801561001057600080fd5b50610698806100206000396000f3fe608060405234801561001057600080fd5b50600436106100935760003560e01c8063450177c611610066578063450177c61461012b57806391e0dbb81461013e578063cd15238814610153578063d212b4401461017b578063f4cb34d41461018e57600080fd5b8063078b7fdc1461009857806327f83cd3146100be578063319bb38f146100e8578063441a3e70146100fb575b600080fd5b6100ab6100a636600461055e565b6101a1565b6040519081526020015b60405180910390f35b6100d16100cc366004610577565b6101c4565b6040805192151583526020830191909152016100b5565b6100ab6100f636600461055e565b610329565b61010e6101093660046105a3565b61033b565b6040805193845260208401929092521515908201526060016100b5565b6100ab61013936600461055e565b6103a0565b336000908152600360205260409020546100ab565b6101666101613660046105a3565b6103f3565b604080519283526020830191909152016100b5565b6100ab61018936600461055e565b61048f565b6100ab61019c36600461055e565b61051c565b6000600154826000546101b491906105db565b6101be91906105fa565b92915050565b6000808281036101d65750606461027a565b600080546101e487866105db565b6101ee91906105fa565b90506000600154868661020191906105db565b61020b91906105fa565b90508082146102765760405162461bcd60e51b815260206004820152602c60248201527f50726f766964656420746f6b656e7320617265206e6f74206f6620657175697660448201526b30b632b73a103b30b63ab29760a11b60648201526084015b60405180910390fd5b5090505b600081116102db5760405162461bcd60e51b815260206004820152602860248201527f41737365742076616c7565206973206e6f7420656e6f75676820746f20636f6e6044820152673a3934b13aba329760c11b606482015260840161026d565b846000808282546102ec919061061c565b925050819055508360016000828254610305919061061c565b909155505060015460005461031a91906105db565b60025560019590945092505050565b60008054826001546101b491906105db565b600080600061034a85856103f3565b8093508194505050826000808282546103639190610634565b92505081905550816001600082825461037c9190610634565b909155505060015460005461039191906105db565b60025550909390925060019150565b600080826000546103b1919061061c565b90506000816002546103c391906105fa565b9050806001546103d39190610634565b925060015483036103ec57826103e88161064b565b9350505b5050919050565b600080828411156104525760405162461bcd60e51b8152602060048201526024808201527f53686172652073686f756c64206265206c657373207468616e20746f74616c536044820152636861726560e01b606482015260840161026d565b826000548561046191906105db565b61046b91906105fa565b9150826001548561047c91906105db565b61048691906105fa565b90509250929050565b600060015482106104e25760405162461bcd60e51b815260206004820152601960248201527f496e73756666696369656e7420706f6f6c2062616c616e636500000000000000604482015260640161026d565b6000826001546104f29190610634565b905060008160025461050491906105fa565b9050600054816105149190610634565b949350505050565b6000610527826103a0565b90508160008082825461053a919061061c565b9250508190555080600160008282546105539190610634565b909155509092915050565b60006020828403121561057057600080fd5b5035919050565b60008060006060848603121561058c57600080fd5b505081359360208301359350604090920135919050565b600080604083850312156105b657600080fd5b50508035926020909101359150565b634e487b7160e01b600052601160045260246000fd5b60008160001904831182151516156105f5576105f56105c5565b500290565b60008261061757634e487b7160e01b600052601260045260246000fd5b500490565b6000821982111561062f5761062f6105c5565b500190565b600082821015610646576106466105c5565b500390565b60008161065a5761065a6105c5565b50600019019056fea2646970667358221220483d8610b91b6de01ad89b8fc4c69717bd50eecbd303ad66a05b02fa48487e5364736f6c634300080e0033",
    "sourcePath": "d:/Pre_install/Git Repositories/dex/contracts/contracts/LiquidityPool.sol",
    "compiler": {
        "name": "solc",
        "version": "0.8.14+commit.80d49f37"
    },
    "functionHashes": {
        "deposit(uint256,uint256)": "e2bbb158",
        "owner()": "8da5cb5b",
        "percScale()": "9fc12985",
        "poolOwnerBalance(address)": "6ec81b76",
        "poolTotalValue()": "8f617c6c",
        "swapToken1ToToken2()": "2f1d56dc",
        "tokenAddressWhitelisted(address)": "038bb901",
        "transfer(address,uint256)": "a9059cbb",
        "transferFrom(address,address,uint256)": "23b872dd",
        "withdraw(uint256)": "2e1a7d4d"
    },
    "gasEstimates": {
        "creation": {
            "codeDepositCost": "701000",
            "executionCost": "infinite",
            "totalCost": "infinite"
        },
        "external": {
            "": "184",
            "deposit(uint256,uint256)": "infinite",
            "owner()": "2337",
            "percScale()": "2339",
            "poolOwnerBalance(address)": "2608",
            "poolTotalValue()": "2317",
            "swapToken1ToToken2()": "infinite",
            "tokenAddressWhitelisted(address)": "2521",
            "transfer(address,uint256)": "infinite",
            "transferFrom(address,address,uint256)": "infinite",
            "withdraw(uint256)": "infinite"
        }
    }
}