{
  "contractName": "AMM",
  "abi": [
    {
      "inputs": [],
      "stateMutability": "nonpayable",
      "type": "constructor"
    },
    {
      "inputs": [],
      "name": "getMyHoldings",
      "outputs": [
        {
          "internalType": "uint256",
          "name": "amountToken1",
          "type": "uint256"
        },
        {
          "internalType": "uint256",
          "name": "amountToken2",
          "type": "uint256"
        },
        {
          "internalType": "uint256",
          "name": "myShare",
          "type": "uint256"
        }
      ],
      "stateMutability": "view",
      "type": "function",
      "constant": true
    },
    {
      "inputs": [
        {
          "internalType": "uint256",
          "name": "_amountToken1",
          "type": "uint256"
        },
        {
          "internalType": "uint256",
          "name": "_amountToken2",
          "type": "uint256"
        }
      ],
      "name": "faucet",
      "outputs": [],
      "stateMutability": "nonpayable",
      "type": "function"
    },
    {
      "inputs": [
        {
          "internalType": "uint256",
          "name": "_amountToken1",
          "type": "uint256"
        },
        {
          "internalType": "uint256",
          "name": "_amountToken2",
          "type": "uint256"
        },
        {
          "internalType": "uint256",
          "name": "poolTotalDeposits",
          "type": "uint256"
        }
      ],
      "name": "provide",
      "outputs": [
        {
          "internalType": "bool",
          "name": "validShare",
          "type": "bool"
        },
        {
          "internalType": "uint256",
          "name": "share",
          "type": "uint256"
        }
      ],
      "stateMutability": "nonpayable",
      "type": "function"
    },
    {
      "inputs": [
        {
          "internalType": "uint256",
          "name": "_amountToken2",
          "type": "uint256"
        }
      ],
      "name": "getEquivalentToken1Estimate",
      "outputs": [
        {
          "internalType": "uint256",
          "name": "reqToken1",
          "type": "uint256"
        }
      ],
      "stateMutability": "view",
      "type": "function",
      "constant": true
    },
    {
      "inputs": [
        {
          "internalType": "uint256",
          "name": "_amountToken1",
          "type": "uint256"
        }
      ],
      "name": "getEquivalentToken2Estimate",
      "outputs": [
        {
          "internalType": "uint256",
          "name": "reqToken2",
          "type": "uint256"
        }
      ],
      "stateMutability": "view",
      "type": "function",
      "constant": true
    },
    {
      "inputs": [
        {
          "internalType": "uint256",
          "name": "_share",
          "type": "uint256"
        },
        {
          "internalType": "uint256",
          "name": "poolTotalDeposits",
          "type": "uint256"
        }
      ],
      "name": "getWithdrawEstimate",
      "outputs": [
        {
          "internalType": "uint256",
          "name": "amountToken1",
          "type": "uint256"
        },
        {
          "internalType": "uint256",
          "name": "amountToken2",
          "type": "uint256"
        }
      ],
      "stateMutability": "view",
      "type": "function",
      "constant": true
    },
    {
      "inputs": [
        {
          "internalType": "uint256",
          "name": "_share",
          "type": "uint256"
        },
        {
          "internalType": "uint256",
          "name": "poolTotalDeposits",
          "type": "uint256"
        }
      ],
      "name": "withdraw",
      "outputs": [
        {
          "internalType": "uint256",
          "name": "amountToken1",
          "type": "uint256"
        },
        {
          "internalType": "uint256",
          "name": "amountToken2",
          "type": "uint256"
        },
        {
          "internalType": "bool",
          "name": "validShare",
          "type": "bool"
        }
      ],
      "stateMutability": "nonpayable",
      "type": "function"
    },
    {
      "inputs": [
        {
          "internalType": "uint256",
          "name": "_amountToken1",
          "type": "uint256"
        }
      ],
      "name": "getSwapToken1Estimate",
      "outputs": [
        {
          "internalType": "uint256",
          "name": "amountToken2",
          "type": "uint256"
        }
      ],
      "stateMutability": "view",
      "type": "function",
      "constant": true
    },
    {
      "inputs": [
        {
          "internalType": "uint256",
          "name": "_amountToken2",
          "type": "uint256"
        }
      ],
      "name": "getSwapToken1EstimateGivenToken2",
      "outputs": [
        {
          "internalType": "uint256",
          "name": "amountToken1",
          "type": "uint256"
        }
      ],
      "stateMutability": "view",
      "type": "function",
      "constant": true
    },
    {
      "inputs": [
        {
          "internalType": "uint256",
          "name": "_amountToken1",
          "type": "uint256"
        }
      ],
      "name": "swapToken1",
      "outputs": [
        {
          "internalType": "uint256",
          "name": "amountToken2",
          "type": "uint256"
        }
      ],
      "stateMutability": "nonpayable",
      "type": "function"
    }
  ],
  "bytecode": "0x608060405234801561001057600080fd5b50611191806100206000396000f3fe608060405234801561001057600080fd5b506004361061009e5760003560e01c806391e0dbb81161006657806391e0dbb814610196578063cd152388146101b6578063d212b440146101e7578063f4cb34d414610217578063f9813798146102475761009e565b8063078b7fdc146100a357806327f83cd3146100d3578063319bb38f14610104578063441a3e7014610134578063450177c614610166575b600080fd5b6100bd60048036038101906100b89190610aee565b610263565b6040516100ca9190610b2a565b60405180910390f35b6100ed60048036038101906100e89190610b45565b610287565b6040516100fb929190610bb3565b60405180910390f35b61011e60048036038101906101199190610aee565b610471565b60405161012b9190610b2a565b60405180910390f35b61014e60048036038101906101499190610bdc565b610494565b60405161015d93929190610c1c565b60405180910390f35b610180600480360381019061017b9190610aee565b6105a9565b60405161018d9190610b2a565b60405180910390f35b61019e6105fe565b6040516101ad93929190610c53565b60405180910390f35b6101d060048036038101906101cb9190610bdc565b6106ce565b6040516101de929190610c8a565b60405180910390f35b61020160048036038101906101fc9190610aee565b610751565b60405161020e9190610b2a565b60405180910390f35b610231600480360381019061022c9190610aee565b6107d2565b60405161023e9190610b2a565b60405180910390f35b610261600480360381019061025c9190610bdc565b61098a565b005b6000600154826000546102769190610ce2565b6102809190610d6b565b9050919050565b6000806000915060008314156102ae57620f424060646102a79190610ce2565b905061032f565b6000805486856102be9190610ce2565b6102c89190610d6b565b9050600060015486866102db9190610ce2565b6102e59190610d6b565b9050808214610329576040517f08c379a000000000000000000000000000000000000000000000000000000000815260040161032090610e1f565b60405180910390fd5b81925050505b60008111610372576040517f08c379a000000000000000000000000000000000000000000000000000000000815260040161036990610eb1565b60405180910390fd5b84600460003373ffffffffffffffffffffffffffffffffffffffff1673ffffffffffffffffffffffffffffffffffffffff16815260200190815260200160002060008282546103c19190610ed1565b9250508190555083600560003373ffffffffffffffffffffffffffffffffffffffff1673ffffffffffffffffffffffffffffffffffffffff16815260200190815260200160002060008282546104179190610ed1565b925050819055508460008082825461042f9190610f05565b9250508190555083600160008282546104489190610f05565b9250508190555060015460005461045f9190610ce2565b60028190555060019150935093915050565b60008054826001546104839190610ce2565b61048d9190610d6b565b9050919050565b60008060006104a385856106ce565b8093508194505050826000808282546104bc9190610ed1565b9250508190555081600160008282546104d59190610ed1565b925050819055506001546000546104ec9190610ce2565b60028190555082600460003373ffffffffffffffffffffffffffffffffffffffff1673ffffffffffffffffffffffffffffffffffffffff16815260200190815260200160002060008282546105419190610f05565b9250508190555081600560003373ffffffffffffffffffffffffffffffffffffffff1673ffffffffffffffffffffffffffffffffffffffff16815260200190815260200160002060008282546105979190610f05565b92505081905550600190509250925092565b600080826000546105ba9190610f05565b90506000816002546105cc9190610d6b565b9050806001546105dc9190610ed1565b92506001548314156105f75782806105f390610f5b565b9350505b5050919050565b6000806000600460003373ffffffffffffffffffffffffffffffffffffffff1673ffffffffffffffffffffffffffffffffffffffff168152602001908152602001600020549250600560003373ffffffffffffffffffffffffffffffffffffffff1673ffffffffffffffffffffffffffffffffffffffff168152602001908152602001600020549150600360003373ffffffffffffffffffffffffffffffffffffffff1673ffffffffffffffffffffffffffffffffffffffff168152602001908152602001600020549050909192565b60008082841115610714576040517f08c379a000000000000000000000000000000000000000000000000000000000815260040161070b90610ff7565b60405180910390fd5b82600054856107239190610ce2565b61072d9190610d6b565b9150826001548561073e9190610ce2565b6107489190610d6b565b90509250929050565b60006001548210610797576040517f08c379a000000000000000000000000000000000000000000000000000000000815260040161078e90611063565b60405180910390fd5b6000826001546107a79190610ed1565b90506000816002546107b99190610d6b565b9050600054816107c99190610ed1565b92505050919050565b60006004826000811161081a576040517f08c379a0000000000000000000000000000000000000000000000000000000008152600401610811906110cf565b60405180910390fd5b8160003373ffffffffffffffffffffffffffffffffffffffff1673ffffffffffffffffffffffffffffffffffffffff1681526020019081526020016000205481111561089b576040517f08c379a00000000000000000000000000000000000000000000000000000000081526004016108929061113b565b60405180910390fd5b6108a4846105a9565b925083600460003373ffffffffffffffffffffffffffffffffffffffff1673ffffffffffffffffffffffffffffffffffffffff16815260200190815260200160002060008282546108f59190610ed1565b925050819055508360008082825461090d9190610f05565b9250508190555082600160008282546109269190610ed1565b9250508190555082600560003373ffffffffffffffffffffffffffffffffffffffff1673ffffffffffffffffffffffffffffffffffffffff168152602001908152602001600020600082825461097c9190610f05565b925050819055505050919050565b600082600460003373ffffffffffffffffffffffffffffffffffffffff1673ffffffffffffffffffffffffffffffffffffffff168152602001908152602001600020546109d79190610f05565b905080600460003373ffffffffffffffffffffffffffffffffffffffff1673ffffffffffffffffffffffffffffffffffffffff1681526020019081526020016000208190555081600560003373ffffffffffffffffffffffffffffffffffffffff1673ffffffffffffffffffffffffffffffffffffffff16815260200190815260200160002054610a689190610f05565b905080600560003373ffffffffffffffffffffffffffffffffffffffff1673ffffffffffffffffffffffffffffffffffffffff16815260200190815260200160002081905550505050565b600080fd5b6000819050919050565b610acb81610ab8565b8114610ad657600080fd5b50565b600081359050610ae881610ac2565b92915050565b600060208284031215610b0457610b03610ab3565b5b6000610b1284828501610ad9565b91505092915050565b610b2481610ab8565b82525050565b6000602082019050610b3f6000830184610b1b565b92915050565b600080600060608486031215610b5e57610b5d610ab3565b5b6000610b6c86828701610ad9565b9350506020610b7d86828701610ad9565b9250506040610b8e86828701610ad9565b9150509250925092565b60008115159050919050565b610bad81610b98565b82525050565b6000604082019050610bc86000830185610ba4565b610bd56020830184610b1b565b9392505050565b60008060408385031215610bf357610bf2610ab3565b5b6000610c0185828601610ad9565b9250506020610c1285828601610ad9565b9150509250929050565b6000606082019050610c316000830186610b1b565b610c3e6020830185610b1b565b610c4b6040830184610ba4565b949350505050565b6000606082019050610c686000830186610b1b565b610c756020830185610b1b565b610c826040830184610b1b565b949350505050565b6000604082019050610c9f6000830185610b1b565b610cac6020830184610b1b565b9392505050565b7f4e487b7100000000000000000000000000000000000000000000000000000000600052601160045260246000fd5b6000610ced82610ab8565b9150610cf883610ab8565b9250817fffffffffffffffffffffffffffffffffffffffffffffffffffffffffffffffff0483118215151615610d3157610d30610cb3565b5b828202905092915050565b7f4e487b7100000000000000000000000000000000000000000000000000000000600052601260045260246000fd5b6000610d7682610ab8565b9150610d8183610ab8565b925082610d9157610d90610d3c565b5b828204905092915050565b600082825260208201905092915050565b7f50726f766964656420746f6b656e7320617265206e6f74206f6620657175697660008201527f616c656e742076616c75652e0000000000000000000000000000000000000000602082015250565b6000610e09602c83610d9c565b9150610e1482610dad565b604082019050919050565b60006020820190508181036000830152610e3881610dfc565b9050919050565b7f41737365742076616c7565206973206e6f7420656e6f75676820746f20636f6e60008201527f747269627574652e000000000000000000000000000000000000000000000000602082015250565b6000610e9b602883610d9c565b9150610ea682610e3f565b604082019050919050565b60006020820190508181036000830152610eca81610e8e565b9050919050565b6000610edc82610ab8565b9150610ee783610ab8565b925082821015610efa57610ef9610cb3565b5b828203905092915050565b6000610f1082610ab8565b9150610f1b83610ab8565b9250827fffffffffffffffffffffffffffffffffffffffffffffffffffffffffffffffff03821115610f5057610f4f610cb3565b5b828201905092915050565b6000610f6682610ab8565b91506000821415610f7a57610f79610cb3565b5b600182039050919050565b7f53686172652073686f756c64206265206c657373207468616e20746f74616c5360008201527f6861726500000000000000000000000000000000000000000000000000000000602082015250565b6000610fe1602483610d9c565b9150610fec82610f85565b604082019050919050565b6000602082019050818103600083015261101081610fd4565b9050919050565b7f496e73756666696369656e7420706f6f6c2062616c616e636500000000000000600082015250565b600061104d601983610d9c565b915061105882611017565b602082019050919050565b6000602082019050818103600083015261107c81611040565b9050919050565b7f416d6f756e742063616e6e6f74206265207a65726f2100000000000000000000600082015250565b60006110b9601683610d9c565b91506110c482611083565b602082019050919050565b600060208201905081810360008301526110e8816110ac565b9050919050565b7f496e73756666696369656e7420616d6f756e7400000000000000000000000000600082015250565b6000611125601383610d9c565b9150611130826110ef565b602082019050919050565b6000602082019050818103600083015261115481611118565b905091905056fea26469706673582212208a02ac61e616042326702ef0c74140c2900a1b5373d5ce6b111173dc4aeef37b64736f6c634300080a0033",
  "immutableReferences": {},
  "source": "// SPDX-License-Identifier: MIT\r\npragma solidity >=0.8.10 <0.9.0;\r\n\r\ncontract AMM {\r\n    //uint totalShares;\r\n    uint256 totalToken1;\r\n    uint256 totalToken2;\r\n    //above should be done with pool once implemented.\r\n\r\n    uint256 K; // Algorithmic constant used to determine price (K = totalToken1 * totalToken2)\r\n\r\n    uint256 constant PRECISION = 1_000_000;\r\n    mapping(address => uint256) shares;\r\n    mapping(address => uint256) token1Balance;\r\n    mapping(address => uint256) token2Balance;\r\n\r\n    constructor() {}\r\n\r\n    modifier validAmountCheck(\r\n        mapping(address => uint256) storage _balance,\r\n        uint256 _quantity\r\n    ) {\r\n        require(_quantity > 0, \"Amount cannot be zero!\");\r\n        require(_quantity <= _balance[msg.sender], \"Insufficient amount\");\r\n        _;\r\n    }\r\n\r\n    // Restricts withdraw, swap feature until liquidity is added to the pool\r\n    //move this func\r\n    /*\r\n    modifier activePool() {\r\n        require(totalShares > 0, \"Zero Liquidity\");\r\n        _;\r\n    }\r\n    */\r\n\r\n    //could be moved to pool contract\r\n    function getMyHoldings()\r\n        external\r\n        view\r\n        returns (\r\n            uint256 amountToken1,\r\n            uint256 amountToken2,\r\n            uint256 myShare\r\n        )\r\n    {\r\n        amountToken1 = token1Balance[msg.sender];\r\n        amountToken2 = token2Balance[msg.sender];\r\n        myShare = shares[msg.sender];\r\n    }\r\n\r\n    //could be moved to pool contract\r\n    /*\r\n    function getPoolDetails()\r\n        external\r\n        view\r\n        returns (\r\n            uint256,\r\n            uint256,\r\n            uint256\r\n        )\r\n    {\r\n        return (totalToken1, totalToken2, totalShares);\r\n    }\r\n    */\r\n\r\n    // TODO REMOVE ME\r\n    // Sends free tokens to caller to test with\r\n    function faucet(uint256 _amountToken1, uint256 _amountToken2) external {\r\n        uint256 tokens = token1Balance[msg.sender] + _amountToken1;\r\n        token1Balance[msg.sender] = tokens;\r\n        tokens = token2Balance[msg.sender] + _amountToken2;\r\n        token2Balance[msg.sender] = tokens;\r\n    }\r\n\r\n    // function to add liquidity to pool\r\n    function provide(\r\n        uint256 _amountToken1,\r\n        uint256 _amountToken2,\r\n        uint256 poolTotalDeposits\r\n    ) external returns (bool validShare, uint256 share) {\r\n        validShare = false;\r\n        if (poolTotalDeposits == 0) {\r\n            share = 100 * PRECISION; // First liquidity provider\r\n        } else {\r\n            uint256 share1 = (poolTotalDeposits * _amountToken1) / totalToken1;\r\n            uint256 share2 = (poolTotalDeposits * _amountToken2) / totalToken2;\r\n            require(\r\n                share1 == share2,\r\n                \"Provided tokens are not of equivalent value.\"\r\n            );\r\n            share = share1;\r\n        }\r\n\r\n        require(share > 0, \"Asset value is not enough to contribute.\");\r\n\r\n        token1Balance[msg.sender] -= _amountToken1;\r\n        token2Balance[msg.sender] -= _amountToken2;\r\n\r\n        totalToken1 += _amountToken1;\r\n        totalToken2 += _amountToken2;\r\n        K = totalToken1 * totalToken2;\r\n\r\n        validShare = true;\r\n    }\r\n\r\n    function getEquivalentToken1Estimate(uint256 _amountToken2)\r\n        public\r\n        view\r\n        returns (uint256 reqToken1)\r\n    {\r\n        reqToken1 = (totalToken1 * _amountToken2) / totalToken2;\r\n    }\r\n\r\n    function getEquivalentToken2Estimate(uint256 _amountToken1)\r\n        public\r\n        view\r\n        returns (uint256 reqToken2)\r\n    {\r\n        reqToken2 = (totalToken2 * _amountToken1) / totalToken1;\r\n    }\r\n\r\n    // functions to remove liquidity\r\n    function getWithdrawEstimate(uint256 _share, uint256 poolTotalDeposits)\r\n        public\r\n        view\r\n        returns (uint256 amountToken1, uint256 amountToken2)\r\n    {\r\n        require(\r\n            _share <= poolTotalDeposits,\r\n            \"Share should be less than totalShare\"\r\n        );\r\n        amountToken1 = (_share * totalToken1) / poolTotalDeposits;\r\n        amountToken2 = (_share * totalToken2) / poolTotalDeposits;\r\n    }\r\n\r\n    function withdraw(uint256 _share, uint256 poolTotalDeposits)\r\n        external\r\n        returns (uint256 amountToken1, uint256 amountToken2, bool validShare)\r\n    {\r\n        validShare = false;\r\n        (amountToken1, amountToken2) = getWithdrawEstimate(\r\n            _share,\r\n            poolTotalDeposits\r\n        );\r\n\r\n        totalToken1 -= amountToken1;\r\n        totalToken2 -= amountToken2;\r\n        K = totalToken1 * totalToken2;\r\n\r\n        token1Balance[msg.sender] += amountToken1;\r\n        token2Balance[msg.sender] += amountToken2;\r\n        validShare = true;\r\n    }\r\n\r\n    // returns how much token2 user will get swapping token1 to token2\r\n    function getSwapToken1Estimate(uint256 _amountToken1)\r\n        public\r\n        view\r\n        returns (uint256 amountToken2)\r\n    {\r\n        uint256 token1After = totalToken1 + _amountToken1;\r\n        uint256 token2After = K / token1After;\r\n        amountToken2 = totalToken2 - token2After;\r\n\r\n        // To ensure that Token2's pool is not completely depleted leading to inf:0 ratio\r\n        if (amountToken2 == totalToken2) {\r\n            amountToken2--;\r\n        }\r\n    }\r\n\r\n    // returns how much token1 is needed to get X amount of token2\r\n    function getSwapToken1EstimateGivenToken2(uint256 _amountToken2)\r\n        public\r\n        view\r\n        returns (uint256 amountToken1)\r\n    {\r\n        require(_amountToken2 < totalToken2, \"Insufficient pool balance\");\r\n        uint256 token2After = totalToken2 - _amountToken2;\r\n        uint256 token1After = K / token2After;\r\n        amountToken1 = token1After - totalToken1;\r\n    }\r\n\r\n    // Swaps given amount of Token1 to Token2 using algorithmic price determination\r\n    function swapToken1(uint256 _amountToken1)\r\n        external\r\n        validAmountCheck(token1Balance, _amountToken1)\r\n        returns (uint256 amountToken2)\r\n    {\r\n        amountToken2 = getSwapToken1Estimate(_amountToken1);\r\n\r\n        token1Balance[msg.sender] -= _amountToken1;\r\n        totalToken1 += _amountToken1;\r\n        totalToken2 -= amountToken2;\r\n        token2Balance[msg.sender] += amountToken2;\r\n    }\r\n}\r\n",
  "sourcePath": "C:\\uni\\blockchain\\contracts\\contracts\\AutomatedMarketMaker.sol",
  "compiler": {
    "name": "solc",
    "version": "0.8.10+commit.fc410830.Emscripten.clang"
  },
  "schemaVersion": "3.4.6",
  "updatedAt": "2022-05-24T19:25:41.195Z",
  "networkType": "ethereum",
  "devdoc": {
    "kind": "dev",
    "methods": {},
    "version": 1
  },
  "userdoc": {
    "kind": "user",
    "methods": {},
    "version": 1
  }
}