{
  "contractName": "AutomatedMarketMaker",
  "abi": [
    {
      "inputs": [],
      "stateMutability": "nonpayable",
      "type": "constructor"
    },
    {
      "inputs": [
        {
          "internalType": "uint256",
          "name": "_amountToken1",
          "type": "uint256"
        },
        {
          "internalType": "uint256",
          "name": "_amountToken2",
          "type": "uint256"
        },
        {
          "internalType": "uint256",
          "name": "poolTotalDeposits",
          "type": "uint256"
        }
      ],
      "name": "provide",
      "outputs": [
        {
          "internalType": "bool",
          "name": "validShare",
          "type": "bool"
        },
        {
          "internalType": "uint256",
          "name": "share",
          "type": "uint256"
        }
      ],
      "stateMutability": "nonpayable",
      "type": "function"
    },
    {
      "inputs": [
        {
          "internalType": "uint256",
          "name": "_amountToken2",
          "type": "uint256"
        }
      ],
      "name": "getEquivalentToken1Estimate",
      "outputs": [
        {
          "internalType": "uint256",
          "name": "reqToken1",
          "type": "uint256"
        }
      ],
      "stateMutability": "view",
      "type": "function",
      "constant": true
    },
    {
      "inputs": [
        {
          "internalType": "uint256",
          "name": "_amountToken1",
          "type": "uint256"
        }
      ],
      "name": "getEquivalentToken2Estimate",
      "outputs": [
        {
          "internalType": "uint256",
          "name": "reqToken2",
          "type": "uint256"
        }
      ],
      "stateMutability": "view",
      "type": "function",
      "constant": true
    },
    {
      "inputs": [
        {
          "internalType": "uint256",
          "name": "_share",
          "type": "uint256"
        },
        {
          "internalType": "uint256",
          "name": "poolTotalDeposits",
          "type": "uint256"
        }
      ],
      "name": "getWithdrawEstimate",
      "outputs": [
        {
          "internalType": "uint256",
          "name": "amountToken1",
          "type": "uint256"
        },
        {
          "internalType": "uint256",
          "name": "amountToken2",
          "type": "uint256"
        }
      ],
      "stateMutability": "view",
      "type": "function",
      "constant": true
    },
    {
      "inputs": [
        {
          "internalType": "uint256",
          "name": "_share",
          "type": "uint256"
        },
        {
          "internalType": "uint256",
          "name": "poolTotalDeposits",
          "type": "uint256"
        }
      ],
      "name": "withdraw",
      "outputs": [
        {
          "internalType": "uint256",
          "name": "amountToken1",
          "type": "uint256"
        },
        {
          "internalType": "uint256",
          "name": "amountToken2",
          "type": "uint256"
        },
        {
          "internalType": "bool",
          "name": "validShare",
          "type": "bool"
        }
      ],
      "stateMutability": "nonpayable",
      "type": "function"
    },
    {
      "inputs": [
        {
          "internalType": "uint256",
          "name": "_amountToken1",
          "type": "uint256"
        }
      ],
      "name": "getSwapToken1Estimate",
      "outputs": [
        {
          "internalType": "uint256",
          "name": "amountToken2",
          "type": "uint256"
        }
      ],
      "stateMutability": "view",
      "type": "function",
      "constant": true
    },
    {
      "inputs": [
        {
          "internalType": "uint256",
          "name": "_amountToken2",
          "type": "uint256"
        }
      ],
      "name": "getSwapToken1EstimateGivenToken2",
      "outputs": [
        {
          "internalType": "uint256",
          "name": "amountToken1",
          "type": "uint256"
        }
      ],
      "stateMutability": "view",
      "type": "function",
      "constant": true
    },
    {
      "inputs": [
        {
          "internalType": "uint256",
          "name": "_amountToken1",
          "type": "uint256"
        }
      ],
      "name": "swapToken1",
      "outputs": [
        {
          "internalType": "uint256",
          "name": "amountToken2",
          "type": "uint256"
        }
      ],
      "stateMutability": "nonpayable",
      "type": "function"
    },
    {
      "inputs": [
        {
          "internalType": "uint256",
          "name": "_amountToken2",
          "type": "uint256"
        }
      ],
      "name": "getSwapToken2Estimate",
      "outputs": [
        {
          "internalType": "uint256",
          "name": "amountToken1",
          "type": "uint256"
        }
      ],
      "stateMutability": "view",
      "type": "function",
      "constant": true
    },
    {
      "inputs": [
        {
          "internalType": "uint256",
          "name": "_amountToken1",
          "type": "uint256"
        }
      ],
      "name": "getSwapToken2EstimateGivenToken1",
      "outputs": [
        {
          "internalType": "uint256",
          "name": "amountToken2",
          "type": "uint256"
        }
      ],
      "stateMutability": "view",
      "type": "function",
      "constant": true
    },
    {
      "inputs": [
        {
          "internalType": "uint256",
          "name": "_amountToken2",
          "type": "uint256"
        }
      ],
      "name": "swapToken2",
      "outputs": [
        {
          "internalType": "uint256",
          "name": "amountToken1",
          "type": "uint256"
        }
      ],
      "stateMutability": "nonpayable",
      "type": "function"
    }
  ],
  "bytecode": "0x608060405234801561001057600080fd5b50610fd5806100206000396000f3fe608060405234801561001057600080fd5b50600436106100a95760003560e01c80637565a92b116100715780637565a92b146101a1578063980d69d3146101d1578063cd15238814610201578063d212b44014610232578063d3817b4a14610262578063f4cb34d414610292576100a9565b8063078b7fdc146100ae57806327f83cd3146100de578063319bb38f1461010f578063441a3e701461013f578063450177c614610171575b600080fd5b6100c860048036038101906100c39190610a41565b6102c2565b6040516100d59190610a7d565b60405180910390f35b6100f860048036038101906100f39190610a98565b6102e6565b604051610106929190610b06565b60405180910390f35b61012960048036038101906101249190610a41565b6104c2565b6040516101369190610a7d565b60405180910390f35b61015960048036038101906101549190610b2f565b6104e5565b60405161016893929190610b6f565b60405180910390f35b61018b60048036038101906101869190610a41565b6105fa565b6040516101989190610a7d565b60405180910390f35b6101bb60048036038101906101b69190610a41565b61064f565b6040516101c89190610a7d565b60405180910390f35b6101eb60048036038101906101e69190610a41565b6106cf565b6040516101f89190610a7d565b60405180910390f35b61021b60048036038101906102169190610b2f565b6107be565b604051610229929190610ba6565b60405180910390f35b61024c60048036038101906102479190610a41565b610841565b6040516102599190610a7d565b60405180910390f35b61027c60048036038101906102779190610a41565b6108c2565b6040516102899190610a7d565b60405180910390f35b6102ac60048036038101906102a79190610a41565b610917565b6040516102b99190610a7d565b60405180910390f35b6000600154826000546102d59190610bfe565b6102df9190610c87565b9050919050565b6000806000915060008314156102ff5760649050610380565b60008054868561030f9190610bfe565b6103199190610c87565b90506000600154868661032c9190610bfe565b6103369190610c87565b905080821461037a576040517f08c379a000000000000000000000000000000000000000000000000000000000815260040161037190610d3b565b60405180910390fd5b81925050505b600081116103c3576040517f08c379a00000000000000000000000000000000000000000000000000000000081526004016103ba90610dcd565b60405180910390fd5b84600260003373ffffffffffffffffffffffffffffffffffffffff1673ffffffffffffffffffffffffffffffffffffffff16815260200190815260200160002060008282546104129190610ded565b9250508190555083600360003373ffffffffffffffffffffffffffffffffffffffff1673ffffffffffffffffffffffffffffffffffffffff16815260200190815260200160002060008282546104689190610ded565b92505081905550846000808282546104809190610ded565b9250508190555083600160008282546104999190610ded565b925050819055506001546000546104b09190610bfe565b60048190555060019150935093915050565b60008054826001546104d49190610bfe565b6104de9190610c87565b9050919050565b60008060006104f485856107be565b809350819450505082600260003373ffffffffffffffffffffffffffffffffffffffff1673ffffffffffffffffffffffffffffffffffffffff168152602001908152602001600020600082825461054b9190610e43565b9250508190555081600360003373ffffffffffffffffffffffffffffffffffffffff1673ffffffffffffffffffffffffffffffffffffffff16815260200190815260200160002060008282546105a19190610e43565b92505081905550826000808282546105b99190610e43565b9250508190555081600160008282546105d29190610e43565b925050819055506001546000546105e99190610bfe565b600481905550600190509250925092565b6000808260005461060b9190610ded565b905060008160045461061d9190610c87565b90508060015461062d9190610e43565b925060015483141561064857828061064490610e77565b9350505b5050919050565b600080548210610694576040517f08c379a000000000000000000000000000000000000000000000000000000000815260040161068b90610eed565b60405180910390fd5b6000826000546106a49190610e43565b90506000816004546106b69190610c87565b9050600154816106c69190610e43565b92505050919050565b60006106da826108c2565b9050806000808282546106ed9190610e43565b9250508190555081600160008282546107069190610ded565b9250508190555080600260003373ffffffffffffffffffffffffffffffffffffffff1673ffffffffffffffffffffffffffffffffffffffff168152602001908152602001600020600082825461075c9190610ded565b9250508190555081600360003373ffffffffffffffffffffffffffffffffffffffff1673ffffffffffffffffffffffffffffffffffffffff16815260200190815260200160002060008282546107b29190610e43565b92505081905550919050565b60008082841115610804576040517f08c379a00000000000000000000000000000000000000000000000000000000081526004016107fb90610f7f565b60405180910390fd5b82600054856108139190610bfe565b61081d9190610c87565b9150826001548561082e9190610bfe565b6108389190610c87565b90509250929050565b60006001548210610887576040517f08c379a000000000000000000000000000000000000000000000000000000000815260040161087e90610eed565b60405180910390fd5b6000826001546108979190610e43565b90506000816004546108a99190610c87565b9050600054816108b99190610e43565b92505050919050565b600080826001546108d39190610ded565b90506000816004546108e59190610c87565b9050806000546108f59190610e43565b925060005483141561091057828061090c90610e77565b9350505b5050919050565b6000610922826105fa565b9050816000808282546109359190610ded565b92505081905550806001600082825461094e9190610e43565b9250508190555081600260003373ffffffffffffffffffffffffffffffffffffffff1673ffffffffffffffffffffffffffffffffffffffff16815260200190815260200160002060008282546109a49190610e43565b9250508190555080600360003373ffffffffffffffffffffffffffffffffffffffff1673ffffffffffffffffffffffffffffffffffffffff16815260200190815260200160002060008282546109fa9190610ded565b92505081905550919050565b600080fd5b6000819050919050565b610a1e81610a0b565b8114610a2957600080fd5b50565b600081359050610a3b81610a15565b92915050565b600060208284031215610a5757610a56610a06565b5b6000610a6584828501610a2c565b91505092915050565b610a7781610a0b565b82525050565b6000602082019050610a926000830184610a6e565b92915050565b600080600060608486031215610ab157610ab0610a06565b5b6000610abf86828701610a2c565b9350506020610ad086828701610a2c565b9250506040610ae186828701610a2c565b9150509250925092565b60008115159050919050565b610b0081610aeb565b82525050565b6000604082019050610b1b6000830185610af7565b610b286020830184610a6e565b9392505050565b60008060408385031215610b4657610b45610a06565b5b6000610b5485828601610a2c565b9250506020610b6585828601610a2c565b9150509250929050565b6000606082019050610b846000830186610a6e565b610b916020830185610a6e565b610b9e6040830184610af7565b949350505050565b6000604082019050610bbb6000830185610a6e565b610bc86020830184610a6e565b9392505050565b7f4e487b7100000000000000000000000000000000000000000000000000000000600052601160045260246000fd5b6000610c0982610a0b565b9150610c1483610a0b565b9250817fffffffffffffffffffffffffffffffffffffffffffffffffffffffffffffffff0483118215151615610c4d57610c4c610bcf565b5b828202905092915050565b7f4e487b7100000000000000000000000000000000000000000000000000000000600052601260045260246000fd5b6000610c9282610a0b565b9150610c9d83610a0b565b925082610cad57610cac610c58565b5b828204905092915050565b600082825260208201905092915050565b7f50726f766964656420746f6b656e7320617265206e6f74206f6620657175697660008201527f616c656e742076616c75652e0000000000000000000000000000000000000000602082015250565b6000610d25602c83610cb8565b9150610d3082610cc9565b604082019050919050565b60006020820190508181036000830152610d5481610d18565b9050919050565b7f41737365742076616c7565206973206e6f7420656e6f75676820746f20636f6e60008201527f747269627574652e000000000000000000000000000000000000000000000000602082015250565b6000610db7602883610cb8565b9150610dc282610d5b565b604082019050919050565b60006020820190508181036000830152610de681610daa565b9050919050565b6000610df882610a0b565b9150610e0383610a0b565b9250827fffffffffffffffffffffffffffffffffffffffffffffffffffffffffffffffff03821115610e3857610e37610bcf565b5b828201905092915050565b6000610e4e82610a0b565b9150610e5983610a0b565b925082821015610e6c57610e6b610bcf565b5b828203905092915050565b6000610e8282610a0b565b91506000821415610e9657610e95610bcf565b5b600182039050919050565b7f496e73756666696369656e7420706f6f6c2062616c616e636500000000000000600082015250565b6000610ed7601983610cb8565b9150610ee282610ea1565b602082019050919050565b60006020820190508181036000830152610f0681610eca565b9050919050565b7f53686172652073686f756c64206265206c657373207468616e20746f74616c5360008201527f6861726500000000000000000000000000000000000000000000000000000000602082015250565b6000610f69602483610cb8565b9150610f7482610f0d565b604082019050919050565b60006020820190508181036000830152610f9881610f5c565b905091905056fea2646970667358221220783b400ab35ea23c52de4705292f872f0f88873283981cb39d2af13f4d544ead64736f6c634300080a0033",
  "immutableReferences": {},
  "source": "// SPDX-License-Identifier: MIT\r\npragma solidity >=0.8.10 <0.9.0;\r\n\r\ncontract AutomatedMarketMaker {\r\n    uint256 totalToken1;\r\n    uint256 totalToken2;\r\n\r\n    mapping(address => uint256) token1Balance;\r\n    mapping(address => uint256) token2Balance;\r\n\r\n    uint256 K; // Algorithmic constant used to determine price (K = totalToken1 * totalToken2)\r\n\r\n    constructor() {}\r\n\r\n    // function to add liquidity to pool\r\n    function provide(\r\n        uint256 _amountToken1,\r\n        uint256 _amountToken2,\r\n        uint256 poolTotalDeposits\r\n    ) external returns (bool validShare, uint256 share) \r\n    {\r\n        validShare = false;\r\n        if (poolTotalDeposits == 0) {\r\n            share = 100; //first LP\r\n        } else {\r\n            uint256 share1 = (poolTotalDeposits * _amountToken1) / totalToken1;\r\n            uint256 share2 = (poolTotalDeposits * _amountToken2) / totalToken2;\r\n            require(share1 == share2, \"Provided tokens are not of equivalent value.\");\r\n            share = share1;\r\n        }\r\n\r\n        require(share > 0, \"Asset value is not enough to contribute.\");\r\n\r\n        token1Balance[msg.sender] += _amountToken1;\r\n        token2Balance[msg.sender] += _amountToken2;\r\n\r\n        totalToken1 += _amountToken1;\r\n        totalToken2 += _amountToken2;\r\n        K = totalToken1 * totalToken2;\r\n\r\n        validShare = true;\r\n    }\r\n\r\n    function getEquivalentToken1Estimate(uint256 _amountToken2)\r\n        public\r\n        view\r\n        returns (uint256 reqToken1)\r\n    {\r\n        reqToken1 = (totalToken1 * _amountToken2) / totalToken2;\r\n    }\r\n\r\n    function getEquivalentToken2Estimate(uint256 _amountToken1)\r\n        public\r\n        view\r\n        returns (uint256 reqToken2)\r\n    {\r\n        reqToken2 = (totalToken2 * _amountToken1) / totalToken1;\r\n    }\r\n\r\n    // functions to remove liquidity\r\n    function getWithdrawEstimate(uint256 _share, uint256 poolTotalDeposits)\r\n        public\r\n        view\r\n        returns (uint256 amountToken1, uint256 amountToken2)\r\n    {\r\n        require(\r\n            _share <= poolTotalDeposits,\r\n            \"Share should be less than totalShare\"\r\n        );\r\n        amountToken1 = (_share * totalToken1) / poolTotalDeposits;\r\n        amountToken2 = (_share * totalToken2) / poolTotalDeposits;\r\n    }\r\n\r\n    function withdraw(uint256 _share, uint256 poolTotalDeposits)\r\n        external\r\n        returns (uint256 amountToken1, uint256 amountToken2, bool validShare)\r\n    {\r\n        validShare = false;\r\n        (amountToken1, amountToken2) = getWithdrawEstimate(\r\n            _share,\r\n            poolTotalDeposits\r\n        );\r\n\r\n        token1Balance[msg.sender] -= amountToken1;\r\n        token2Balance[msg.sender] -= amountToken2;\r\n\r\n        totalToken1 -= amountToken1;\r\n        totalToken2 -= amountToken2;\r\n        K = totalToken1 * totalToken2;\r\n\r\n        validShare = true;\r\n    }\r\n\r\n    // returns how much token2 user will get swapping token1 to token2\r\n    function getSwapToken1Estimate(uint256 _amountToken1)\r\n        public\r\n        view\r\n        returns (uint256 amountToken2)\r\n    {\r\n        uint256 token1After = totalToken1 + _amountToken1;\r\n        uint256 token2After = K / token1After;\r\n        amountToken2 = totalToken2 - token2After;\r\n\r\n        // To ensure that Token2's pool is not completely depleted leading to inf:0 ratio\r\n        if (amountToken2 == totalToken2) {\r\n            amountToken2--;\r\n        }\r\n    }\r\n\r\n    // returns how much token1 is needed to get X amount of token2\r\n    function getSwapToken1EstimateGivenToken2(uint256 _amountToken2)\r\n        public\r\n        view\r\n        returns (uint256 amountToken1)\r\n    {\r\n        require(_amountToken2 < totalToken2, \"Insufficient pool balance\");\r\n        uint256 token2After = totalToken2 - _amountToken2;\r\n        uint256 token1After = K / token2After;\r\n        amountToken1 = token1After - totalToken1;\r\n    }\r\n\r\n    // Swaps given amount of Token1 to Token2 using algorithmic price determination\r\n    function swapToken1(uint256 _amountToken1) external returns (uint256 amountToken2) {\r\n        amountToken2 = getSwapToken1Estimate(_amountToken1);\r\n\r\n        totalToken1 += _amountToken1;\r\n        totalToken2 -= amountToken2;\r\n\r\n        token1Balance[msg.sender] -= _amountToken1;\r\n        token2Balance[msg.sender] += amountToken2;\r\n    }\r\n\r\n\r\n    function getSwapToken2Estimate(uint256 _amountToken2)\r\n        public\r\n        view\r\n        returns (uint256 amountToken1)\r\n    {\r\n        uint256 token2After = totalToken2 + _amountToken2;\r\n        uint256 token1After = K / token2After;\r\n        amountToken1 = totalToken1 - token1After;\r\n\r\n        if (amountToken1 == totalToken1) {\r\n            amountToken1--;\r\n        }\r\n    }\r\n\r\n    function getSwapToken2EstimateGivenToken1(uint256 _amountToken1)\r\n        public\r\n        view\r\n        returns (uint256 amountToken2)\r\n    {\r\n        require(_amountToken1 < totalToken1, \"Insufficient pool balance\");\r\n        uint256 token1After = totalToken1 - _amountToken1;\r\n        uint256 token2After = K / token1After;\r\n        amountToken2 = token2After - totalToken2;\r\n    }\r\n\r\n    function swapToken2(uint256 _amountToken2) external returns (uint256 amountToken1) {\r\n        amountToken1 = getSwapToken2Estimate(_amountToken2);\r\n\r\n        totalToken1 -= amountToken1;\r\n        totalToken2 += _amountToken2;\r\n\r\n        token1Balance[msg.sender] += amountToken1;\r\n        token2Balance[msg.sender] -= _amountToken2;\r\n    }\r\n}\r\n",
  "sourcePath": "C:\\uni\\blockchain\\contracts\\contracts\\AutomatedMarketMaker.sol",
  "compiler": {
    "name": "solc",
    "version": "0.8.10+commit.fc410830.Emscripten.clang"
  },
  "schemaVersion": "3.4.6",
  "updatedAt": "2022-06-10T19:01:47.004Z",
  "networkType": "ethereum",
  "devdoc": {
    "kind": "dev",
    "methods": {},
    "version": 1
  },
  "userdoc": {
    "kind": "user",
    "methods": {},
    "version": 1
  }
}