{
  "contractName": "DexToken",
  "abi": [
    {
      "inputs": [],
      "stateMutability": "nonpayable",
      "type": "constructor"
    },
    {
      "anonymous": false,
      "inputs": [
        {
          "indexed": true,
          "internalType": "address",
          "name": "owner",
          "type": "address"
        },
        {
          "indexed": true,
          "internalType": "address",
          "name": "spender",
          "type": "address"
        },
        {
          "indexed": false,
          "internalType": "uint256",
          "name": "value",
          "type": "uint256"
        }
      ],
      "name": "Approval",
      "type": "event"
    },
    {
      "anonymous": false,
      "inputs": [
        {
          "indexed": true,
          "internalType": "address",
          "name": "previousOwner",
          "type": "address"
        },
        {
          "indexed": true,
          "internalType": "address",
          "name": "newOwner",
          "type": "address"
        }
      ],
      "name": "OwnershipTransferred",
      "type": "event"
    },
    {
      "anonymous": false,
      "inputs": [
        {
          "indexed": true,
          "internalType": "address",
          "name": "from",
          "type": "address"
        },
        {
          "indexed": true,
          "internalType": "address",
          "name": "to",
          "type": "address"
        },
        {
          "indexed": false,
          "internalType": "uint256",
          "name": "value",
          "type": "uint256"
        }
      ],
      "name": "Transfer",
      "type": "event"
    },
    {
      "inputs": [],
      "name": "decimals",
      "outputs": [
        {
          "internalType": "uint8",
          "name": "",
          "type": "uint8"
        }
      ],
      "stateMutability": "view",
      "type": "function",
      "constant": true
    },
    {
      "inputs": [
        {
          "internalType": "address",
          "name": "spender",
          "type": "address"
        },
        {
          "internalType": "uint256",
          "name": "subtractedValue",
          "type": "uint256"
        }
      ],
      "name": "decreaseAllowance",
      "outputs": [
        {
          "internalType": "bool",
          "name": "",
          "type": "bool"
        }
      ],
      "stateMutability": "nonpayable",
      "type": "function"
    },
    {
      "inputs": [
        {
          "internalType": "address",
          "name": "spender",
          "type": "address"
        },
        {
          "internalType": "uint256",
          "name": "addedValue",
          "type": "uint256"
        }
      ],
      "name": "increaseAllowance",
      "outputs": [
        {
          "internalType": "bool",
          "name": "",
          "type": "bool"
        }
      ],
      "stateMutability": "nonpayable",
      "type": "function"
    },
    {
      "inputs": [],
      "name": "name",
      "outputs": [
        {
          "internalType": "string",
          "name": "",
          "type": "string"
        }
      ],
      "stateMutability": "view",
      "type": "function",
      "constant": true
    },
    {
      "inputs": [],
      "name": "owner",
      "outputs": [
        {
          "internalType": "address",
          "name": "",
          "type": "address"
        }
      ],
      "stateMutability": "view",
      "type": "function",
      "constant": true
    },
    {
      "inputs": [],
      "name": "renounceOwnership",
      "outputs": [],
      "stateMutability": "nonpayable",
      "type": "function"
    },
    {
      "inputs": [],
      "name": "symbol",
      "outputs": [
        {
          "internalType": "string",
          "name": "",
          "type": "string"
        }
      ],
      "stateMutability": "view",
      "type": "function",
      "constant": true
    },
    {
      "inputs": [],
      "name": "totalSupply",
      "outputs": [
        {
          "internalType": "uint256",
          "name": "",
          "type": "uint256"
        }
      ],
      "stateMutability": "view",
      "type": "function",
      "constant": true
    },
    {
      "inputs": [
        {
          "internalType": "address",
          "name": "newOwner",
          "type": "address"
        }
      ],
      "name": "transferOwnership",
      "outputs": [],
      "stateMutability": "nonpayable",
      "type": "function"
    },
    {
      "inputs": [],
      "name": "getMaxSupply",
      "outputs": [
        {
          "internalType": "uint256",
          "name": "",
          "type": "uint256"
        }
      ],
      "stateMutability": "view",
      "type": "function",
      "constant": true
    },
    {
      "inputs": [
        {
          "internalType": "address",
          "name": "to",
          "type": "address"
        },
        {
          "internalType": "uint256",
          "name": "amount",
          "type": "uint256"
        }
      ],
      "name": "mint",
      "outputs": [],
      "stateMutability": "nonpayable",
      "type": "function"
    },
    {
      "inputs": [
        {
          "internalType": "uint256",
          "name": "amount",
          "type": "uint256"
        }
      ],
      "name": "burn",
      "outputs": [],
      "stateMutability": "nonpayable",
      "type": "function"
    },
    {
      "inputs": [
        {
          "internalType": "address",
          "name": "_addr",
          "type": "address"
        }
      ],
      "name": "balanceOf",
      "outputs": [
        {
          "internalType": "uint256",
          "name": "",
          "type": "uint256"
        }
      ],
      "stateMutability": "view",
      "type": "function",
      "constant": true
    },
    {
      "inputs": [
        {
          "internalType": "address",
          "name": "_to",
          "type": "address"
        },
        {
          "internalType": "uint256",
          "name": "_value",
          "type": "uint256"
        }
      ],
      "name": "transfer",
      "outputs": [
        {
          "internalType": "bool",
          "name": "",
          "type": "bool"
        }
      ],
      "stateMutability": "nonpayable",
      "type": "function"
    },
    {
      "inputs": [
        {
          "internalType": "address",
          "name": "_from",
          "type": "address"
        },
        {
          "internalType": "address",
          "name": "_to",
          "type": "address"
        },
        {
          "internalType": "uint256",
          "name": "_value",
          "type": "uint256"
        }
      ],
      "name": "transferFrom",
      "outputs": [
        {
          "internalType": "bool",
          "name": "success",
          "type": "bool"
        }
      ],
      "stateMutability": "nonpayable",
      "type": "function"
    },
    {
      "inputs": [
        {
          "internalType": "address",
          "name": "_spender",
          "type": "address"
        },
        {
          "internalType": "uint256",
          "name": "_value",
          "type": "uint256"
        }
      ],
      "name": "approve",
      "outputs": [
        {
          "internalType": "bool",
          "name": "success",
          "type": "bool"
        }
      ],
      "stateMutability": "nonpayable",
      "type": "function"
    },
    {
      "inputs": [
        {
          "internalType": "address",
          "name": "_owner",
          "type": "address"
        },
        {
          "internalType": "address",
          "name": "_spender",
          "type": "address"
        }
      ],
      "name": "allowance",
      "outputs": [
        {
          "internalType": "uint256",
          "name": "remaining",
          "type": "uint256"
        }
      ],
      "stateMutability": "view",
      "type": "function",
      "constant": true
    },
    {
      "inputs": [
        {
          "internalType": "address",
          "name": "_addr",
          "type": "address"
        }
      ],
      "name": "isContract",
      "outputs": [
        {
          "internalType": "bool",
          "name": "",
          "type": "bool"
        }
      ],
      "stateMutability": "view",
      "type": "function",
      "constant": true
    }
  ],
  "bytecode": "0x60806040526040518060400160405280600981526020017f44657820546f6b656e00000000000000000000000000000000000000000000008152506006908051906020019062000051929190620004cc565b506040518060400160405280600381526020017f4445580000000000000000000000000000000000000000000000000000000000815250600790805190602001906200009f929190620004cc565b50620000b06200027260201b60201c565b600a620000be919062000716565b6103e8620000cd919062000767565b600855348015620000dd57600080fd5b5060068054620000ed90620007f7565b80601f01602080910402602001604051908101604052809291908181526020018280546200011b90620007f7565b80156200016c5780601f1062000140576101008083540402835291602001916200016c565b820191906000526020600020905b8154815290600101906020018083116200014e57829003601f168201915b5050505050600780546200018090620007f7565b80601f0160208091040260200160405190810160405280929190818152602001828054620001ae90620007f7565b8015620001ff5780601f10620001d357610100808354040283529160200191620001ff565b820191906000526020600020905b815481529060010190602001808311620001e157829003601f168201915b505050505081600390805190602001906200021c929190620004cc565b50806004908051906020019062000235929190620004cc565b505050620002586200024c6200027b60201b60201c565b6200028360201b60201c565b6200026c336008546200034960201b60201c565b6200093b565b60006012905090565b600033905090565b6000600560009054906101000a900473ffffffffffffffffffffffffffffffffffffffff16905081600560006101000a81548173ffffffffffffffffffffffffffffffffffffffff021916908373ffffffffffffffffffffffffffffffffffffffff1602179055508173ffffffffffffffffffffffffffffffffffffffff168173ffffffffffffffffffffffffffffffffffffffff167f8be0079c531659141344cd1fd0a4f28419497f9722a3daafe3b4186f6b6457e060405160405180910390a35050565b600073ffffffffffffffffffffffffffffffffffffffff168273ffffffffffffffffffffffffffffffffffffffff161415620003bc576040517f08c379a0000000000000000000000000000000000000000000000000000000008152600401620003b3906200088e565b60405180910390fd5b620003d060008383620004c260201b60201c565b8060026000828254620003e49190620008b0565b92505081905550806000808473ffffffffffffffffffffffffffffffffffffffff1673ffffffffffffffffffffffffffffffffffffffff16815260200190815260200160002060008282546200043b9190620008b0565b925050819055508173ffffffffffffffffffffffffffffffffffffffff16600073ffffffffffffffffffffffffffffffffffffffff167fddf252ad1be2c89b69c2b068fc378daa952ba7f163c4a11628f55a4df523b3ef83604051620004a291906200091e565b60405180910390a3620004be60008383620004c760201b60201c565b5050565b505050565b505050565b828054620004da90620007f7565b90600052602060002090601f016020900481019282620004fe57600085556200054a565b82601f106200051957805160ff19168380011785556200054a565b828001600101855582156200054a579182015b82811115620005495782518255916020019190600101906200052c565b5b5090506200055991906200055d565b5090565b5b80821115620005785760008160009055506001016200055e565b5090565b7f4e487b7100000000000000000000000000000000000000000000000000000000600052601160045260246000fd5b60008160011c9050919050565b6000808291508390505b60018511156200060a57808604811115620005e257620005e16200057c565b5b6001851615620005f25780820291505b80810290506200060285620005ab565b9450620005c2565b94509492505050565b600082620006255760019050620006f8565b81620006355760009050620006f8565b81600181146200064e576002811462000659576200068f565b6001915050620006f8565b60ff8411156200066e576200066d6200057c565b5b8360020a9150848211156200068857620006876200057c565b5b50620006f8565b5060208310610133831016604e8410600b8410161715620006c95782820a905083811115620006c357620006c26200057c565b5b620006f8565b620006d88484846001620005b8565b92509050818404811115620006f257620006f16200057c565b5b81810290505b9392505050565b6000819050919050565b600060ff82169050919050565b60006200072382620006ff565b9150620007308362000709565b92506200075f7fffffffffffffffffffffffffffffffffffffffffffffffffffffffffffffffff848462000613565b905092915050565b60006200077482620006ff565b91506200078183620006ff565b9250817fffffffffffffffffffffffffffffffffffffffffffffffffffffffffffffffff0483118215151615620007bd57620007bc6200057c565b5b828202905092915050565b7f4e487b7100000000000000000000000000000000000000000000000000000000600052602260045260246000fd5b600060028204905060018216806200081057607f821691505b60208210811415620008275762000826620007c8565b5b50919050565b600082825260208201905092915050565b7f45524332303a206d696e7420746f20746865207a65726f206164647265737300600082015250565b600062000876601f836200082d565b915062000883826200083e565b602082019050919050565b60006020820190508181036000830152620008a98162000867565b9050919050565b6000620008bd82620006ff565b9150620008ca83620006ff565b9250827fffffffffffffffffffffffffffffffffffffffffffffffffffffffffffffffff038211156200090257620009016200057c565b5b828201905092915050565b6200091881620006ff565b82525050565b60006020820190506200093560008301846200090d565b92915050565b611ec0806200094b6000396000f3fe608060405234801561001057600080fd5b50600436106101165760003560e01c80634c0f38c2116100a257806395d89b411161007157806395d89b41146102e3578063a457c2d714610301578063a9059cbb14610331578063dd62ed3e14610361578063f2fde38b1461039157610116565b80634c0f38c21461026d57806370a082311461028b578063715018a6146102bb5780638da5cb5b146102c557610116565b806323b872dd116100e957806323b872dd146101b7578063313ce567146101e7578063395093511461020557806340c10f191461023557806342966c681461025157610116565b806306fdde031461011b578063095ea7b314610139578063162790551461016957806318160ddd14610199575b600080fd5b6101236103ad565b6040516101309190611617565b60405180910390f35b610153600480360381019061014e91906116d2565b61043f565b604051610160919061172d565b60405180910390f35b610183600480360381019061017e9190611748565b610531565b604051610190919061172d565b60405180910390f35b6101a161054a565b6040516101ae9190611784565b60405180910390f35b6101d160048036038101906101cc919061179f565b610554565b6040516101de919061172d565b60405180910390f35b6101ef610872565b6040516101fc919061180e565b60405180910390f35b61021f600480360381019061021a91906116d2565b61087b565b60405161022c919061172d565b60405180910390f35b61024f600480360381019061024a91906116d2565b610925565b005b61026b60048036038101906102669190611829565b610a0b565b005b610275610a18565b6040516102829190611784565b60405180910390f35b6102a560048036038101906102a09190611748565b610a22565b6040516102b29190611784565b60405180910390f35b6102c3610a6b565b005b6102cd610af3565b6040516102da9190611865565b60405180910390f35b6102eb610b1d565b6040516102f89190611617565b60405180910390f35b61031b600480360381019061031691906116d2565b610baf565b604051610328919061172d565b60405180910390f35b61034b600480360381019061034691906116d2565b610c99565b604051610358919061172d565b60405180910390f35b61037b60048036038101906103769190611880565b610e25565b6040516103889190611784565b60405180910390f35b6103ab60048036038101906103a69190611748565b610eac565b005b6060600380546103bc906118ef565b80601f01602080910402602001604051908101604052809291908181526020018280546103e8906118ef565b80156104355780601f1061040a57610100808354040283529160200191610435565b820191906000526020600020905b81548152906001019060200180831161041857829003601f168201915b5050505050905090565b600081600a60003373ffffffffffffffffffffffffffffffffffffffff1673ffffffffffffffffffffffffffffffffffffffff16815260200190815260200160002060008573ffffffffffffffffffffffffffffffffffffffff1673ffffffffffffffffffffffffffffffffffffffff168152602001908152602001600020819055508273ffffffffffffffffffffffffffffffffffffffff163373ffffffffffffffffffffffffffffffffffffffff167f8c5be1e5ebec7d5bd14f71427d1e84f3dd0314c0f7b2291e5b200ac8c7c3b9258460405161051f9190611784565b60405180910390a36001905092915050565b600080823b905060008163ffffffff1611915050919050565b6000600254905090565b600080600a60008673ffffffffffffffffffffffffffffffffffffffff1673ffffffffffffffffffffffffffffffffffffffff16815260200190815260200160002060003373ffffffffffffffffffffffffffffffffffffffff1673ffffffffffffffffffffffffffffffffffffffff168152602001908152602001600020541180156105e15750600082115b8015610669575081600a60008673ffffffffffffffffffffffffffffffffffffffff1673ffffffffffffffffffffffffffffffffffffffff16815260200190815260200160002060003373ffffffffffffffffffffffffffffffffffffffff1673ffffffffffffffffffffffffffffffffffffffff1681526020019081526020016000205410155b80156106b4575081600960008673ffffffffffffffffffffffffffffffffffffffff1673ffffffffffffffffffffffffffffffffffffffff1681526020019081526020016000205410155b156108665781600960008673ffffffffffffffffffffffffffffffffffffffff1673ffffffffffffffffffffffffffffffffffffffff16815260200190815260200160002060008282546107089190611950565b9250508190555081600960008573ffffffffffffffffffffffffffffffffffffffff1673ffffffffffffffffffffffffffffffffffffffff168152602001908152602001600020600082825461075e9190611984565b9250508190555081600a60008673ffffffffffffffffffffffffffffffffffffffff1673ffffffffffffffffffffffffffffffffffffffff16815260200190815260200160002060003373ffffffffffffffffffffffffffffffffffffffff1673ffffffffffffffffffffffffffffffffffffffff16815260200190815260200160002060008282546107f19190611950565b925050819055508273ffffffffffffffffffffffffffffffffffffffff168473ffffffffffffffffffffffffffffffffffffffff167fddf252ad1be2c89b69c2b068fc378daa952ba7f163c4a11628f55a4df523b3ef846040516108559190611784565b60405180910390a36001905061086b565b600090505b9392505050565b60006012905090565b600080610886610fa4565b905061091a818585600160008673ffffffffffffffffffffffffffffffffffffffff1673ffffffffffffffffffffffffffffffffffffffff16815260200190815260200160002060008973ffffffffffffffffffffffffffffffffffffffff1673ffffffffffffffffffffffffffffffffffffffff168152602001908152602001600020546109159190611984565b610fac565b600191505092915050565b61092d610fa4565b73ffffffffffffffffffffffffffffffffffffffff1661094b610af3565b73ffffffffffffffffffffffffffffffffffffffff16146109a1576040517f08c379a000000000000000000000000000000000000000000000000000000000815260040161099890611a26565b60405180910390fd5b6109a9610a18565b816109b261054a565b6109bc9190611984565b11156109fd576040517f08c379a00000000000000000000000000000000000000000000000000000000081526004016109f490611a92565b60405180910390fd5b610a078282611177565b5050565b610a1533826112d7565b50565b6000600854905090565b6000600960008373ffffffffffffffffffffffffffffffffffffffff1673ffffffffffffffffffffffffffffffffffffffff168152602001908152602001600020549050919050565b610a73610fa4565b73ffffffffffffffffffffffffffffffffffffffff16610a91610af3565b73ffffffffffffffffffffffffffffffffffffffff1614610ae7576040517f08c379a0000000000000000000000000000000000000000000000000000000008152600401610ade90611a26565b60405180910390fd5b610af160006114ae565b565b6000600560009054906101000a900473ffffffffffffffffffffffffffffffffffffffff16905090565b606060048054610b2c906118ef565b80601f0160208091040260200160405190810160405280929190818152602001828054610b58906118ef565b8015610ba55780601f10610b7a57610100808354040283529160200191610ba5565b820191906000526020600020905b815481529060010190602001808311610b8857829003601f168201915b5050505050905090565b600080610bba610fa4565b90506000600160008373ffffffffffffffffffffffffffffffffffffffff1673ffffffffffffffffffffffffffffffffffffffff16815260200190815260200160002060008673ffffffffffffffffffffffffffffffffffffffff1673ffffffffffffffffffffffffffffffffffffffff16815260200190815260200160002054905083811015610c80576040517f08c379a0000000000000000000000000000000000000000000000000000000008152600401610c7790611b24565b60405180910390fd5b610c8d8286868403610fac565b60019250505092915050565b60008082118015610ce95750600960003373ffffffffffffffffffffffffffffffffffffffff1673ffffffffffffffffffffffffffffffffffffffff168152602001908152602001600020548211155b8015610cfb5750610cf983610531565b155b15610e1a5781600960003373ffffffffffffffffffffffffffffffffffffffff1673ffffffffffffffffffffffffffffffffffffffff1681526020019081526020016000206000828254610d4f9190611950565b9250508190555081600960008573ffffffffffffffffffffffffffffffffffffffff1673ffffffffffffffffffffffffffffffffffffffff1681526020019081526020016000206000828254610da59190611984565b925050819055508273ffffffffffffffffffffffffffffffffffffffff163373ffffffffffffffffffffffffffffffffffffffff167fddf252ad1be2c89b69c2b068fc378daa952ba7f163c4a11628f55a4df523b3ef84604051610e099190611784565b60405180910390a360019050610e1f565b600090505b92915050565b6000600a60008473ffffffffffffffffffffffffffffffffffffffff1673ffffffffffffffffffffffffffffffffffffffff16815260200190815260200160002060008373ffffffffffffffffffffffffffffffffffffffff1673ffffffffffffffffffffffffffffffffffffffff16815260200190815260200160002054905092915050565b610eb4610fa4565b73ffffffffffffffffffffffffffffffffffffffff16610ed2610af3565b73ffffffffffffffffffffffffffffffffffffffff1614610f28576040517f08c379a0000000000000000000000000000000000000000000000000000000008152600401610f1f90611a26565b60405180910390fd5b600073ffffffffffffffffffffffffffffffffffffffff168173ffffffffffffffffffffffffffffffffffffffff161415610f98576040517f08c379a0000000000000000000000000000000000000000000000000000000008152600401610f8f90611bb6565b60405180910390fd5b610fa1816114ae565b50565b600033905090565b600073ffffffffffffffffffffffffffffffffffffffff168373ffffffffffffffffffffffffffffffffffffffff16141561101c576040517f08c379a000000000000000000000000000000000000000000000000000000000815260040161101390611c48565b60405180910390fd5b600073ffffffffffffffffffffffffffffffffffffffff168273ffffffffffffffffffffffffffffffffffffffff16141561108c576040517f08c379a000000000000000000000000000000000000000000000000000000000815260040161108390611cda565b60405180910390fd5b80600160008573ffffffffffffffffffffffffffffffffffffffff1673ffffffffffffffffffffffffffffffffffffffff16815260200190815260200160002060008473ffffffffffffffffffffffffffffffffffffffff1673ffffffffffffffffffffffffffffffffffffffff168152602001908152602001600020819055508173ffffffffffffffffffffffffffffffffffffffff168373ffffffffffffffffffffffffffffffffffffffff167f8c5be1e5ebec7d5bd14f71427d1e84f3dd0314c0f7b2291e5b200ac8c7c3b9258360405161116a9190611784565b60405180910390a3505050565b600073ffffffffffffffffffffffffffffffffffffffff168273ffffffffffffffffffffffffffffffffffffffff1614156111e7576040517f08c379a00000000000000000000000000000000000000000000000000000000081526004016111de90611d46565b60405180910390fd5b6111f360008383611574565b80600260008282546112059190611984565b92505081905550806000808473ffffffffffffffffffffffffffffffffffffffff1673ffffffffffffffffffffffffffffffffffffffff168152602001908152602001600020600082825461125a9190611984565b925050819055508173ffffffffffffffffffffffffffffffffffffffff16600073ffffffffffffffffffffffffffffffffffffffff167fddf252ad1be2c89b69c2b068fc378daa952ba7f163c4a11628f55a4df523b3ef836040516112bf9190611784565b60405180910390a36112d360008383611579565b5050565b600073ffffffffffffffffffffffffffffffffffffffff168273ffffffffffffffffffffffffffffffffffffffff161415611347576040517f08c379a000000000000000000000000000000000000000000000000000000000815260040161133e90611dd8565b60405180910390fd5b61135382600083611574565b60008060008473ffffffffffffffffffffffffffffffffffffffff1673ffffffffffffffffffffffffffffffffffffffff168152602001908152602001600020549050818110156113d9576040517f08c379a00000000000000000000000000000000000000000000000000000000081526004016113d090611e6a565b60405180910390fd5b8181036000808573ffffffffffffffffffffffffffffffffffffffff1673ffffffffffffffffffffffffffffffffffffffff1681526020019081526020016000208190555081600260008282546114309190611950565b92505081905550600073ffffffffffffffffffffffffffffffffffffffff168373ffffffffffffffffffffffffffffffffffffffff167fddf252ad1be2c89b69c2b068fc378daa952ba7f163c4a11628f55a4df523b3ef846040516114959190611784565b60405180910390a36114a983600084611579565b505050565b6000600560009054906101000a900473ffffffffffffffffffffffffffffffffffffffff16905081600560006101000a81548173ffffffffffffffffffffffffffffffffffffffff021916908373ffffffffffffffffffffffffffffffffffffffff1602179055508173ffffffffffffffffffffffffffffffffffffffff168173ffffffffffffffffffffffffffffffffffffffff167f8be0079c531659141344cd1fd0a4f28419497f9722a3daafe3b4186f6b6457e060405160405180910390a35050565b505050565b505050565b600081519050919050565b600082825260208201905092915050565b60005b838110156115b857808201518184015260208101905061159d565b838111156115c7576000848401525b50505050565b6000601f19601f8301169050919050565b60006115e98261157e565b6115f38185611589565b935061160381856020860161159a565b61160c816115cd565b840191505092915050565b6000602082019050818103600083015261163181846115de565b905092915050565b600080fd5b600073ffffffffffffffffffffffffffffffffffffffff82169050919050565b60006116698261163e565b9050919050565b6116798161165e565b811461168457600080fd5b50565b60008135905061169681611670565b92915050565b6000819050919050565b6116af8161169c565b81146116ba57600080fd5b50565b6000813590506116cc816116a6565b92915050565b600080604083850312156116e9576116e8611639565b5b60006116f785828601611687565b9250506020611708858286016116bd565b9150509250929050565b60008115159050919050565b61172781611712565b82525050565b6000602082019050611742600083018461171e565b92915050565b60006020828403121561175e5761175d611639565b5b600061176c84828501611687565b91505092915050565b61177e8161169c565b82525050565b60006020820190506117996000830184611775565b92915050565b6000806000606084860312156117b8576117b7611639565b5b60006117c686828701611687565b93505060206117d786828701611687565b92505060406117e8868287016116bd565b9150509250925092565b600060ff82169050919050565b611808816117f2565b82525050565b600060208201905061182360008301846117ff565b92915050565b60006020828403121561183f5761183e611639565b5b600061184d848285016116bd565b91505092915050565b61185f8161165e565b82525050565b600060208201905061187a6000830184611856565b92915050565b6000806040838503121561189757611896611639565b5b60006118a585828601611687565b92505060206118b685828601611687565b9150509250929050565b7f4e487b7100000000000000000000000000000000000000000000000000000000600052602260045260246000fd5b6000600282049050600182168061190757607f821691505b6020821081141561191b5761191a6118c0565b5b50919050565b7f4e487b7100000000000000000000000000000000000000000000000000000000600052601160045260246000fd5b600061195b8261169c565b91506119668361169c565b92508282101561197957611978611921565b5b828203905092915050565b600061198f8261169c565b915061199a8361169c565b9250827fffffffffffffffffffffffffffffffffffffffffffffffffffffffffffffffff038211156119cf576119ce611921565b5b828201905092915050565b7f4f776e61626c653a2063616c6c6572206973206e6f7420746865206f776e6572600082015250565b6000611a10602083611589565b9150611a1b826119da565b602082019050919050565b60006020820190508181036000830152611a3f81611a03565b9050919050565b7f4d6178696d756d20737570706c79206578636565646564000000000000000000600082015250565b6000611a7c601783611589565b9150611a8782611a46565b602082019050919050565b60006020820190508181036000830152611aab81611a6f565b9050919050565b7f45524332303a2064656372656173656420616c6c6f77616e63652062656c6f7760008201527f207a65726f000000000000000000000000000000000000000000000000000000602082015250565b6000611b0e602583611589565b9150611b1982611ab2565b604082019050919050565b60006020820190508181036000830152611b3d81611b01565b9050919050565b7f4f776e61626c653a206e6577206f776e657220697320746865207a65726f206160008201527f6464726573730000000000000000000000000000000000000000000000000000602082015250565b6000611ba0602683611589565b9150611bab82611b44565b604082019050919050565b60006020820190508181036000830152611bcf81611b93565b9050919050565b7f45524332303a20617070726f76652066726f6d20746865207a65726f2061646460008201527f7265737300000000000000000000000000000000000000000000000000000000602082015250565b6000611c32602483611589565b9150611c3d82611bd6565b604082019050919050565b60006020820190508181036000830152611c6181611c25565b9050919050565b7f45524332303a20617070726f766520746f20746865207a65726f20616464726560008201527f7373000000000000000000000000000000000000000000000000000000000000602082015250565b6000611cc4602283611589565b9150611ccf82611c68565b604082019050919050565b60006020820190508181036000830152611cf381611cb7565b9050919050565b7f45524332303a206d696e7420746f20746865207a65726f206164647265737300600082015250565b6000611d30601f83611589565b9150611d3b82611cfa565b602082019050919050565b60006020820190508181036000830152611d5f81611d23565b9050919050565b7f45524332303a206275726e2066726f6d20746865207a65726f2061646472657360008201527f7300000000000000000000000000000000000000000000000000000000000000602082015250565b6000611dc2602183611589565b9150611dcd82611d66565b604082019050919050565b60006020820190508181036000830152611df181611db5565b9050919050565b7f45524332303a206275726e20616d6f756e7420657863656564732062616c616e60008201527f6365000000000000000000000000000000000000000000000000000000000000602082015250565b6000611e54602283611589565b9150611e5f82611df8565b604082019050919050565b60006020820190508181036000830152611e8381611e47565b905091905056fea2646970667358221220fd6fc1e0fe0e0d49ace056f2347ef9574d6040c8d471856042ac663208ffac0364736f6c634300080a0033",
  "immutableReferences": {},
  "source": "pragma solidity >=0.8.10 <0.9.0;\r\n\r\nimport \"@openzeppelin/contracts/token/ERC20/ERC20.sol\";\r\nimport \"@openzeppelin/contracts/access/Ownable.sol\";\r\n\r\ncontract DexToken is ERC20, Ownable {\r\n  string _name = 'Dex Token';\r\n  string _symbol = 'DEX';\r\n  uint256 private supply = 1000 * 10 ** decimals();\r\n\r\n  mapping(address => uint) private __balanceOf;\r\n  mapping(address => mapping(address => uint)) __allowances;\r\n\r\n  constructor() ERC20(_name, _symbol) {\r\n    _mint(msg.sender, supply);\r\n  }\r\n\r\n  function getMaxSupply() public view returns (uint256) {\r\n    return supply;\r\n  }\r\n\r\n  function mint(address to, uint256 amount) public onlyOwner {\r\n    require(totalSupply() + amount <= getMaxSupply(), \"Maximum supply exceeded\");\r\n    _mint(to, amount);\r\n  }\r\n\r\n  function burn(uint amount) external {\r\n    _burn(msg.sender, amount);\r\n  }\r\n\r\n\r\n\r\n  function balanceOf(address _addr) public view override returns (uint) {\r\n    return __balanceOf[_addr];\r\n  }\r\n  \r\n  //ERC20\r\n  function transfer(address _to, uint _value) public override returns (bool) {\r\n    if (_value > 0 && _value <= __balanceOf[msg.sender] && !isContract(_to)) {\r\n        __balanceOf[msg.sender] -= _value;\r\n        __balanceOf[_to] += _value;\r\n        emit Transfer(msg.sender, _to, _value); \r\n        return true;\r\n    }\r\n    return false;\r\n  }\r\n\r\n  //ERC223 WIP\r\n  /*  \r\n  function transfer(address _to, uint _value, bytes memory _data) public returns (bool) {\r\n    if (_value > 0 && _value <= __balanceOf[msg.sender] && isContract(_to)) {\r\n        __balanceOf[msg.sender] -= _value;\r\n        __balanceOf[_to] += _value;\r\n        ERC223ReceivingContract _contract = ERC223ReceivingContract(_to);\r\n            _contract.tokenFallback(msg.sender, _value, _data);\r\n        emit Transfer(msg.sender, _to, _value, _data);\r\n        return true;\r\n    }\r\n    return false;\r\n  }\r\n  */\r\n\r\n  function transferFrom(address _from, address _to, uint _value) public override returns (bool success) {\r\n    if (__allowances[_from][msg.sender] > 0 && _value > 0 &&\r\n        __allowances[_from][msg.sender] >= _value && __balanceOf[_from] >= _value) {\r\n            \r\n        __balanceOf[_from] -= _value;\r\n        __balanceOf[_to] += _value;          \r\n        __allowances[_from][msg.sender] -= _value;\r\n        emit Transfer(_from, _to, _value);\r\n        return true;\r\n    }\r\n    return false;\r\n  }\r\n  \r\n  function approve(address _spender, uint _value) public override returns (bool success) {\r\n    __allowances[msg.sender][_spender] = _value;\r\n    emit Approval(msg.sender, _spender, _value);\r\n    return true;\r\n  }\r\n  \r\n  function allowance(address _owner, address _spender) public view override returns (uint remaining) {\r\n    return __allowances[_owner][_spender];\r\n  }\r\n  \r\n  function isContract(address _addr) public view returns (bool) {\r\n    uint32 size;\r\n    assembly {\r\n      size := extcodesize(_addr)\r\n    }\r\n    return (size > 0);\r\n  }\r\n  \r\n}",
  "sourcePath": "C:\\uni\\blockchain\\contracts\\contracts\\DexToken.sol",
  "compiler": {
    "name": "solc",
    "version": "0.8.10+commit.fc410830.Emscripten.clang"
  },
  "schemaVersion": "3.4.6",
  "updatedAt": "2022-05-25T20:03:21.374Z",
  "networkType": "ethereum",
  "devdoc": {
    "kind": "dev",
    "methods": {
      "decimals()": {
        "details": "Returns the number of decimals used to get its user representation. For example, if `decimals` equals `2`, a balance of `505` tokens should be displayed to a user as `5.05` (`505 / 10 ** 2`). Tokens usually opt for a value of 18, imitating the relationship between Ether and Wei. This is the value {ERC20} uses, unless this function is overridden; NOTE: This information is only used for _display_ purposes: it in no way affects any of the arithmetic of the contract, including {IERC20-balanceOf} and {IERC20-transfer}."
      },
      "decreaseAllowance(address,uint256)": {
        "details": "Atomically decreases the allowance granted to `spender` by the caller. This is an alternative to {approve} that can be used as a mitigation for problems described in {IERC20-approve}. Emits an {Approval} event indicating the updated allowance. Requirements: - `spender` cannot be the zero address. - `spender` must have allowance for the caller of at least `subtractedValue`."
      },
      "increaseAllowance(address,uint256)": {
        "details": "Atomically increases the allowance granted to `spender` by the caller. This is an alternative to {approve} that can be used as a mitigation for problems described in {IERC20-approve}. Emits an {Approval} event indicating the updated allowance. Requirements: - `spender` cannot be the zero address."
      },
      "name()": {
        "details": "Returns the name of the token."
      },
      "owner()": {
        "details": "Returns the address of the current owner."
      },
      "renounceOwnership()": {
        "details": "Leaves the contract without owner. It will not be possible to call `onlyOwner` functions anymore. Can only be called by the current owner. NOTE: Renouncing ownership will leave the contract without an owner, thereby removing any functionality that is only available to the owner."
      },
      "symbol()": {
        "details": "Returns the symbol of the token, usually a shorter version of the name."
      },
      "totalSupply()": {
        "details": "See {IERC20-totalSupply}."
      },
      "transferOwnership(address)": {
        "details": "Transfers ownership of the contract to a new account (`newOwner`). Can only be called by the current owner."
      }
    },
    "version": 1
  },
  "userdoc": {
    "kind": "user",
    "methods": {},
    "version": 1
  }
}