{
  "contractName": "LiquidityPool",
  "abi": [
    {
      "inputs": [],
      "stateMutability": "payable",
      "type": "constructor",
      "payable": true
    },
    {
      "anonymous": false,
      "inputs": [
        {
          "indexed": false,
          "internalType": "address",
          "name": "approver",
          "type": "address"
        },
        {
          "indexed": false,
          "internalType": "address",
          "name": "spender",
          "type": "address"
        },
        {
          "indexed": false,
          "internalType": "uint256",
          "name": "amount",
          "type": "uint256"
        }
      ],
      "name": "Approval",
      "type": "event"
    },
    {
      "anonymous": false,
      "inputs": [
        {
          "indexed": false,
          "internalType": "address",
          "name": "optionsMarketAddress",
          "type": "address"
        },
        {
          "indexed": false,
          "internalType": "uint256",
          "name": "amount",
          "type": "uint256"
        }
      ],
      "name": "CapitalProvided",
      "type": "event"
    },
    {
      "anonymous": false,
      "inputs": [
        {
          "indexed": false,
          "internalType": "address",
          "name": "from",
          "type": "address"
        },
        {
          "indexed": false,
          "internalType": "address",
          "name": "to",
          "type": "address"
        },
        {
          "indexed": false,
          "internalType": "uint256",
          "name": "tokens",
          "type": "uint256"
        }
      ],
      "name": "Transfer",
      "type": "event"
    },
    {
      "stateMutability": "payable",
      "type": "fallback",
      "payable": true
    },
    {
      "inputs": [],
      "name": "owner",
      "outputs": [
        {
          "internalType": "address",
          "name": "",
          "type": "address"
        }
      ],
      "stateMutability": "view",
      "type": "function",
      "constant": true
    },
    {
      "inputs": [],
      "name": "percScale",
      "outputs": [
        {
          "internalType": "uint256",
          "name": "",
          "type": "uint256"
        }
      ],
      "stateMutability": "view",
      "type": "function",
      "constant": true
    },
    {
      "inputs": [
        {
          "internalType": "address",
          "name": "",
          "type": "address"
        }
      ],
      "name": "poolOwnerBalance",
      "outputs": [
        {
          "internalType": "uint256",
          "name": "",
          "type": "uint256"
        }
      ],
      "stateMutability": "view",
      "type": "function",
      "constant": true
    },
    {
      "inputs": [],
      "name": "poolTotalValue",
      "outputs": [
        {
          "internalType": "uint256",
          "name": "",
          "type": "uint256"
        }
      ],
      "stateMutability": "view",
      "type": "function",
      "constant": true
    },
    {
      "inputs": [
        {
          "internalType": "address",
          "name": "",
          "type": "address"
        }
      ],
      "name": "tokenAddressWhitelisted",
      "outputs": [
        {
          "internalType": "bool",
          "name": "",
          "type": "bool"
        }
      ],
      "stateMutability": "view",
      "type": "function",
      "constant": true
    },
    {
      "stateMutability": "payable",
      "type": "receive",
      "payable": true
    },
    {
      "inputs": [
        {
          "internalType": "uint256",
          "name": "_amount1",
          "type": "uint256"
        },
        {
          "internalType": "uint256",
          "name": "_amount2",
          "type": "uint256"
        }
      ],
      "name": "deposit",
      "outputs": [
        {
          "internalType": "bool",
          "name": "",
          "type": "bool"
        }
      ],
      "stateMutability": "payable",
      "type": "function",
      "payable": true
    },
    {
      "inputs": [
        {
          "internalType": "uint256",
          "name": "_amount",
          "type": "uint256"
        }
      ],
      "name": "withdraw",
      "outputs": [
        {
          "internalType": "bool",
          "name": "",
          "type": "bool"
        }
      ],
      "stateMutability": "nonpayable",
      "type": "function"
    },
    {
      "inputs": [
        {
          "internalType": "address",
          "name": "recipient",
          "type": "address"
        },
        {
          "internalType": "uint256",
          "name": "amount",
          "type": "uint256"
        }
      ],
      "name": "transfer",
      "outputs": [
        {
          "internalType": "bool",
          "name": "",
          "type": "bool"
        }
      ],
      "stateMutability": "nonpayable",
      "type": "function"
    },
    {
      "inputs": [
        {
          "internalType": "address",
          "name": "sender",
          "type": "address"
        },
        {
          "internalType": "address",
          "name": "recipient",
          "type": "address"
        },
        {
          "internalType": "uint256",
          "name": "amount",
          "type": "uint256"
        }
      ],
      "name": "transferFrom",
      "outputs": [
        {
          "internalType": "bool",
          "name": "",
          "type": "bool"
        }
      ],
      "stateMutability": "nonpayable",
      "type": "function"
    }
  ],
  "bytecode": "0x60806040526000600455670de0b6b3a764000060055560006006556001600760146101000a81548160ff021916908315150217905550600160008190555033600360006101000a81548173ffffffffffffffffffffffffffffffffffffffff021916908373ffffffffffffffffffffffffffffffffffffffff1602179055506112ab8061008d6000396000f3fe60806040526004361061008a5760003560e01c80638da5cb5b116100595780638da5cb5b146101875780638f617c6c146101b25780639fc12985146101dd578063a9059cbb14610208578063e2bbb1581461024557610091565b8063038bb9011461009357806323b872dd146100d05780632e1a7d4d1461010d5780636ec81b761461014a57610091565b3661009157005b005b34801561009f57600080fd5b506100ba60048036038101906100b59190610cbc565b610275565b6040516100c79190610d04565b60405180910390f35b3480156100dc57600080fd5b506100f760048036038101906100f29190610d55565b610295565b6040516101049190610d04565b60405180910390f35b34801561011957600080fd5b50610134600480360381019061012f9190610da8565b61059c565b6040516101419190610d04565b60405180910390f35b34801561015657600080fd5b50610171600480360381019061016c9190610cbc565b6106af565b60405161017e9190610de4565b60405180910390f35b34801561019357600080fd5b5061019c6106c7565b6040516101a99190610e0e565b60405180910390f35b3480156101be57600080fd5b506101c76106ed565b6040516101d49190610de4565b60405180910390f35b3480156101e957600080fd5b506101f26106f3565b6040516101ff9190610de4565b60405180910390f35b34801561021457600080fd5b5061022f600480360381019061022a9190610e29565b6106f9565b60405161023c9190610d04565b60405180910390f35b61025f600480360381019061025a9190610e69565b6109ff565b60405161026c9190610d04565b60405180910390f35b60026020528060005260406000206000915054906101000a900460ff1681565b600081600160008673ffffffffffffffffffffffffffffffffffffffff1673ffffffffffffffffffffffffffffffffffffffff168152602001908152602001600020541015610319576040517f08c379a000000000000000000000000000000000000000000000000000000000815260040161031090610f06565b60405180910390fd5b600073ffffffffffffffffffffffffffffffffffffffff168373ffffffffffffffffffffffffffffffffffffffff161415610389576040517f08c379a000000000000000000000000000000000000000000000000000000000815260040161038090610f72565b60405180910390fd5b600760009054906101000a900473ffffffffffffffffffffffffffffffffffffffff1673ffffffffffffffffffffffffffffffffffffffff166323b872dd8585856040518463ffffffff1660e01b81526004016103e893929190610f92565b6020604051808303816000875af1158015610407573d6000803e3d6000fd5b505050506040513d601f19601f8201168201806040525081019061042b9190610ff5565b5061047e82600160008773ffffffffffffffffffffffffffffffffffffffff1673ffffffffffffffffffffffffffffffffffffffff16815260200190815260200160002054610c2d90919063ffffffff16565b600160008673ffffffffffffffffffffffffffffffffffffffff1673ffffffffffffffffffffffffffffffffffffffff1681526020019081526020016000208190555061051382600160008673ffffffffffffffffffffffffffffffffffffffff1673ffffffffffffffffffffffffffffffffffffffff16815260200190815260200160002054610c4390919063ffffffff16565b600160008573ffffffffffffffffffffffffffffffffffffffff1673ffffffffffffffffffffffffffffffffffffffff168152602001908152602001600020819055507fddf252ad1be2c89b69c2b068fc378daa952ba7f163c4a11628f55a4df523b3ef84848460405161058993929190610f92565b60405180910390a1600190509392505050565b600080821180156105ae575060648211155b6105ed576040517f08c379a00000000000000000000000000000000000000000000000000000000081526004016105e490611094565b60405180910390fd5b60008060003373ffffffffffffffffffffffffffffffffffffffff1663441a3e70866006546040518363ffffffff1660e01b815260040161062f9291906110b4565b6060604051808303816000875af115801561064e573d6000803e3d6000fd5b505050506040513d601f19601f8201168201806040525081019061067291906110f2565b92509250925080156106a257610689303385610295565b50610695303384610295565b50600193505050506106aa565b600093505050505b919050565b60016020528060005260406000206000915090505481565b600360009054906101000a900473ffffffffffffffffffffffffffffffffffffffff1681565b60045481565b60055481565b600081600160003373ffffffffffffffffffffffffffffffffffffffff1673ffffffffffffffffffffffffffffffffffffffff16815260200190815260200160002054101561077d576040517f08c379a000000000000000000000000000000000000000000000000000000000815260040161077490610f06565b60405180910390fd5b600073ffffffffffffffffffffffffffffffffffffffff168373ffffffffffffffffffffffffffffffffffffffff1614156107ed576040517f08c379a00000000000000000000000000000000000000000000000000000000081526004016107e490610f72565b60405180910390fd5b600760009054906101000a900473ffffffffffffffffffffffffffffffffffffffff1673ffffffffffffffffffffffffffffffffffffffff166323b872dd3385856040518463ffffffff1660e01b815260040161084c93929190610f92565b6020604051808303816000875af115801561086b573d6000803e3d6000fd5b505050506040513d601f19601f8201168201806040525081019061088f9190610ff5565b506108e282600160003373ffffffffffffffffffffffffffffffffffffffff1673ffffffffffffffffffffffffffffffffffffffff16815260200190815260200160002054610c4390919063ffffffff16565b600160003373ffffffffffffffffffffffffffffffffffffffff1673ffffffffffffffffffffffffffffffffffffffff1681526020019081526020016000208190555061097782600160008673ffffffffffffffffffffffffffffffffffffffff1673ffffffffffffffffffffffffffffffffffffffff16815260200190815260200160002054610c2d90919063ffffffff16565b600160008573ffffffffffffffffffffffffffffffffffffffff1673ffffffffffffffffffffffffffffffffffffffff168152602001908152602001600020819055507fddf252ad1be2c89b69c2b068fc378daa952ba7f163c4a11628f55a4df523b3ef3384846040516109ed93929190610f92565b60405180910390a16001905092915050565b6000600760009054906101000a900473ffffffffffffffffffffffffffffffffffffffff1673ffffffffffffffffffffffffffffffffffffffff166323b872dd3330866040518463ffffffff1660e01b8152600401610a6093929190610f92565b6020604051808303816000875af1158015610a7f573d6000803e3d6000fd5b505050506040513d601f19601f82011682018060405250810190610aa39190610ff5565b506000803373ffffffffffffffffffffffffffffffffffffffff166327f83cd386866006546040518463ffffffff1660e01b8152600401610ae693929190611145565b60408051808303816000875af1158015610b04573d6000803e3d6000fd5b505050506040513d601f19601f82011682018060405250810190610b28919061117c565b915091508115610c2057610b3d333087610295565b50610b49333086610295565b5080600160003373ffffffffffffffffffffffffffffffffffffffff1673ffffffffffffffffffffffffffffffffffffffff16815260200190815260200160002054610b9591906111eb565b600160003373ffffffffffffffffffffffffffffffffffffffff1673ffffffffffffffffffffffffffffffffffffffff168152602001908152602001600020819055508060066000828254610bea91906111eb565b925050819055508385610bfd91906111eb565b60046000828254610c0e91906111eb565b92505081905550600192505050610c27565b6000925050505b92915050565b60008183610c3b9190611241565b905092915050565b60008183610c5191906111eb565b905092915050565b600080fd5b600073ffffffffffffffffffffffffffffffffffffffff82169050919050565b6000610c8982610c5e565b9050919050565b610c9981610c7e565b8114610ca457600080fd5b50565b600081359050610cb681610c90565b92915050565b600060208284031215610cd257610cd1610c59565b5b6000610ce084828501610ca7565b91505092915050565b60008115159050919050565b610cfe81610ce9565b82525050565b6000602082019050610d196000830184610cf5565b92915050565b6000819050919050565b610d3281610d1f565b8114610d3d57600080fd5b50565b600081359050610d4f81610d29565b92915050565b600080600060608486031215610d6e57610d6d610c59565b5b6000610d7c86828701610ca7565b9350506020610d8d86828701610ca7565b9250506040610d9e86828701610d40565b9150509250925092565b600060208284031215610dbe57610dbd610c59565b5b6000610dcc84828501610d40565b91505092915050565b610dde81610d1f565b82525050565b6000602082019050610df96000830184610dd5565b92915050565b610e0881610c7e565b82525050565b6000602082019050610e236000830184610dff565b92915050565b60008060408385031215610e4057610e3f610c59565b5b6000610e4e85828601610ca7565b9250506020610e5f85828601610d40565b9150509250929050565b60008060408385031215610e8057610e7f610c59565b5b6000610e8e85828601610d40565b9250506020610e9f85828601610d40565b9150509250929050565b600082825260208201905092915050565b7f496e73756666696369656e742066756e64730000000000000000000000000000600082015250565b6000610ef0601283610ea9565b9150610efb82610eba565b602082019050919050565b60006020820190508181036000830152610f1f81610ee3565b9050919050565b7f54686973206164647265737320646f6573206e6f742065786973740000000000600082015250565b6000610f5c601b83610ea9565b9150610f6782610f26565b602082019050919050565b60006020820190508181036000830152610f8b81610f4f565b9050919050565b6000606082019050610fa76000830186610dff565b610fb46020830185610dff565b610fc16040830184610dd5565b949350505050565b610fd281610ce9565b8114610fdd57600080fd5b50565b600081519050610fef81610fc9565b92915050565b60006020828403121561100b5761100a610c59565b5b600061101984828501610fe0565b91505092915050565b7f596f75206d75737420776974686472617720612070657263656e74616765206260008201527f65747765656e203020616e642031303000000000000000000000000000000000602082015250565b600061107e603083610ea9565b915061108982611022565b604082019050919050565b600060208201905081810360008301526110ad81611071565b9050919050565b60006040820190506110c96000830185610dd5565b6110d66020830184610dd5565b9392505050565b6000815190506110ec81610d29565b92915050565b60008060006060848603121561110b5761110a610c59565b5b6000611119868287016110dd565b935050602061112a868287016110dd565b925050604061113b86828701610fe0565b9150509250925092565b600060608201905061115a6000830186610dd5565b6111676020830185610dd5565b6111746040830184610dd5565b949350505050565b6000806040838503121561119357611192610c59565b5b60006111a185828601610fe0565b92505060206111b2858286016110dd565b9150509250929050565b7f4e487b7100000000000000000000000000000000000000000000000000000000600052601160045260246000fd5b60006111f682610d1f565b915061120183610d1f565b9250827fffffffffffffffffffffffffffffffffffffffffffffffffffffffffffffffff03821115611236576112356111bc565b5b828201905092915050565b600061124c82610d1f565b915061125783610d1f565b92508282101561126a576112696111bc565b5b82820390509291505056fea26469706673582212201ef6a3b994fce651a10868a748ee05378e73b9b1c8fa6f268510358cd03ebac564736f6c634300080a0033",
  "immutableReferences": {},
  "source": "// SPDX-License-Identifier: MIT\r\n\r\npragma solidity >=0.8.10 <0.9.0;\r\n\r\nimport \"@openzeppelin/contracts/utils/math/SafeMath.sol\";\r\nimport \"@openzeppelin/contracts/security/ReentrancyGuard.sol\";\r\nimport \"./DexToken.sol\";\r\nimport \"./AutomatedMarketMaker.sol\";\r\n\r\ncontract LiquidityPool is ReentrancyGuard {\r\n    using SafeMath for uint256;\r\n\r\n    modifier onlyOwner() {\r\n        require(msg.sender == owner, \"Only owner can complete this tx\");\r\n        _;\r\n    }\r\n\r\n    fallback() external payable {}\r\n\r\n    receive() external payable {}\r\n\r\n    mapping(address => uint256) public poolOwnerBalance;\r\n    mapping(address => bool) public tokenAddressWhitelisted;\r\n    address public owner;\r\n    uint256 public poolTotalValue = 0;\r\n    uint256 public percScale = 1e18;\r\n    uint256 private poolTotalDeposits = 0;\r\n    uint256 constant PRECISION = 1_000_000;\r\n    DexToken private _depositToken;\r\n\r\n    bool allLPsCanWithdraw = true;\r\n    event CapitalProvided(address optionsMarketAddress, uint256 amount);\r\n\r\n    event Transfer(address from, address to, uint256 tokens);\r\n    event Approval(address approver, address spender, uint256 amount);\r\n\r\n    constructor() payable {\r\n        owner = msg.sender;\r\n    }\r\n\r\n    function deposit(uint256 _amount1, uint256 _amount2)\r\n        public\r\n        payable\r\n        returns (bool)\r\n    {\r\n        _depositToken.transferFrom(msg.sender, address(this), _amount1);\r\n\r\n        (bool validShare, uint256 share) = AMM(msg.sender).provide(\r\n            _amount1,\r\n            _amount2,\r\n            poolTotalDeposits\r\n        );\r\n        if (validShare) {\r\n            transferFrom(msg.sender, address(this), _amount1);\r\n            transferFrom(msg.sender, address(this), _amount2);\r\n\r\n            poolOwnerBalance[msg.sender] = poolOwnerBalance[msg.sender] + share;\r\n            poolTotalDeposits += share;\r\n            poolTotalValue += (_amount1 + _amount2);\r\n            return true;\r\n        }\r\n        return false;\r\n    }\r\n\r\n    //_amount here is represented in %\r\n    function withdraw(uint256 _amount) public returns (bool) {\r\n        require(\r\n            _amount > 0 && _amount <= 100,\r\n            \"You must withdraw a percentage between 0 and 100\"\r\n        );\r\n\r\n        (uint256 amount1, uint256 amount2, bool validShare) = AMM(msg.sender).withdraw(_amount, poolTotalDeposits);\r\n        if (validShare) {\r\n            transferFrom(address(this), msg.sender, amount1);\r\n            transferFrom(address(this), msg.sender, amount2);\r\n            return true;\r\n        }\r\n\r\n        return false;\r\n    }\r\n    \r\n    /*\r\n    function swap(uint _amount, address to) public returns (bool) {\r\n        require(_amount > 0, \"Cannot swap negative amount\");\r\n\r\n\r\n    }\r\n    */\r\n\r\n    function transfer(address recipient, uint256 amount) public returns (bool) {\r\n        require(poolOwnerBalance[msg.sender] >= amount, \"Insufficient funds\");\r\n        require(recipient != address(0), \"This address does not exist\");\r\n\r\n        _depositToken.transferFrom(msg.sender, recipient, amount);\r\n        poolOwnerBalance[msg.sender] = poolOwnerBalance[msg.sender].add(amount);\r\n        poolOwnerBalance[recipient] = poolOwnerBalance[recipient].sub(amount);\r\n        emit Transfer(msg.sender, recipient, amount);\r\n        return true;\r\n    }\r\n\r\n    function transferFrom(\r\n        address sender,\r\n        address recipient,\r\n        uint256 amount\r\n    ) public returns (bool) {\r\n        require(poolOwnerBalance[sender] >= amount, \"Insufficient funds\");\r\n        require(recipient != address(0), \"This address does not exist\");\r\n\r\n        _depositToken.transferFrom(sender, recipient, amount);\r\n        poolOwnerBalance[sender] = poolOwnerBalance[sender].sub(amount);\r\n        poolOwnerBalance[recipient] = poolOwnerBalance[recipient].add(amount);\r\n        emit Transfer(sender, recipient, amount);\r\n        return true;\r\n    }\r\n}\r\n",
  "sourcePath": "C:\\uni\\blockchain\\contracts\\contracts\\LiquidityPool.sol",
  "compiler": {
    "name": "solc",
    "version": "0.8.10+commit.fc410830.Emscripten.clang"
  },
  "schemaVersion": "3.4.6",
  "updatedAt": "2022-05-24T19:25:41.232Z",
  "networkType": "ethereum",
  "devdoc": {
    "kind": "dev",
    "methods": {},
    "version": 1
  },
  "userdoc": {
    "kind": "user",
    "methods": {},
    "version": 1
  }
}