{
  "contractName": "LiquidityPool",
  "abi": [
    {
      "inputs": [],
      "stateMutability": "payable",
      "type": "constructor",
      "payable": true
    },
    {
      "anonymous": false,
      "inputs": [
        {
          "indexed": false,
          "internalType": "address",
          "name": "approver",
          "type": "address"
        },
        {
          "indexed": false,
          "internalType": "address",
          "name": "spender",
          "type": "address"
        },
        {
          "indexed": false,
          "internalType": "uint256",
          "name": "amount",
          "type": "uint256"
        }
      ],
      "name": "Approval",
      "type": "event"
    },
    {
      "anonymous": false,
      "inputs": [
        {
          "indexed": false,
          "internalType": "address",
          "name": "optionsMarketAddress",
          "type": "address"
        },
        {
          "indexed": false,
          "internalType": "uint256",
          "name": "amount",
          "type": "uint256"
        }
      ],
      "name": "CapitalProvided",
      "type": "event"
    },
    {
      "anonymous": false,
      "inputs": [
        {
          "indexed": false,
          "internalType": "address",
          "name": "account",
          "type": "address"
        },
        {
          "indexed": false,
          "internalType": "address",
          "name": "token",
          "type": "address"
        },
        {
          "indexed": false,
          "internalType": "uint256",
          "name": "amountToken1",
          "type": "uint256"
        },
        {
          "indexed": false,
          "internalType": "uint256",
          "name": "amountToken2",
          "type": "uint256"
        }
      ],
      "name": "TokenSwapped",
      "type": "event"
    },
    {
      "anonymous": false,
      "inputs": [
        {
          "indexed": false,
          "internalType": "address",
          "name": "from",
          "type": "address"
        },
        {
          "indexed": false,
          "internalType": "address",
          "name": "to",
          "type": "address"
        },
        {
          "indexed": false,
          "internalType": "uint256",
          "name": "tokens",
          "type": "uint256"
        }
      ],
      "name": "Transfer",
      "type": "event"
    },
    {
      "stateMutability": "payable",
      "type": "fallback",
      "payable": true
    },
    {
      "inputs": [],
      "name": "owner",
      "outputs": [
        {
          "internalType": "address",
          "name": "",
          "type": "address"
        }
      ],
      "stateMutability": "view",
      "type": "function",
      "constant": true
    },
    {
      "inputs": [],
      "name": "poolTotalValue",
      "outputs": [
        {
          "internalType": "uint256",
          "name": "",
          "type": "uint256"
        }
      ],
      "stateMutability": "view",
      "type": "function",
      "constant": true
    },
    {
      "inputs": [
        {
          "internalType": "address",
          "name": "",
          "type": "address"
        }
      ],
      "name": "tokenAddressWhitelisted",
      "outputs": [
        {
          "internalType": "bool",
          "name": "",
          "type": "bool"
        }
      ],
      "stateMutability": "view",
      "type": "function",
      "constant": true
    },
    {
      "stateMutability": "payable",
      "type": "receive",
      "payable": true
    },
    {
      "inputs": [
        {
          "internalType": "uint256",
          "name": "_amount1",
          "type": "uint256"
        },
        {
          "internalType": "uint256",
          "name": "_amount2",
          "type": "uint256"
        }
      ],
      "name": "deposit",
      "outputs": [
        {
          "internalType": "bool",
          "name": "",
          "type": "bool"
        }
      ],
      "stateMutability": "payable",
      "type": "function",
      "payable": true
    },
    {
      "inputs": [
        {
          "internalType": "uint256",
          "name": "_amount",
          "type": "uint256"
        }
      ],
      "name": "withdraw",
      "outputs": [
        {
          "internalType": "bool",
          "name": "",
          "type": "bool"
        }
      ],
      "stateMutability": "nonpayable",
      "type": "function"
    },
    {
      "inputs": [],
      "name": "swapToken1ToToken2",
      "outputs": [],
      "stateMutability": "payable",
      "type": "function",
      "payable": true
    },
    {
      "inputs": [],
      "name": "swapToken2ToToken1",
      "outputs": [],
      "stateMutability": "payable",
      "type": "function",
      "payable": true
    }
  ],
  "bytecode": "0x6080604052600060035560006004556001600660146101000a81548160ff021916908315150217905550600160008190555060405161003d90610108565b604051809103906000f080158015610059573d6000803e3d6000fd5b50600560006101000a81548173ffffffffffffffffffffffffffffffffffffffff021916908373ffffffffffffffffffffffffffffffffffffffff1602179055506040516100a690610116565b604051809103906000f0801580156100c2573d6000803e3d6000fd5b50600660006101000a81548173ffffffffffffffffffffffffffffffffffffffff021916908373ffffffffffffffffffffffffffffffffffffffff160217905550610124565b61280b806200145683390190565b610ff58062003c6183390190565b61132280620001346000396000f3fe6080604052600436106100745760003560e01c80638da5cb5b1161004e5780638da5cb5b146101015780638f617c6c1461012c578063d89deba114610157578063e2bbb158146101615761007b565b8063038bb9011461007d5780632e1a7d4d146100ba5780632f1d56dc146100f75761007b565b3661007b57005b005b34801561008957600080fd5b506100a4600480360381019061009f9190610d1c565b610191565b6040516100b19190610d64565b60405180910390f35b3480156100c657600080fd5b506100e160048036038101906100dc9190610db5565b6101b1565b6040516100ee9190610d64565b60405180910390f35b6100ff6103b8565b005b34801561010d57600080fd5b506101166106ff565b6040516101239190610df1565b60405180910390f35b34801561013857600080fd5b50610141610725565b60405161014e9190610e1b565b60405180910390f35b61015f61072b565b005b61017b60048036038101906101769190610e36565b610a1e565b6040516101889190610d64565b60405180910390f35b60016020528060005260406000206000915054906101000a900460ff1681565b600080821180156101c3575060648211155b610202576040517f08c379a00000000000000000000000000000000000000000000000000000000081526004016101f990610ef9565b60405180910390fd5b6000806000600660009054906101000a900473ffffffffffffffffffffffffffffffffffffffff1673ffffffffffffffffffffffffffffffffffffffff1663441a3e70866004546040518363ffffffff1660e01b8152600401610266929190610f19565b6060604051808303816000875af1158015610285573d6000803e3d6000fd5b505050506040513d601f19601f820116820180604052508101906102a99190610f83565b92509250925080156103ab573373ffffffffffffffffffffffffffffffffffffffff166108fc849081150290604051600060405180830381858888f193505050501580156102fb573d6000803e3d6000fd5b50600560009054906101000a900473ffffffffffffffffffffffffffffffffffffffff1673ffffffffffffffffffffffffffffffffffffffff166323b872dd3033856040518463ffffffff1660e01b815260040161035b93929190610fd6565b6020604051808303816000875af115801561037a573d6000803e3d6000fd5b505050506040513d601f19601f8201168201806040525081019061039e919061100d565b50600193505050506103b3565b600093505050505b919050565b600034116103fb576040517f08c379a00000000000000000000000000000000000000000000000000000000081526004016103f290611086565b60405180910390fd5b6000600660009054906101000a900473ffffffffffffffffffffffffffffffffffffffff1673ffffffffffffffffffffffffffffffffffffffff1663450177c6346040518263ffffffff1660e01b81526004016104589190610e1b565b602060405180830381865afa158015610475573d6000803e3d6000fd5b505050506040513d601f19601f8201168201806040525081019061049991906110a6565b905080600560009054906101000a900473ffffffffffffffffffffffffffffffffffffffff1673ffffffffffffffffffffffffffffffffffffffff166370a08231306040518263ffffffff1660e01b81526004016104f79190610df1565b602060405180830381865afa158015610514573d6000803e3d6000fd5b505050506040513d601f19601f8201168201806040525081019061053891906110a6565b1015610579576040517f08c379a00000000000000000000000000000000000000000000000000000000081526004016105709061111f565b60405180910390fd5b6000600660009054906101000a900473ffffffffffffffffffffffffffffffffffffffff1673ffffffffffffffffffffffffffffffffffffffff1663f4cb34d4346040518263ffffffff1660e01b81526004016105d69190610e1b565b6020604051808303816000875af11580156105f5573d6000803e3d6000fd5b505050506040513d601f19601f8201168201806040525081019061061991906110a6565b9050600560009054906101000a900473ffffffffffffffffffffffffffffffffffffffff1673ffffffffffffffffffffffffffffffffffffffff166323b872dd3033846040518463ffffffff1660e01b815260040161067a93929190610fd6565b6020604051808303816000875af1158015610699573d6000803e3d6000fd5b505050506040513d601f19601f820116820180604052508101906106bd919061100d565b507f30b60ee4dc75c0fb04420331b13e9ad7f8ff8fc51eac9c97d36fb20ccbe09d66333034846040516106f3949392919061113f565b60405180910390a15050565b600260009054906101000a900473ffffffffffffffffffffffffffffffffffffffff1681565b60035481565b6000341161076e576040517f08c379a000000000000000000000000000000000000000000000000000000000815260040161076590611086565b60405180910390fd5b6000600660009054906101000a900473ffffffffffffffffffffffffffffffffffffffff1673ffffffffffffffffffffffffffffffffffffffff1663d3817b4a346040518263ffffffff1660e01b81526004016107cb9190610e1b565b602060405180830381865afa1580156107e8573d6000803e3d6000fd5b505050506040513d601f19601f8201168201806040525081019061080c91906110a6565b905080471015610851576040517f08c379a00000000000000000000000000000000000000000000000000000000081526004016108489061111f565b60405180910390fd5b6000600660009054906101000a900473ffffffffffffffffffffffffffffffffffffffff1673ffffffffffffffffffffffffffffffffffffffff1663980d69d3346040518263ffffffff1660e01b81526004016108ae9190610e1b565b6020604051808303816000875af11580156108cd573d6000803e3d6000fd5b505050506040513d601f19601f820116820180604052508101906108f191906110a6565b90503373ffffffffffffffffffffffffffffffffffffffff166108fc829081150290604051600060405180830381858888f19350505050158015610939573d6000803e3d6000fd5b50600560009054906101000a900473ffffffffffffffffffffffffffffffffffffffff1673ffffffffffffffffffffffffffffffffffffffff166323b872dd3033346040518463ffffffff1660e01b815260040161099993929190610fd6565b6020604051808303816000875af11580156109b8573d6000803e3d6000fd5b505050506040513d601f19601f820116820180604052508101906109dc919061100d565b507f30b60ee4dc75c0fb04420331b13e9ad7f8ff8fc51eac9c97d36fb20ccbe09d6630338334604051610a12949392919061113f565b60405180910390a15050565b60008083118015610a2f5750600082115b610a6e576040517f08c379a0000000000000000000000000000000000000000000000000000000008152600401610a65906111d0565b60405180910390fd5b600080600660009054906101000a900473ffffffffffffffffffffffffffffffffffffffff1673ffffffffffffffffffffffffffffffffffffffff166327f83cd386866004546040518463ffffffff1660e01b8152600401610ad2939291906111f0565b60408051808303816000875af1158015610af0573d6000803e3d6000fd5b505050506040513d601f19601f82011682018060405250810190610b149190611227565b915091508115610cac57600560009054906101000a900473ffffffffffffffffffffffffffffffffffffffff1673ffffffffffffffffffffffffffffffffffffffff166323b872dd3330886040518463ffffffff1660e01b8152600401610b7d93929190610fd6565b6020604051808303816000875af1158015610b9c573d6000803e3d6000fd5b505050506040513d601f19601f82011682018060405250810190610bc0919061100d565b50600560009054906101000a900473ffffffffffffffffffffffffffffffffffffffff1673ffffffffffffffffffffffffffffffffffffffff166323b872dd3330876040518463ffffffff1660e01b8152600401610c2093929190610fd6565b6020604051808303816000875af1158015610c3f573d6000803e3d6000fd5b505050506040513d601f19601f82011682018060405250810190610c63919061100d565b508060046000828254610c769190611296565b925050819055508385610c899190611296565b60036000828254610c9a9190611296565b92505081905550600192505050610cb3565b6000925050505b92915050565b600080fd5b600073ffffffffffffffffffffffffffffffffffffffff82169050919050565b6000610ce982610cbe565b9050919050565b610cf981610cde565b8114610d0457600080fd5b50565b600081359050610d1681610cf0565b92915050565b600060208284031215610d3257610d31610cb9565b5b6000610d4084828501610d07565b91505092915050565b60008115159050919050565b610d5e81610d49565b82525050565b6000602082019050610d796000830184610d55565b92915050565b6000819050919050565b610d9281610d7f565b8114610d9d57600080fd5b50565b600081359050610daf81610d89565b92915050565b600060208284031215610dcb57610dca610cb9565b5b6000610dd984828501610da0565b91505092915050565b610deb81610cde565b82525050565b6000602082019050610e066000830184610de2565b92915050565b610e1581610d7f565b82525050565b6000602082019050610e306000830184610e0c565b92915050565b60008060408385031215610e4d57610e4c610cb9565b5b6000610e5b85828601610da0565b9250506020610e6c85828601610da0565b9150509250929050565b600082825260208201905092915050565b7f596f75206d75737420776974686472617720612070657263656e74616765206260008201527f65747765656e203020616e642031303000000000000000000000000000000000602082015250565b6000610ee3603083610e76565b9150610eee82610e87565b604082019050919050565b60006020820190508181036000830152610f1281610ed6565b9050919050565b6000604082019050610f2e6000830185610e0c565b610f3b6020830184610e0c565b9392505050565b600081519050610f5181610d89565b92915050565b610f6081610d49565b8114610f6b57600080fd5b50565b600081519050610f7d81610f57565b92915050565b600080600060608486031215610f9c57610f9b610cb9565b5b6000610faa86828701610f42565b9350506020610fbb86828701610f42565b9250506040610fcc86828701610f6e565b9150509250925092565b6000606082019050610feb6000830186610de2565b610ff86020830185610de2565b6110056040830184610e0c565b949350505050565b60006020828403121561102357611022610cb9565b5b600061103184828501610f6e565b91505092915050565b7f416d6f756e742063616e6e6f74206265207a65726f2100000000000000000000600082015250565b6000611070601683610e76565b915061107b8261103a565b602082019050919050565b6000602082019050818103600083015261109f81611063565b9050919050565b6000602082840312156110bc576110bb610cb9565b5b60006110ca84828501610f42565b91505092915050565b7f4e6f7420456e6f7567682046756e647300000000000000000000000000000000600082015250565b6000611109601083610e76565b9150611114826110d3565b602082019050919050565b60006020820190508181036000830152611138816110fc565b9050919050565b60006080820190506111546000830187610de2565b6111616020830186610de2565b61116e6040830185610e0c565b61117b6060830184610e0c565b95945050505050565b7f496e76616c696420416d6f756e74000000000000000000000000000000000000600082015250565b60006111ba600e83610e76565b91506111c582611184565b602082019050919050565b600060208201905081810360008301526111e9816111ad565b9050919050565b60006060820190506112056000830186610e0c565b6112126020830185610e0c565b61121f6040830184610e0c565b949350505050565b6000806040838503121561123e5761123d610cb9565b5b600061124c85828601610f6e565b925050602061125d85828601610f42565b9150509250929050565b7f4e487b7100000000000000000000000000000000000000000000000000000000600052601160045260246000fd5b60006112a182610d7f565b91506112ac83610d7f565b9250827fffffffffffffffffffffffffffffffffffffffffffffffffffffffffffffffff038211156112e1576112e0611267565b5b82820190509291505056fea26469706673582212207702de564edf5ef200aeb5e19ea938873bdf16d548738fc7519690e1e87fb60664736f6c634300080a003360806040526040518060400160405280600981526020017f44657820546f6b656e00000000000000000000000000000000000000000000008152506006908051906020019062000051929190620004cc565b506040518060400160405280600381526020017f4445580000000000000000000000000000000000000000000000000000000000815250600790805190602001906200009f929190620004cc565b50620000b06200027260201b60201c565b600a620000be919062000716565b6103e8620000cd919062000767565b600855348015620000dd57600080fd5b5060068054620000ed90620007f7565b80601f01602080910402602001604051908101604052809291908181526020018280546200011b90620007f7565b80156200016c5780601f1062000140576101008083540402835291602001916200016c565b820191906000526020600020905b8154815290600101906020018083116200014e57829003601f168201915b5050505050600780546200018090620007f7565b80601f0160208091040260200160405190810160405280929190818152602001828054620001ae90620007f7565b8015620001ff5780601f10620001d357610100808354040283529160200191620001ff565b820191906000526020600020905b815481529060010190602001808311620001e157829003601f168201915b505050505081600390805190602001906200021c929190620004cc565b50806004908051906020019062000235929190620004cc565b505050620002586200024c6200027b60201b60201c565b6200028360201b60201c565b6200026c336008546200034960201b60201c565b6200093b565b60006012905090565b600033905090565b6000600560009054906101000a900473ffffffffffffffffffffffffffffffffffffffff16905081600560006101000a81548173ffffffffffffffffffffffffffffffffffffffff021916908373ffffffffffffffffffffffffffffffffffffffff1602179055508173ffffffffffffffffffffffffffffffffffffffff168173ffffffffffffffffffffffffffffffffffffffff167f8be0079c531659141344cd1fd0a4f28419497f9722a3daafe3b4186f6b6457e060405160405180910390a35050565b600073ffffffffffffffffffffffffffffffffffffffff168273ffffffffffffffffffffffffffffffffffffffff161415620003bc576040517f08c379a0000000000000000000000000000000000000000000000000000000008152600401620003b3906200088e565b60405180910390fd5b620003d060008383620004c260201b60201c565b8060026000828254620003e49190620008b0565b92505081905550806000808473ffffffffffffffffffffffffffffffffffffffff1673ffffffffffffffffffffffffffffffffffffffff16815260200190815260200160002060008282546200043b9190620008b0565b925050819055508173ffffffffffffffffffffffffffffffffffffffff16600073ffffffffffffffffffffffffffffffffffffffff167fddf252ad1be2c89b69c2b068fc378daa952ba7f163c4a11628f55a4df523b3ef83604051620004a291906200091e565b60405180910390a3620004be60008383620004c760201b60201c565b5050565b505050565b505050565b828054620004da90620007f7565b90600052602060002090601f016020900481019282620004fe57600085556200054a565b82601f106200051957805160ff19168380011785556200054a565b828001600101855582156200054a579182015b82811115620005495782518255916020019190600101906200052c565b5b5090506200055991906200055d565b5090565b5b80821115620005785760008160009055506001016200055e565b5090565b7f4e487b7100000000000000000000000000000000000000000000000000000000600052601160045260246000fd5b60008160011c9050919050565b6000808291508390505b60018511156200060a57808604811115620005e257620005e16200057c565b5b6001851615620005f25780820291505b80810290506200060285620005ab565b9450620005c2565b94509492505050565b600082620006255760019050620006f8565b81620006355760009050620006f8565b81600181146200064e576002811462000659576200068f565b6001915050620006f8565b60ff8411156200066e576200066d6200057c565b5b8360020a9150848211156200068857620006876200057c565b5b50620006f8565b5060208310610133831016604e8410600b8410161715620006c95782820a905083811115620006c357620006c26200057c565b5b620006f8565b620006d88484846001620005b8565b92509050818404811115620006f257620006f16200057c565b5b81810290505b9392505050565b6000819050919050565b600060ff82169050919050565b60006200072382620006ff565b9150620007308362000709565b92506200075f7fffffffffffffffffffffffffffffffffffffffffffffffffffffffffffffffff848462000613565b905092915050565b60006200077482620006ff565b91506200078183620006ff565b9250817fffffffffffffffffffffffffffffffffffffffffffffffffffffffffffffffff0483118215151615620007bd57620007bc6200057c565b5b828202905092915050565b7f4e487b7100000000000000000000000000000000000000000000000000000000600052602260045260246000fd5b600060028204905060018216806200081057607f821691505b60208210811415620008275762000826620007c8565b5b50919050565b600082825260208201905092915050565b7f45524332303a206d696e7420746f20746865207a65726f206164647265737300600082015250565b600062000876601f836200082d565b915062000883826200083e565b602082019050919050565b60006020820190508181036000830152620008a98162000867565b9050919050565b6000620008bd82620006ff565b9150620008ca83620006ff565b9250827fffffffffffffffffffffffffffffffffffffffffffffffffffffffffffffffff038211156200090257620009016200057c565b5b828201905092915050565b6200091881620006ff565b82525050565b60006020820190506200093560008301846200090d565b92915050565b611ec0806200094b6000396000f3fe608060405234801561001057600080fd5b50600436106101165760003560e01c80634c0f38c2116100a257806395d89b411161007157806395d89b41146102e3578063a457c2d714610301578063a9059cbb14610331578063dd62ed3e14610361578063f2fde38b1461039157610116565b80634c0f38c21461026d57806370a082311461028b578063715018a6146102bb5780638da5cb5b146102c557610116565b806323b872dd116100e957806323b872dd146101b7578063313ce567146101e7578063395093511461020557806340c10f191461023557806342966c681461025157610116565b806306fdde031461011b578063095ea7b314610139578063162790551461016957806318160ddd14610199575b600080fd5b6101236103ad565b6040516101309190611617565b60405180910390f35b610153600480360381019061014e91906116d2565b61043f565b604051610160919061172d565b60405180910390f35b610183600480360381019061017e9190611748565b610531565b604051610190919061172d565b60405180910390f35b6101a161054a565b6040516101ae9190611784565b60405180910390f35b6101d160048036038101906101cc919061179f565b610554565b6040516101de919061172d565b60405180910390f35b6101ef610872565b6040516101fc919061180e565b60405180910390f35b61021f600480360381019061021a91906116d2565b61087b565b60405161022c919061172d565b60405180910390f35b61024f600480360381019061024a91906116d2565b610925565b005b61026b60048036038101906102669190611829565b610a0b565b005b610275610a18565b6040516102829190611784565b60405180910390f35b6102a560048036038101906102a09190611748565b610a22565b6040516102b29190611784565b60405180910390f35b6102c3610a6b565b005b6102cd610af3565b6040516102da9190611865565b60405180910390f35b6102eb610b1d565b6040516102f89190611617565b60405180910390f35b61031b600480360381019061031691906116d2565b610baf565b604051610328919061172d565b60405180910390f35b61034b600480360381019061034691906116d2565b610c99565b604051610358919061172d565b60405180910390f35b61037b60048036038101906103769190611880565b610e25565b6040516103889190611784565b60405180910390f35b6103ab60048036038101906103a69190611748565b610eac565b005b6060600380546103bc906118ef565b80601f01602080910402602001604051908101604052809291908181526020018280546103e8906118ef565b80156104355780601f1061040a57610100808354040283529160200191610435565b820191906000526020600020905b81548152906001019060200180831161041857829003601f168201915b5050505050905090565b600081600a60003373ffffffffffffffffffffffffffffffffffffffff1673ffffffffffffffffffffffffffffffffffffffff16815260200190815260200160002060008573ffffffffffffffffffffffffffffffffffffffff1673ffffffffffffffffffffffffffffffffffffffff168152602001908152602001600020819055508273ffffffffffffffffffffffffffffffffffffffff163373ffffffffffffffffffffffffffffffffffffffff167f8c5be1e5ebec7d5bd14f71427d1e84f3dd0314c0f7b2291e5b200ac8c7c3b9258460405161051f9190611784565b60405180910390a36001905092915050565b600080823b905060008163ffffffff1611915050919050565b6000600254905090565b600080600a60008673ffffffffffffffffffffffffffffffffffffffff1673ffffffffffffffffffffffffffffffffffffffff16815260200190815260200160002060003373ffffffffffffffffffffffffffffffffffffffff1673ffffffffffffffffffffffffffffffffffffffff168152602001908152602001600020541180156105e15750600082115b8015610669575081600a60008673ffffffffffffffffffffffffffffffffffffffff1673ffffffffffffffffffffffffffffffffffffffff16815260200190815260200160002060003373ffffffffffffffffffffffffffffffffffffffff1673ffffffffffffffffffffffffffffffffffffffff1681526020019081526020016000205410155b80156106b4575081600960008673ffffffffffffffffffffffffffffffffffffffff1673ffffffffffffffffffffffffffffffffffffffff1681526020019081526020016000205410155b156108665781600960008673ffffffffffffffffffffffffffffffffffffffff1673ffffffffffffffffffffffffffffffffffffffff16815260200190815260200160002060008282546107089190611950565b9250508190555081600960008573ffffffffffffffffffffffffffffffffffffffff1673ffffffffffffffffffffffffffffffffffffffff168152602001908152602001600020600082825461075e9190611984565b9250508190555081600a60008673ffffffffffffffffffffffffffffffffffffffff1673ffffffffffffffffffffffffffffffffffffffff16815260200190815260200160002060003373ffffffffffffffffffffffffffffffffffffffff1673ffffffffffffffffffffffffffffffffffffffff16815260200190815260200160002060008282546107f19190611950565b925050819055508273ffffffffffffffffffffffffffffffffffffffff168473ffffffffffffffffffffffffffffffffffffffff167fddf252ad1be2c89b69c2b068fc378daa952ba7f163c4a11628f55a4df523b3ef846040516108559190611784565b60405180910390a36001905061086b565b600090505b9392505050565b60006012905090565b600080610886610fa4565b905061091a818585600160008673ffffffffffffffffffffffffffffffffffffffff1673ffffffffffffffffffffffffffffffffffffffff16815260200190815260200160002060008973ffffffffffffffffffffffffffffffffffffffff1673ffffffffffffffffffffffffffffffffffffffff168152602001908152602001600020546109159190611984565b610fac565b600191505092915050565b61092d610fa4565b73ffffffffffffffffffffffffffffffffffffffff1661094b610af3565b73ffffffffffffffffffffffffffffffffffffffff16146109a1576040517f08c379a000000000000000000000000000000000000000000000000000000000815260040161099890611a26565b60405180910390fd5b6109a9610a18565b816109b261054a565b6109bc9190611984565b11156109fd576040517f08c379a00000000000000000000000000000000000000000000000000000000081526004016109f490611a92565b60405180910390fd5b610a078282611177565b5050565b610a1533826112d7565b50565b6000600854905090565b6000600960008373ffffffffffffffffffffffffffffffffffffffff1673ffffffffffffffffffffffffffffffffffffffff168152602001908152602001600020549050919050565b610a73610fa4565b73ffffffffffffffffffffffffffffffffffffffff16610a91610af3565b73ffffffffffffffffffffffffffffffffffffffff1614610ae7576040517f08c379a0000000000000000000000000000000000000000000000000000000008152600401610ade90611a26565b60405180910390fd5b610af160006114ae565b565b6000600560009054906101000a900473ffffffffffffffffffffffffffffffffffffffff16905090565b606060048054610b2c906118ef565b80601f0160208091040260200160405190810160405280929190818152602001828054610b58906118ef565b8015610ba55780601f10610b7a57610100808354040283529160200191610ba5565b820191906000526020600020905b815481529060010190602001808311610b8857829003601f168201915b5050505050905090565b600080610bba610fa4565b90506000600160008373ffffffffffffffffffffffffffffffffffffffff1673ffffffffffffffffffffffffffffffffffffffff16815260200190815260200160002060008673ffffffffffffffffffffffffffffffffffffffff1673ffffffffffffffffffffffffffffffffffffffff16815260200190815260200160002054905083811015610c80576040517f08c379a0000000000000000000000000000000000000000000000000000000008152600401610c7790611b24565b60405180910390fd5b610c8d8286868403610fac565b60019250505092915050565b60008082118015610ce95750600960003373ffffffffffffffffffffffffffffffffffffffff1673ffffffffffffffffffffffffffffffffffffffff168152602001908152602001600020548211155b8015610cfb5750610cf983610531565b155b15610e1a5781600960003373ffffffffffffffffffffffffffffffffffffffff1673ffffffffffffffffffffffffffffffffffffffff1681526020019081526020016000206000828254610d4f9190611950565b9250508190555081600960008573ffffffffffffffffffffffffffffffffffffffff1673ffffffffffffffffffffffffffffffffffffffff1681526020019081526020016000206000828254610da59190611984565b925050819055508273ffffffffffffffffffffffffffffffffffffffff163373ffffffffffffffffffffffffffffffffffffffff167fddf252ad1be2c89b69c2b068fc378daa952ba7f163c4a11628f55a4df523b3ef84604051610e099190611784565b60405180910390a360019050610e1f565b600090505b92915050565b6000600a60008473ffffffffffffffffffffffffffffffffffffffff1673ffffffffffffffffffffffffffffffffffffffff16815260200190815260200160002060008373ffffffffffffffffffffffffffffffffffffffff1673ffffffffffffffffffffffffffffffffffffffff16815260200190815260200160002054905092915050565b610eb4610fa4565b73ffffffffffffffffffffffffffffffffffffffff16610ed2610af3565b73ffffffffffffffffffffffffffffffffffffffff1614610f28576040517f08c379a0000000000000000000000000000000000000000000000000000000008152600401610f1f90611a26565b60405180910390fd5b600073ffffffffffffffffffffffffffffffffffffffff168173ffffffffffffffffffffffffffffffffffffffff161415610f98576040517f08c379a0000000000000000000000000000000000000000000000000000000008152600401610f8f90611bb6565b60405180910390fd5b610fa1816114ae565b50565b600033905090565b600073ffffffffffffffffffffffffffffffffffffffff168373ffffffffffffffffffffffffffffffffffffffff16141561101c576040517f08c379a000000000000000000000000000000000000000000000000000000000815260040161101390611c48565b60405180910390fd5b600073ffffffffffffffffffffffffffffffffffffffff168273ffffffffffffffffffffffffffffffffffffffff16141561108c576040517f08c379a000000000000000000000000000000000000000000000000000000000815260040161108390611cda565b60405180910390fd5b80600160008573ffffffffffffffffffffffffffffffffffffffff1673ffffffffffffffffffffffffffffffffffffffff16815260200190815260200160002060008473ffffffffffffffffffffffffffffffffffffffff1673ffffffffffffffffffffffffffffffffffffffff168152602001908152602001600020819055508173ffffffffffffffffffffffffffffffffffffffff168373ffffffffffffffffffffffffffffffffffffffff167f8c5be1e5ebec7d5bd14f71427d1e84f3dd0314c0f7b2291e5b200ac8c7c3b9258360405161116a9190611784565b60405180910390a3505050565b600073ffffffffffffffffffffffffffffffffffffffff168273ffffffffffffffffffffffffffffffffffffffff1614156111e7576040517f08c379a00000000000000000000000000000000000000000000000000000000081526004016111de90611d46565b60405180910390fd5b6111f360008383611574565b80600260008282546112059190611984565b92505081905550806000808473ffffffffffffffffffffffffffffffffffffffff1673ffffffffffffffffffffffffffffffffffffffff168152602001908152602001600020600082825461125a9190611984565b925050819055508173ffffffffffffffffffffffffffffffffffffffff16600073ffffffffffffffffffffffffffffffffffffffff167fddf252ad1be2c89b69c2b068fc378daa952ba7f163c4a11628f55a4df523b3ef836040516112bf9190611784565b60405180910390a36112d360008383611579565b5050565b600073ffffffffffffffffffffffffffffffffffffffff168273ffffffffffffffffffffffffffffffffffffffff161415611347576040517f08c379a000000000000000000000000000000000000000000000000000000000815260040161133e90611dd8565b60405180910390fd5b61135382600083611574565b60008060008473ffffffffffffffffffffffffffffffffffffffff1673ffffffffffffffffffffffffffffffffffffffff168152602001908152602001600020549050818110156113d9576040517f08c379a00000000000000000000000000000000000000000000000000000000081526004016113d090611e6a565b60405180910390fd5b8181036000808573ffffffffffffffffffffffffffffffffffffffff1673ffffffffffffffffffffffffffffffffffffffff1681526020019081526020016000208190555081600260008282546114309190611950565b92505081905550600073ffffffffffffffffffffffffffffffffffffffff168373ffffffffffffffffffffffffffffffffffffffff167fddf252ad1be2c89b69c2b068fc378daa952ba7f163c4a11628f55a4df523b3ef846040516114959190611784565b60405180910390a36114a983600084611579565b505050565b6000600560009054906101000a900473ffffffffffffffffffffffffffffffffffffffff16905081600560006101000a81548173ffffffffffffffffffffffffffffffffffffffff021916908373ffffffffffffffffffffffffffffffffffffffff1602179055508173ffffffffffffffffffffffffffffffffffffffff168173ffffffffffffffffffffffffffffffffffffffff167f8be0079c531659141344cd1fd0a4f28419497f9722a3daafe3b4186f6b6457e060405160405180910390a35050565b505050565b505050565b600081519050919050565b600082825260208201905092915050565b60005b838110156115b857808201518184015260208101905061159d565b838111156115c7576000848401525b50505050565b6000601f19601f8301169050919050565b60006115e98261157e565b6115f38185611589565b935061160381856020860161159a565b61160c816115cd565b840191505092915050565b6000602082019050818103600083015261163181846115de565b905092915050565b600080fd5b600073ffffffffffffffffffffffffffffffffffffffff82169050919050565b60006116698261163e565b9050919050565b6116798161165e565b811461168457600080fd5b50565b60008135905061169681611670565b92915050565b6000819050919050565b6116af8161169c565b81146116ba57600080fd5b50565b6000813590506116cc816116a6565b92915050565b600080604083850312156116e9576116e8611639565b5b60006116f785828601611687565b9250506020611708858286016116bd565b9150509250929050565b60008115159050919050565b61172781611712565b82525050565b6000602082019050611742600083018461171e565b92915050565b60006020828403121561175e5761175d611639565b5b600061176c84828501611687565b91505092915050565b61177e8161169c565b82525050565b60006020820190506117996000830184611775565b92915050565b6000806000606084860312156117b8576117b7611639565b5b60006117c686828701611687565b93505060206117d786828701611687565b92505060406117e8868287016116bd565b9150509250925092565b600060ff82169050919050565b611808816117f2565b82525050565b600060208201905061182360008301846117ff565b92915050565b60006020828403121561183f5761183e611639565b5b600061184d848285016116bd565b91505092915050565b61185f8161165e565b82525050565b600060208201905061187a6000830184611856565b92915050565b6000806040838503121561189757611896611639565b5b60006118a585828601611687565b92505060206118b685828601611687565b9150509250929050565b7f4e487b7100000000000000000000000000000000000000000000000000000000600052602260045260246000fd5b6000600282049050600182168061190757607f821691505b6020821081141561191b5761191a6118c0565b5b50919050565b7f4e487b7100000000000000000000000000000000000000000000000000000000600052601160045260246000fd5b600061195b8261169c565b91506119668361169c565b92508282101561197957611978611921565b5b828203905092915050565b600061198f8261169c565b915061199a8361169c565b9250827fffffffffffffffffffffffffffffffffffffffffffffffffffffffffffffffff038211156119cf576119ce611921565b5b828201905092915050565b7f4f776e61626c653a2063616c6c6572206973206e6f7420746865206f776e6572600082015250565b6000611a10602083611589565b9150611a1b826119da565b602082019050919050565b60006020820190508181036000830152611a3f81611a03565b9050919050565b7f4d6178696d756d20737570706c79206578636565646564000000000000000000600082015250565b6000611a7c601783611589565b9150611a8782611a46565b602082019050919050565b60006020820190508181036000830152611aab81611a6f565b9050919050565b7f45524332303a2064656372656173656420616c6c6f77616e63652062656c6f7760008201527f207a65726f000000000000000000000000000000000000000000000000000000602082015250565b6000611b0e602583611589565b9150611b1982611ab2565b604082019050919050565b60006020820190508181036000830152611b3d81611b01565b9050919050565b7f4f776e61626c653a206e6577206f776e657220697320746865207a65726f206160008201527f6464726573730000000000000000000000000000000000000000000000000000602082015250565b6000611ba0602683611589565b9150611bab82611b44565b604082019050919050565b60006020820190508181036000830152611bcf81611b93565b9050919050565b7f45524332303a20617070726f76652066726f6d20746865207a65726f2061646460008201527f7265737300000000000000000000000000000000000000000000000000000000602082015250565b6000611c32602483611589565b9150611c3d82611bd6565b604082019050919050565b60006020820190508181036000830152611c6181611c25565b9050919050565b7f45524332303a20617070726f766520746f20746865207a65726f20616464726560008201527f7373000000000000000000000000000000000000000000000000000000000000602082015250565b6000611cc4602283611589565b9150611ccf82611c68565b604082019050919050565b60006020820190508181036000830152611cf381611cb7565b9050919050565b7f45524332303a206d696e7420746f20746865207a65726f206164647265737300600082015250565b6000611d30601f83611589565b9150611d3b82611cfa565b602082019050919050565b60006020820190508181036000830152611d5f81611d23565b9050919050565b7f45524332303a206275726e2066726f6d20746865207a65726f2061646472657360008201527f7300000000000000000000000000000000000000000000000000000000000000602082015250565b6000611dc2602183611589565b9150611dcd82611d66565b604082019050919050565b60006020820190508181036000830152611df181611db5565b9050919050565b7f45524332303a206275726e20616d6f756e7420657863656564732062616c616e60008201527f6365000000000000000000000000000000000000000000000000000000000000602082015250565b6000611e54602283611589565b9150611e5f82611df8565b604082019050919050565b60006020820190508181036000830152611e8381611e47565b905091905056fea2646970667358221220fd6fc1e0fe0e0d49ace056f2347ef9574d6040c8d471856042ac663208ffac0364736f6c634300080a0033608060405234801561001057600080fd5b50610fd5806100206000396000f3fe608060405234801561001057600080fd5b50600436106100a95760003560e01c80637565a92b116100715780637565a92b146101a1578063980d69d3146101d1578063cd15238814610201578063d212b44014610232578063d3817b4a14610262578063f4cb34d414610292576100a9565b8063078b7fdc146100ae57806327f83cd3146100de578063319bb38f1461010f578063441a3e701461013f578063450177c614610171575b600080fd5b6100c860048036038101906100c39190610a41565b6102c2565b6040516100d59190610a7d565b60405180910390f35b6100f860048036038101906100f39190610a98565b6102e6565b604051610106929190610b06565b60405180910390f35b61012960048036038101906101249190610a41565b6104c2565b6040516101369190610a7d565b60405180910390f35b61015960048036038101906101549190610b2f565b6104e5565b60405161016893929190610b6f565b60405180910390f35b61018b60048036038101906101869190610a41565b6105fa565b6040516101989190610a7d565b60405180910390f35b6101bb60048036038101906101b69190610a41565b61064f565b6040516101c89190610a7d565b60405180910390f35b6101eb60048036038101906101e69190610a41565b6106cf565b6040516101f89190610a7d565b60405180910390f35b61021b60048036038101906102169190610b2f565b6107be565b604051610229929190610ba6565b60405180910390f35b61024c60048036038101906102479190610a41565b610841565b6040516102599190610a7d565b60405180910390f35b61027c60048036038101906102779190610a41565b6108c2565b6040516102899190610a7d565b60405180910390f35b6102ac60048036038101906102a79190610a41565b610917565b6040516102b99190610a7d565b60405180910390f35b6000600154826000546102d59190610bfe565b6102df9190610c87565b9050919050565b6000806000915060008314156102ff5760649050610380565b60008054868561030f9190610bfe565b6103199190610c87565b90506000600154868661032c9190610bfe565b6103369190610c87565b905080821461037a576040517f08c379a000000000000000000000000000000000000000000000000000000000815260040161037190610d3b565b60405180910390fd5b81925050505b600081116103c3576040517f08c379a00000000000000000000000000000000000000000000000000000000081526004016103ba90610dcd565b60405180910390fd5b84600260003373ffffffffffffffffffffffffffffffffffffffff1673ffffffffffffffffffffffffffffffffffffffff16815260200190815260200160002060008282546104129190610ded565b9250508190555083600360003373ffffffffffffffffffffffffffffffffffffffff1673ffffffffffffffffffffffffffffffffffffffff16815260200190815260200160002060008282546104689190610ded565b92505081905550846000808282546104809190610ded565b9250508190555083600160008282546104999190610ded565b925050819055506001546000546104b09190610bfe565b60048190555060019150935093915050565b60008054826001546104d49190610bfe565b6104de9190610c87565b9050919050565b60008060006104f485856107be565b809350819450505082600260003373ffffffffffffffffffffffffffffffffffffffff1673ffffffffffffffffffffffffffffffffffffffff168152602001908152602001600020600082825461054b9190610e43565b9250508190555081600360003373ffffffffffffffffffffffffffffffffffffffff1673ffffffffffffffffffffffffffffffffffffffff16815260200190815260200160002060008282546105a19190610e43565b92505081905550826000808282546105b99190610e43565b9250508190555081600160008282546105d29190610e43565b925050819055506001546000546105e99190610bfe565b600481905550600190509250925092565b6000808260005461060b9190610ded565b905060008160045461061d9190610c87565b90508060015461062d9190610e43565b925060015483141561064857828061064490610e77565b9350505b5050919050565b600080548210610694576040517f08c379a000000000000000000000000000000000000000000000000000000000815260040161068b90610eed565b60405180910390fd5b6000826000546106a49190610e43565b90506000816004546106b69190610c87565b9050600154816106c69190610e43565b92505050919050565b60006106da826108c2565b9050806000808282546106ed9190610e43565b9250508190555081600160008282546107069190610ded565b9250508190555080600260003373ffffffffffffffffffffffffffffffffffffffff1673ffffffffffffffffffffffffffffffffffffffff168152602001908152602001600020600082825461075c9190610ded565b9250508190555081600360003373ffffffffffffffffffffffffffffffffffffffff1673ffffffffffffffffffffffffffffffffffffffff16815260200190815260200160002060008282546107b29190610e43565b92505081905550919050565b60008082841115610804576040517f08c379a00000000000000000000000000000000000000000000000000000000081526004016107fb90610f7f565b60405180910390fd5b82600054856108139190610bfe565b61081d9190610c87565b9150826001548561082e9190610bfe565b6108389190610c87565b90509250929050565b60006001548210610887576040517f08c379a000000000000000000000000000000000000000000000000000000000815260040161087e90610eed565b60405180910390fd5b6000826001546108979190610e43565b90506000816004546108a99190610c87565b9050600054816108b99190610e43565b92505050919050565b600080826001546108d39190610ded565b90506000816004546108e59190610c87565b9050806000546108f59190610e43565b925060005483141561091057828061090c90610e77565b9350505b5050919050565b6000610922826105fa565b9050816000808282546109359190610ded565b92505081905550806001600082825461094e9190610e43565b9250508190555081600260003373ffffffffffffffffffffffffffffffffffffffff1673ffffffffffffffffffffffffffffffffffffffff16815260200190815260200160002060008282546109a49190610e43565b9250508190555080600360003373ffffffffffffffffffffffffffffffffffffffff1673ffffffffffffffffffffffffffffffffffffffff16815260200190815260200160002060008282546109fa9190610ded565b92505081905550919050565b600080fd5b6000819050919050565b610a1e81610a0b565b8114610a2957600080fd5b50565b600081359050610a3b81610a15565b92915050565b600060208284031215610a5757610a56610a06565b5b6000610a6584828501610a2c565b91505092915050565b610a7781610a0b565b82525050565b6000602082019050610a926000830184610a6e565b92915050565b600080600060608486031215610ab157610ab0610a06565b5b6000610abf86828701610a2c565b9350506020610ad086828701610a2c565b9250506040610ae186828701610a2c565b9150509250925092565b60008115159050919050565b610b0081610aeb565b82525050565b6000604082019050610b1b6000830185610af7565b610b286020830184610a6e565b9392505050565b60008060408385031215610b4657610b45610a06565b5b6000610b5485828601610a2c565b9250506020610b6585828601610a2c565b9150509250929050565b6000606082019050610b846000830186610a6e565b610b916020830185610a6e565b610b9e6040830184610af7565b949350505050565b6000604082019050610bbb6000830185610a6e565b610bc86020830184610a6e565b9392505050565b7f4e487b7100000000000000000000000000000000000000000000000000000000600052601160045260246000fd5b6000610c0982610a0b565b9150610c1483610a0b565b9250817fffffffffffffffffffffffffffffffffffffffffffffffffffffffffffffffff0483118215151615610c4d57610c4c610bcf565b5b828202905092915050565b7f4e487b7100000000000000000000000000000000000000000000000000000000600052601260045260246000fd5b6000610c9282610a0b565b9150610c9d83610a0b565b925082610cad57610cac610c58565b5b828204905092915050565b600082825260208201905092915050565b7f50726f766964656420746f6b656e7320617265206e6f74206f6620657175697660008201527f616c656e742076616c75652e0000000000000000000000000000000000000000602082015250565b6000610d25602c83610cb8565b9150610d3082610cc9565b604082019050919050565b60006020820190508181036000830152610d5481610d18565b9050919050565b7f41737365742076616c7565206973206e6f7420656e6f75676820746f20636f6e60008201527f747269627574652e000000000000000000000000000000000000000000000000602082015250565b6000610db7602883610cb8565b9150610dc282610d5b565b604082019050919050565b60006020820190508181036000830152610de681610daa565b9050919050565b6000610df882610a0b565b9150610e0383610a0b565b9250827fffffffffffffffffffffffffffffffffffffffffffffffffffffffffffffffff03821115610e3857610e37610bcf565b5b828201905092915050565b6000610e4e82610a0b565b9150610e5983610a0b565b925082821015610e6c57610e6b610bcf565b5b828203905092915050565b6000610e8282610a0b565b91506000821415610e9657610e95610bcf565b5b600182039050919050565b7f496e73756666696369656e7420706f6f6c2062616c616e636500000000000000600082015250565b6000610ed7601983610cb8565b9150610ee282610ea1565b602082019050919050565b60006020820190508181036000830152610f0681610eca565b9050919050565b7f53686172652073686f756c64206265206c657373207468616e20746f74616c5360008201527f6861726500000000000000000000000000000000000000000000000000000000602082015250565b6000610f69602483610cb8565b9150610f7482610f0d565b604082019050919050565b60006020820190508181036000830152610f9881610f5c565b905091905056fea2646970667358221220783b400ab35ea23c52de4705292f872f0f88873283981cb39d2af13f4d544ead64736f6c634300080a0033",
  "immutableReferences": {},
  "source": "// SPDX-License-Identifier: MIT\r\n\r\npragma solidity >=0.8.10 <0.9.0;\r\n\r\nimport \"@openzeppelin/contracts/utils/math/SafeMath.sol\";\r\nimport \"@openzeppelin/contracts/security/ReentrancyGuard.sol\";\r\nimport \"@openzeppelin/contracts/token/ERC20/ERC20.sol\";\r\n\r\nimport \"./DexToken.sol\";\r\nimport \"./AutomatedMarketMaker.sol\";\r\n\r\ncontract LiquidityPool is ReentrancyGuard {\r\n    using SafeMath for uint256;\r\n\r\n    modifier onlyOwner() {\r\n        require(msg.sender == owner, \"Only owner can complete this tx\");\r\n        _;\r\n    }\r\n\r\n    fallback() external payable {}\r\n\r\n    receive() external payable {}\r\n\r\n    mapping(address => bool) public tokenAddressWhitelisted;\r\n    address public owner;\r\n    uint256 public poolTotalValue = 0;\r\n    uint256 private poolTotalDeposits = 0;\r\n\r\n\r\n    DexToken private __depositToken;\r\n    AutomatedMarketMaker private __marketMaker;\r\n\r\n    bool allLPsCanWithdraw = true;\r\n    event CapitalProvided(address optionsMarketAddress, uint256 amount);\r\n    event TokenSwapped(address account, address token, uint amountToken1, uint amountToken2);\r\n    event Transfer(address from, address to, uint256 tokens);\r\n    event Approval(address approver, address spender, uint256 amount);\r\n\r\n    //crashes with param?\r\n    constructor() payable {\r\n        __depositToken = new DexToken();\r\n        __marketMaker = new AutomatedMarketMaker();\r\n    }\r\n\r\n    //for now _amount1 will be ETH and _amount2 will be dextoken hardcoded.\r\n    function deposit(uint256 _amount1, uint256 _amount2)\r\n        public\r\n        payable\r\n        returns (bool)\r\n    {\r\n        require(_amount1 > 0 && _amount2 > 0, \"Invalid Amount\");\r\n\r\n        (bool validShare, uint256 share) = __marketMaker.provide(\r\n            _amount1,\r\n            _amount2,\r\n            poolTotalDeposits\r\n        );\r\n        if (validShare) {\r\n            __depositToken.transferFrom(msg.sender, address(this), _amount1);\r\n            __depositToken.transferFrom(msg.sender, address(this), _amount2);            \r\n\r\n            poolTotalDeposits += share;\r\n            poolTotalValue += (_amount1 + _amount2);\r\n            return true;\r\n        }\r\n        return false;\r\n    }\r\n\r\n    //_amount here is represented in %\r\n    function withdraw(uint256 _amount) public returns (bool) {\r\n        require(\r\n            _amount > 0 && _amount <= 100,\r\n            \"You must withdraw a percentage between 0 and 100\"\r\n        );\r\n\r\n        (uint256 amount1, uint256 amount2, bool validShare) = __marketMaker.withdraw(_amount, poolTotalDeposits);\r\n        if (validShare) {\r\n            payable(msg.sender).transfer(amount1); \r\n            __depositToken.transferFrom(address(this), msg.sender, amount2);\r\n            return true;\r\n        }\r\n\r\n        return false;\r\n    }\r\n    \r\n    //eth to dex\r\n    function swapToken1ToToken2() external payable {\r\n        require(msg.value > 0, \"Amount cannot be zero!\");\r\n\r\n        //get swap rate\r\n        uint estimatedTokens = __marketMaker.getSwapToken1Estimate(msg.value);\r\n        require(__depositToken.balanceOf(address(this)) >= estimatedTokens, \"Not Enough Funds\");\r\n\r\n        //do the swap\r\n        uint tokenAmount = __marketMaker.swapToken1(msg.value);\r\n\r\n        //transfer dex to user\r\n        //might be an issue in case we want to expand in the future?\r\n        __depositToken.transferFrom(address(this), msg.sender, tokenAmount);\r\n        //contract receives eth through msg.value\r\n\r\n        emit TokenSwapped(msg.sender, address(this), msg.value, tokenAmount);\r\n    }\r\n\r\n    //dex to eth\r\n    function swapToken2ToToken1() external payable {\r\n        require(msg.value > 0, \"Amount cannot be zero!\");\r\n\r\n        uint estimatedTokens = __marketMaker.getSwapToken2Estimate(msg.value);\r\n        require((address(this).balance) >= estimatedTokens, \"Not Enough Funds\");\r\n\r\n        uint ethAmount = __marketMaker.swapToken2(msg.value);\r\n\r\n        //send eth to user\r\n        payable(msg.sender).transfer(ethAmount);\r\n\r\n        //get user's dextokens\r\n        __depositToken.transferFrom(address(this), msg.sender, msg.value);\r\n        emit TokenSwapped(address(this), msg.sender, ethAmount, msg.value);\r\n    }\r\n    \r\n}\r\n",
  "sourcePath": "C:\\uni\\blockchain\\contracts\\contracts\\LiquidityPool.sol",
  "compiler": {
    "name": "solc",
    "version": "0.8.10+commit.fc410830.Emscripten.clang"
  },
  "schemaVersion": "3.4.6",
  "updatedAt": "2022-05-25T20:03:21.403Z",
  "networkType": "ethereum",
  "devdoc": {
    "kind": "dev",
    "methods": {},
    "version": 1
  },
  "userdoc": {
    "kind": "user",
    "methods": {},
    "version": 1
  }
}