{
  "contractName": "LiquidityPool",
  "abi": [
    {
      "inputs": [
        {
          "internalType": "contract DexToken",
          "name": "_token",
          "type": "address"
        },
        {
          "internalType": "contract AutomatedMarketMaker",
          "name": "_amm",
          "type": "address"
        }
      ],
      "stateMutability": "payable",
      "type": "constructor",
      "payable": true
    },
    {
      "anonymous": false,
      "inputs": [
        {
          "indexed": false,
          "internalType": "address",
          "name": "approver",
          "type": "address"
        },
        {
          "indexed": false,
          "internalType": "address",
          "name": "spender",
          "type": "address"
        },
        {
          "indexed": false,
          "internalType": "uint256",
          "name": "amount",
          "type": "uint256"
        }
      ],
      "name": "Approval",
      "type": "event"
    },
    {
      "anonymous": false,
      "inputs": [
        {
          "indexed": false,
          "internalType": "address",
          "name": "optionsMarketAddress",
          "type": "address"
        },
        {
          "indexed": false,
          "internalType": "uint256",
          "name": "amount",
          "type": "uint256"
        }
      ],
      "name": "CapitalProvided",
      "type": "event"
    },
    {
      "anonymous": false,
      "inputs": [
        {
          "indexed": false,
          "internalType": "address",
          "name": "sender",
          "type": "address"
        },
        {
          "indexed": false,
          "internalType": "address",
          "name": "receiver",
          "type": "address"
        },
        {
          "indexed": false,
          "internalType": "uint256",
          "name": "amount1",
          "type": "uint256"
        },
        {
          "indexed": false,
          "internalType": "uint256",
          "name": "amount2",
          "type": "uint256"
        }
      ],
      "name": "ProvidedLP",
      "type": "event"
    },
    {
      "anonymous": false,
      "inputs": [
        {
          "indexed": false,
          "internalType": "address",
          "name": "from",
          "type": "address"
        },
        {
          "indexed": false,
          "internalType": "address",
          "name": "to",
          "type": "address"
        },
        {
          "indexed": false,
          "internalType": "uint256",
          "name": "tokens",
          "type": "uint256"
        }
      ],
      "name": "Transfer",
      "type": "event"
    },
    {
      "stateMutability": "payable",
      "type": "fallback",
      "payable": true
    },
    {
      "inputs": [],
      "name": "owner",
      "outputs": [
        {
          "internalType": "address",
          "name": "",
          "type": "address"
        }
      ],
      "stateMutability": "view",
      "type": "function",
      "constant": true
    },
    {
      "inputs": [],
      "name": "poolTotalValue",
      "outputs": [
        {
          "internalType": "uint256",
          "name": "",
          "type": "uint256"
        }
      ],
      "stateMutability": "view",
      "type": "function",
      "constant": true
    },
    {
      "inputs": [
        {
          "internalType": "address",
          "name": "",
          "type": "address"
        }
      ],
      "name": "tokenAddressWhitelisted",
      "outputs": [
        {
          "internalType": "bool",
          "name": "",
          "type": "bool"
        }
      ],
      "stateMutability": "view",
      "type": "function",
      "constant": true
    },
    {
      "stateMutability": "payable",
      "type": "receive",
      "payable": true
    },
    {
      "inputs": [
        {
          "internalType": "uint256",
          "name": "_dexAmount",
          "type": "uint256"
        }
      ],
      "name": "deposit",
      "outputs": [
        {
          "internalType": "bool",
          "name": "",
          "type": "bool"
        }
      ],
      "stateMutability": "payable",
      "type": "function",
      "payable": true
    },
    {
      "inputs": [
        {
          "internalType": "uint256",
          "name": "_amount",
          "type": "uint256"
        }
      ],
      "name": "withdraw",
      "outputs": [
        {
          "internalType": "bool",
          "name": "",
          "type": "bool"
        }
      ],
      "stateMutability": "nonpayable",
      "type": "function"
    },
    {
      "inputs": [],
      "name": "swapToken1ToToken2",
      "outputs": [],
      "stateMutability": "payable",
      "type": "function",
      "payable": true
    },
    {
      "inputs": [
        {
          "internalType": "uint256",
          "name": "_dexToken",
          "type": "uint256"
        }
      ],
      "name": "swapToken2ToToken1",
      "outputs": [],
      "stateMutability": "nonpayable",
      "type": "function"
    }
  ],
  "bytecode": "0x6080604052600060035560006004556001600660146101000a81548160ff021916908315150217905550604051620014343803806200143483398181016040528101906200004e9190620001a3565b600160008190555081600560006101000a81548173ffffffffffffffffffffffffffffffffffffffff021916908373ffffffffffffffffffffffffffffffffffffffff16021790555080600660006101000a81548173ffffffffffffffffffffffffffffffffffffffff021916908373ffffffffffffffffffffffffffffffffffffffff1602179055505050620001ea565b600080fd5b600073ffffffffffffffffffffffffffffffffffffffff82169050919050565b60006200011282620000e5565b9050919050565b6000620001268262000105565b9050919050565b620001388162000119565b81146200014457600080fd5b50565b60008151905062000158816200012d565b92915050565b60006200016b8262000105565b9050919050565b6200017d816200015e565b81146200018957600080fd5b50565b6000815190506200019d8162000172565b92915050565b60008060408385031215620001bd57620001bc620000e0565b5b6000620001cd8582860162000147565b9250506020620001e0858286016200018c565b9150509250929050565b61123a80620001fa6000396000f3fe6080604052600436106100745760003560e01c80638da5cb5b1161004e5780638da5cb5b146101015780638f617c6c1461012c578063b6b55f2514610157578063f61b23fa146101875761007b565b8063038bb9011461007d5780632e1a7d4d146100ba5780632f1d56dc146100f75761007b565b3661007b57005b005b34801561008957600080fd5b506100a4600480360381019061009f9190610c4b565b6101b0565b6040516100b19190610c93565b60405180910390f35b3480156100c657600080fd5b506100e160048036038101906100dc9190610ce4565b6101d0565b6040516100ee9190610c93565b60405180910390f35b6100ff6103d5565b005b34801561010d57600080fd5b506101166106dd565b6040516101239190610d20565b60405180910390f35b34801561013857600080fd5b50610141610703565b60405161014e9190610d4a565b60405180910390f35b610171600480360381019061016c9190610ce4565b610709565b60405161017e9190610c93565b60405180910390f35b34801561019357600080fd5b506101ae60048036038101906101a99190610ce4565b610931565b005b60016020528060005260406000206000915054906101000a900460ff1681565b600080821180156101e2575060648211155b610221576040517f08c379a000000000000000000000000000000000000000000000000000000000815260040161021890610de8565b60405180910390fd5b6000806000600660009054906101000a900473ffffffffffffffffffffffffffffffffffffffff1673ffffffffffffffffffffffffffffffffffffffff1663441a3e70866004546040518363ffffffff1660e01b8152600401610285929190610e08565b6060604051808303816000875af11580156102a4573d6000803e3d6000fd5b505050506040513d601f19601f820116820180604052508101906102c89190610e72565b92509250925080156103c8573373ffffffffffffffffffffffffffffffffffffffff166108fc849081150290604051600060405180830381858888f1935050505015801561031a573d6000803e3d6000fd5b50600560009054906101000a900473ffffffffffffffffffffffffffffffffffffffff1673ffffffffffffffffffffffffffffffffffffffff1663a9059cbb33846040518363ffffffff1660e01b8152600401610378929190610ec5565b6020604051808303816000875af1158015610397573d6000803e3d6000fd5b505050506040513d601f19601f820116820180604052508101906103bb9190610eee565b50600193505050506103d0565b600093505050505b919050565b60003411610418576040517f08c379a000000000000000000000000000000000000000000000000000000000815260040161040f90610f67565b60405180910390fd5b6000600660009054906101000a900473ffffffffffffffffffffffffffffffffffffffff1673ffffffffffffffffffffffffffffffffffffffff1663450177c6346040518263ffffffff1660e01b81526004016104759190610d4a565b602060405180830381865afa158015610492573d6000803e3d6000fd5b505050506040513d601f19601f820116820180604052508101906104b69190610f87565b905080600560009054906101000a900473ffffffffffffffffffffffffffffffffffffffff1673ffffffffffffffffffffffffffffffffffffffff166370a08231306040518263ffffffff1660e01b81526004016105149190610d20565b602060405180830381865afa158015610531573d6000803e3d6000fd5b505050506040513d601f19601f820116820180604052508101906105559190610f87565b1015610596576040517f08c379a000000000000000000000000000000000000000000000000000000000815260040161058d90611000565b60405180910390fd5b6000600660009054906101000a900473ffffffffffffffffffffffffffffffffffffffff1673ffffffffffffffffffffffffffffffffffffffff1663f4cb34d4346040518263ffffffff1660e01b81526004016105f39190610d4a565b6020604051808303816000875af1158015610612573d6000803e3d6000fd5b505050506040513d601f19601f820116820180604052508101906106369190610f87565b9050600560009054906101000a900473ffffffffffffffffffffffffffffffffffffffff1673ffffffffffffffffffffffffffffffffffffffff1663a9059cbb33836040518363ffffffff1660e01b8152600401610695929190610ec5565b6020604051808303816000875af11580156106b4573d6000803e3d6000fd5b505050506040513d601f19601f820116820180604052508101906106d89190610eee565b505050565b600260009054906101000a900473ffffffffffffffffffffffffffffffffffffffff1681565b60035481565b600080821161074d576040517f08c379a00000000000000000000000000000000000000000000000000000000081526004016107449061106c565b60405180910390fd5b600080600660009054906101000a900473ffffffffffffffffffffffffffffffffffffffff1673ffffffffffffffffffffffffffffffffffffffff166327f83cd334866004546040518463ffffffff1660e01b81526004016107b19392919061108c565b60408051808303816000875af11580156107cf573d6000803e3d6000fd5b505050506040513d601f19601f820116820180604052508101906107f391906110c3565b91509150811561092557600560009054906101000a900473ffffffffffffffffffffffffffffffffffffffff1673ffffffffffffffffffffffffffffffffffffffff166323b872dd3330876040518463ffffffff1660e01b815260040161085c93929190611103565b6020604051808303816000875af115801561087b573d6000803e3d6000fd5b505050506040513d601f19601f8201168201806040525081019061089f9190610eee565b5080600460008282546108b29190611169565b9250508190555083346108c59190611169565b600360008282546108d69190611169565b925050819055507f6477b4ec4436320648298a63524839af246e4a7adc17dc4f1dd1543b8ca39c473330348760405161091294939291906111bf565b60405180910390a160019250505061092c565b6000925050505b919050565b60008111610974576040517f08c379a000000000000000000000000000000000000000000000000000000000815260040161096b90610f67565b60405180910390fd5b6000600660009054906101000a900473ffffffffffffffffffffffffffffffffffffffff1673ffffffffffffffffffffffffffffffffffffffff1663d3817b4a836040518263ffffffff1660e01b81526004016109d19190610d4a565b602060405180830381865afa1580156109ee573d6000803e3d6000fd5b505050506040513d601f19601f82011682018060405250810190610a129190610f87565b905080471015610a57576040517f08c379a0000000000000000000000000000000000000000000000000000000008152600401610a4e90611000565b60405180910390fd5b6000600660009054906101000a900473ffffffffffffffffffffffffffffffffffffffff1673ffffffffffffffffffffffffffffffffffffffff1663980d69d3846040518263ffffffff1660e01b8152600401610ab49190610d4a565b6020604051808303816000875af1158015610ad3573d6000803e3d6000fd5b505050506040513d601f19601f82011682018060405250810190610af79190610f87565b90503373ffffffffffffffffffffffffffffffffffffffff166108fc829081150290604051600060405180830381858888f19350505050158015610b3f573d6000803e3d6000fd5b50600560009054906101000a900473ffffffffffffffffffffffffffffffffffffffff1673ffffffffffffffffffffffffffffffffffffffff166323b872dd3330866040518463ffffffff1660e01b8152600401610b9f93929190611103565b6020604051808303816000875af1158015610bbe573d6000803e3d6000fd5b505050506040513d601f19601f82011682018060405250810190610be29190610eee565b50505050565b600080fd5b600073ffffffffffffffffffffffffffffffffffffffff82169050919050565b6000610c1882610bed565b9050919050565b610c2881610c0d565b8114610c3357600080fd5b50565b600081359050610c4581610c1f565b92915050565b600060208284031215610c6157610c60610be8565b5b6000610c6f84828501610c36565b91505092915050565b60008115159050919050565b610c8d81610c78565b82525050565b6000602082019050610ca86000830184610c84565b92915050565b6000819050919050565b610cc181610cae565b8114610ccc57600080fd5b50565b600081359050610cde81610cb8565b92915050565b600060208284031215610cfa57610cf9610be8565b5b6000610d0884828501610ccf565b91505092915050565b610d1a81610c0d565b82525050565b6000602082019050610d356000830184610d11565b92915050565b610d4481610cae565b82525050565b6000602082019050610d5f6000830184610d3b565b92915050565b600082825260208201905092915050565b7f596f75206d75737420776974686472617720612070657263656e74616765206260008201527f65747765656e203020616e642031303000000000000000000000000000000000602082015250565b6000610dd2603083610d65565b9150610ddd82610d76565b604082019050919050565b60006020820190508181036000830152610e0181610dc5565b9050919050565b6000604082019050610e1d6000830185610d3b565b610e2a6020830184610d3b565b9392505050565b600081519050610e4081610cb8565b92915050565b610e4f81610c78565b8114610e5a57600080fd5b50565b600081519050610e6c81610e46565b92915050565b600080600060608486031215610e8b57610e8a610be8565b5b6000610e9986828701610e31565b9350506020610eaa86828701610e31565b9250506040610ebb86828701610e5d565b9150509250925092565b6000604082019050610eda6000830185610d11565b610ee76020830184610d3b565b9392505050565b600060208284031215610f0457610f03610be8565b5b6000610f1284828501610e5d565b91505092915050565b7f416d6f756e742063616e6e6f74206265207a65726f2100000000000000000000600082015250565b6000610f51601683610d65565b9150610f5c82610f1b565b602082019050919050565b60006020820190508181036000830152610f8081610f44565b9050919050565b600060208284031215610f9d57610f9c610be8565b5b6000610fab84828501610e31565b91505092915050565b7f4e6f7420456e6f7567682046756e647300000000000000000000000000000000600082015250565b6000610fea601083610d65565b9150610ff582610fb4565b602082019050919050565b6000602082019050818103600083015261101981610fdd565b9050919050565b7f496e76616c696420416d6f756e74000000000000000000000000000000000000600082015250565b6000611056600e83610d65565b915061106182611020565b602082019050919050565b6000602082019050818103600083015261108581611049565b9050919050565b60006060820190506110a16000830186610d3b565b6110ae6020830185610d3b565b6110bb6040830184610d3b565b949350505050565b600080604083850312156110da576110d9610be8565b5b60006110e885828601610e5d565b92505060206110f985828601610e31565b9150509250929050565b60006060820190506111186000830186610d11565b6111256020830185610d11565b6111326040830184610d3b565b949350505050565b7f4e487b7100000000000000000000000000000000000000000000000000000000600052601160045260246000fd5b600061117482610cae565b915061117f83610cae565b9250827fffffffffffffffffffffffffffffffffffffffffffffffffffffffffffffffff038211156111b4576111b361113a565b5b828201905092915050565b60006080820190506111d46000830187610d11565b6111e16020830186610d11565b6111ee6040830185610d3b565b6111fb6060830184610d3b565b9594505050505056fea26469706673582212205ce64cf0f62441047a2c1d7d48c55b0702afd8e5bfd3f40f34db318a864deb3864736f6c634300080a0033",
  "immutableReferences": {},
  "source": "// SPDX-License-Identifier: MIT\r\n\r\npragma solidity >=0.8.10 <0.9.0;\r\n\r\nimport \"@openzeppelin/contracts/utils/math/SafeMath.sol\";\r\nimport \"@openzeppelin/contracts/security/ReentrancyGuard.sol\";\r\nimport \"@openzeppelin/contracts/token/ERC20/ERC20.sol\";\r\n\r\nimport \"./DexToken.sol\";\r\nimport \"./AutomatedMarketMaker.sol\";\r\n\r\ncontract LiquidityPool is ReentrancyGuard {\r\n    using SafeMath for uint256;\r\n\r\n    modifier onlyOwner() {\r\n        require(msg.sender == owner, \"Only owner can complete this tx\");\r\n        _;\r\n    }\r\n\r\n    fallback() external payable {}\r\n\r\n    receive() external payable {}\r\n\r\n    mapping(address => bool) public tokenAddressWhitelisted;\r\n    address public owner;\r\n    uint256 public poolTotalValue = 0;\r\n    uint256 private poolTotalDeposits = 0;\r\n\r\n\r\n    DexToken private __depositToken;\r\n    AutomatedMarketMaker private __marketMaker;\r\n\r\n    bool allLPsCanWithdraw = true;\r\n    event CapitalProvided(address optionsMarketAddress, uint256 amount);\r\n    //event TokenSwapped(address account, address token, uint amountToken1, uint amountToken2);\r\n    event Transfer(address from, address to, uint256 tokens);\r\n    event Approval(address approver, address spender, uint256 amount);\r\n\r\n    event ProvidedLP(address sender, address receiver, uint256 amount1, uint256 amount2);\r\n\r\n    \r\n    constructor(DexToken _token, AutomatedMarketMaker _amm) payable {\r\n        __depositToken = _token;\r\n        __marketMaker = _amm;\r\n    }\r\n\r\n    //for now _amount1 will be ETH and _amount2 will be dextoken hardcoded.\r\n    function deposit(uint256 _dexAmount)\r\n        public\r\n        payable\r\n        returns (bool)\r\n    {\r\n        require(_dexAmount > 0, \"Invalid Amount\");\r\n\r\n        (bool validShare, uint256 share) = __marketMaker.provide(\r\n            msg.value,\r\n            _dexAmount,\r\n            poolTotalDeposits\r\n        );\r\n        if (validShare) {\r\n            __depositToken.transferFrom(msg.sender, address(this), _dexAmount);            \r\n            poolTotalDeposits += share;\r\n            poolTotalValue += (msg.value + _dexAmount);\r\n            emit ProvidedLP(msg.sender, address(this), msg.value, _dexAmount);\r\n            return true;\r\n        }\r\n        return false;\r\n    }\r\n\r\n    //_amount here is represented in %\r\n    function withdraw(uint256 _amount) public returns (bool) {\r\n        require(\r\n            _amount > 0 && _amount <= 100,\r\n            \"You must withdraw a percentage between 0 and 100\"\r\n        );\r\n\r\n        (uint256 weiAmount, uint256 dexAmount, bool validShare) = __marketMaker.withdraw(_amount, poolTotalDeposits);\r\n        if (validShare) {\r\n            payable(msg.sender).transfer(weiAmount); \r\n            __depositToken.transfer(msg.sender, dexAmount);\r\n            return true;\r\n        }\r\n\r\n        return false;\r\n    }\r\n    \r\n    //eth to dex\r\n    function swapToken1ToToken2() external payable {\r\n        require(msg.value > 0, \"Amount cannot be zero!\");\r\n\r\n        //get swap rate\r\n        uint estimatedTokens = __marketMaker.getSwapToken1Estimate(msg.value);\r\n        require(__depositToken.balanceOf(address(this)) >= estimatedTokens, \"Not Enough Funds\");\r\n\r\n        //do the swap\r\n        uint tokenAmount = __marketMaker.swapToken1(msg.value);\r\n\r\n        //transfer dex to user\r\n        //might be an issue in case we want to expand in the future?\r\n        __depositToken.transfer(msg.sender, tokenAmount);\r\n        //contract receives eth through msg.value\r\n\r\n        //emit TokenSwapped(msg.sender, address(this), msg.value, tokenAmount);\r\n    }\r\n\r\n    //dex to eth\r\n    function swapToken2ToToken1(uint _dexToken) external {\r\n        require(_dexToken > 0, \"Amount cannot be zero!\");\r\n\r\n        uint estimatedTokens = __marketMaker.getSwapToken2Estimate(_dexToken);\r\n        require((address(this).balance) >= estimatedTokens, \"Not Enough Funds\");\r\n\r\n        uint ethAmount = __marketMaker.swapToken2(_dexToken);\r\n\r\n        //send eth to user\r\n        payable(msg.sender).transfer(ethAmount);\r\n\r\n        //get user's dextokens\r\n        __depositToken.transferFrom(msg.sender, address(this), _dexToken);\r\n        //emit TokenSwapped(address(this), msg.sender, ethAmount, msg.value);\r\n    }\r\n    \r\n}",
  "sourcePath": "C:\\uni\\blockchain\\contracts\\contracts\\LiquidityPool.sol",
  "compiler": {
    "name": "solc",
    "version": "0.8.10+commit.fc410830.Emscripten.clang"
  },
  "schemaVersion": "3.4.6",
  "updatedAt": "2022-06-09T16:31:53.075Z",
  "networkType": "ethereum",
  "devdoc": {
    "kind": "dev",
    "methods": {},
    "version": 1
  },
  "userdoc": {
    "kind": "user",
    "methods": {},
    "version": 1
  }
}