{
  "_format": "hh-sol-artifact-1",
  "contractName": "LiquidityPool",
  "sourceName": "contracts/LiquidityPool.sol",
  "abi": [
    {
      "inputs": [
        {
          "internalType": "contract DexToken",
          "name": "_token",
          "type": "address"
        },
        {
          "internalType": "contract AutomatedMarketMaker",
          "name": "_amm",
          "type": "address"
        }
      ],
      "stateMutability": "payable",
      "type": "constructor"
    },
    {
      "anonymous": false,
      "inputs": [
        {
          "indexed": false,
          "internalType": "address",
          "name": "approver",
          "type": "address"
        },
        {
          "indexed": false,
          "internalType": "address",
          "name": "spender",
          "type": "address"
        },
        {
          "indexed": false,
          "internalType": "uint256",
          "name": "amount",
          "type": "uint256"
        }
      ],
      "name": "Approval",
      "type": "event"
    },
    {
      "anonymous": false,
      "inputs": [
        {
          "indexed": false,
          "internalType": "address",
          "name": "sender",
          "type": "address"
        },
        {
          "indexed": false,
          "internalType": "address",
          "name": "receiver",
          "type": "address"
        },
        {
          "indexed": false,
          "internalType": "uint256",
          "name": "amount1",
          "type": "uint256"
        },
        {
          "indexed": false,
          "internalType": "uint256",
          "name": "amount2",
          "type": "uint256"
        }
      ],
      "name": "ProvidedLP",
      "type": "event"
    },
    {
      "anonymous": false,
      "inputs": [
        {
          "indexed": false,
          "internalType": "address",
          "name": "from",
          "type": "address"
        },
        {
          "indexed": false,
          "internalType": "address",
          "name": "to",
          "type": "address"
        },
        {
          "indexed": false,
          "internalType": "uint256",
          "name": "tokens",
          "type": "uint256"
        }
      ],
      "name": "Transfer",
      "type": "event"
    },
    {
      "stateMutability": "payable",
      "type": "fallback"
    },
    {
      "inputs": [
        {
          "internalType": "uint256",
          "name": "_dexAmount",
          "type": "uint256"
        }
      ],
      "name": "deposit",
      "outputs": [
        {
          "internalType": "bool",
          "name": "",
          "type": "bool"
        }
      ],
      "stateMutability": "payable",
      "type": "function"
    },
    {
      "inputs": [],
      "name": "poolTotalValue",
      "outputs": [
        {
          "internalType": "uint256",
          "name": "",
          "type": "uint256"
        }
      ],
      "stateMutability": "view",
      "type": "function"
    },
    {
      "inputs": [],
      "name": "swapToken1ToToken2",
      "outputs": [],
      "stateMutability": "payable",
      "type": "function"
    },
    {
      "inputs": [
        {
          "internalType": "uint256",
          "name": "_dexToken",
          "type": "uint256"
        }
      ],
      "name": "swapToken2ToToken1",
      "outputs": [],
      "stateMutability": "nonpayable",
      "type": "function"
    },
    {
      "inputs": [
        {
          "internalType": "uint256",
          "name": "_amount",
          "type": "uint256"
        }
      ],
      "name": "withdraw",
      "outputs": [
        {
          "internalType": "bool",
          "name": "",
          "type": "bool"
        }
      ],
      "stateMutability": "nonpayable",
      "type": "function"
    },
    {
      "stateMutability": "payable",
      "type": "receive"
    }
  ],
  "bytecode": "0x60806040526000600155600060025560006003556000600455600060055560006006556000600755604051620018b9380380620018b983398181016040528101906200004c9190620001a1565b600160008190555081600860006101000a81548173ffffffffffffffffffffffffffffffffffffffff021916908373ffffffffffffffffffffffffffffffffffffffff16021790555080600960006101000a81548173ffffffffffffffffffffffffffffffffffffffff021916908373ffffffffffffffffffffffffffffffffffffffff1602179055505050620001e8565b600080fd5b600073ffffffffffffffffffffffffffffffffffffffff82169050919050565b60006200011082620000e3565b9050919050565b6000620001248262000103565b9050919050565b620001368162000117565b81146200014257600080fd5b50565b60008151905062000156816200012b565b92915050565b6000620001698262000103565b9050919050565b6200017b816200015c565b81146200018757600080fd5b50565b6000815190506200019b8162000170565b92915050565b60008060408385031215620001bb57620001ba620000de565b5b6000620001cb8582860162000145565b9250506020620001de858286016200018a565b9150509250929050565b6116c180620001f86000396000f3fe60806040526004361061004e5760003560e01c80632e1a7d4d146100575780632f1d56dc146100945780638f617c6c1461009e578063b6b55f25146100c9578063f61b23fa146100f957610055565b3661005557005b005b34801561006357600080fd5b5061007e60048036038101906100799190611020565b610122565b60405161008b9190611068565b60405180910390f35b61009c61053e565b005b3480156100aa57600080fd5b506100b36108d8565b6040516100c09190611092565b60405180910390f35b6100e360048036038101906100de9190611020565b6108de565b6040516100f09190611068565b60405180910390f35b34801561010557600080fd5b50610120600480360381019061011b9190611020565b610cab565b005b60006002600054141561016a576040517f08c379a00000000000000000000000000000000000000000000000000000000081526004016101619061110a565b60405180910390fd5b6002600081905550600082118015610183575060648211155b6101c2576040517f08c379a00000000000000000000000000000000000000000000000000000000081526004016101b99061119c565b60405180910390fd5b6000806000600960009054906101000a900473ffffffffffffffffffffffffffffffffffffffff1673ffffffffffffffffffffffffffffffffffffffff16632e1a7d4d866040518263ffffffff1660e01b81526004016102229190611092565b606060405180830381600087803b15801561023c57600080fd5b505af1158015610250573d6000803e3d6000fd5b505050506040513d601f19601f8201168201806040525081019061027491906111fd565b9250925092508015610529576000600a6064600385610293919061127f565b61029d9190611308565b600a856102aa919061127f565b6102b49190611339565b6102be9190611308565b905060006103e86003866102d2919061127f565b6102dc9190611308565b856102e79190611339565b905080856102f59190611339565b60046000828254610306919061136d565b9250508190555081846103199190611339565b6003600082825461032a919061136d565b925050819055506004805461033f9190611308565b60066000828254610350919061136d565b9250508190555060046003546103669190611308565b60056000828254610377919061136d565b92505081905550600860009054906101000a900473ffffffffffffffffffffffffffffffffffffffff1673ffffffffffffffffffffffffffffffffffffffff166342966c68610fa06003876103cc919061127f565b6103d69190611308565b6040518263ffffffff1660e01b81526004016103f29190611092565b600060405180830381600087803b15801561040c57600080fd5b505af1158015610420573d6000803e3d6000fd5b505050503373ffffffffffffffffffffffffffffffffffffffff166108fc869081150290604051600060405180830381858888f1935050505015801561046a573d6000803e3d6000fd5b50600860009054906101000a900473ffffffffffffffffffffffffffffffffffffffff1673ffffffffffffffffffffffffffffffffffffffff1663a9059cbb33866040518363ffffffff1660e01b81526004016104c8929190611404565b602060405180830381600087803b1580156104e257600080fd5b505af11580156104f6573d6000803e3d6000fd5b505050506040513d601f19601f8201168201806040525081019061051a919061142d565b50600195505050505050610531565b600093505050505b6001600081905550919050565b60026000541415610584576040517f08c379a000000000000000000000000000000000000000000000000000000000815260040161057b9061110a565b60405180910390fd5b6002600081905550600034116105cf576040517f08c379a00000000000000000000000000000000000000000000000000000000081526004016105c6906114a6565b60405180910390fd5b6000600960009054906101000a900473ffffffffffffffffffffffffffffffffffffffff1673ffffffffffffffffffffffffffffffffffffffff1663450177c6346040518263ffffffff1660e01b815260040161062c9190611092565b60206040518083038186803b15801561064457600080fd5b505afa158015610658573d6000803e3d6000fd5b505050506040513d601f19601f8201168201806040525081019061067c91906114c6565b905080600860009054906101000a900473ffffffffffffffffffffffffffffffffffffffff1673ffffffffffffffffffffffffffffffffffffffff166370a08231306040518263ffffffff1660e01b81526004016106da91906114f3565b60206040518083038186803b1580156106f257600080fd5b505afa158015610706573d6000803e3d6000fd5b505050506040513d601f19601f8201168201806040525081019061072a91906114c6565b101561076b576040517f08c379a00000000000000000000000000000000000000000000000000000000081526004016107629061155a565b60405180910390fd5b6000600960009054906101000a900473ffffffffffffffffffffffffffffffffffffffff1673ffffffffffffffffffffffffffffffffffffffff1663f4cb34d4346040518263ffffffff1660e01b81526004016107c89190611092565b602060405180830381600087803b1580156107e257600080fd5b505af11580156107f6573d6000803e3d6000fd5b505050506040513d601f19601f8201168201806040525081019061081a91906114c6565b9050600860009054906101000a900473ffffffffffffffffffffffffffffffffffffffff1673ffffffffffffffffffffffffffffffffffffffff1663a9059cbb33836040518363ffffffff1660e01b8152600401610879929190611404565b602060405180830381600087803b15801561089357600080fd5b505af11580156108a7573d6000803e3d6000fd5b505050506040513d601f19601f820116820180604052508101906108cb919061142d565b5050506001600081905550565b60015481565b6000808211610922576040517f08c379a0000000000000000000000000000000000000000000000000000000008152600401610919906115c6565b60405180910390fd5b6000600a6064600385610935919061127f565b61093f9190611308565b600a8561094c919061127f565b6109569190611339565b6109609190611308565b905060006103e8600334610974919061127f565b61097e9190611308565b346109899190611339565b90506000600960009054906101000a900473ffffffffffffffffffffffffffffffffffffffff1673ffffffffffffffffffffffffffffffffffffffff1663e8c3c54f83856040518363ffffffff1660e01b81526004016109ea9291906115e6565b602060405180830381600087803b158015610a0457600080fd5b505af1158015610a18573d6000803e3d6000fd5b505050506040513d601f19601f82011682018060405250810190610a3c919061142d565b90508015610c9e57600860009054906101000a900473ffffffffffffffffffffffffffffffffffffffff1673ffffffffffffffffffffffffffffffffffffffff166323b872dd3330866040518463ffffffff1660e01b8152600401610aa39392919061160f565b602060405180830381600087803b158015610abd57600080fd5b505af1158015610ad1573d6000803e3d6000fd5b505050506040513d601f19601f82011682018060405250810190610af5919061142d565b508282610b02919061136d565b60016000828254610b13919061136d565b925050819055508134610b269190611339565b60046000828254610b37919061136d565b925050819055508285610b4a9190611339565b60036000828254610b5b919061136d565b9250508190555060048054610b709190611308565b60066000828254610b81919061136d565b925050819055506004600354610b979190611308565b60056000828254610ba8919061136d565b92505081905550600860009054906101000a900473ffffffffffffffffffffffffffffffffffffffff1673ffffffffffffffffffffffffffffffffffffffff166342966c68610fa0600388610bfd919061127f565b610c079190611308565b6040518263ffffffff1660e01b8152600401610c239190611092565b600060405180830381600087803b158015610c3d57600080fd5b505af1158015610c51573d6000803e3d6000fd5b505050507f6477b4ec4436320648298a63524839af246e4a7adc17dc4f1dd1543b8ca39c4733308486604051610c8a9493929190611646565b60405180910390a160019350505050610ca6565b600093505050505b919050565b60026000541415610cf1576040517f08c379a0000000000000000000000000000000000000000000000000000000008152600401610ce89061110a565b60405180910390fd5b600260008190555060008111610d3c576040517f08c379a0000000000000000000000000000000000000000000000000000000008152600401610d33906114a6565b60405180910390fd5b6000600960009054906101000a900473ffffffffffffffffffffffffffffffffffffffff1673ffffffffffffffffffffffffffffffffffffffff1663d3817b4a836040518263ffffffff1660e01b8152600401610d999190611092565b60206040518083038186803b158015610db157600080fd5b505afa158015610dc5573d6000803e3d6000fd5b505050506040513d601f19601f82011682018060405250810190610de991906114c6565b905080471015610e2e576040517f08c379a0000000000000000000000000000000000000000000000000000000008152600401610e259061155a565b60405180910390fd5b6000600960009054906101000a900473ffffffffffffffffffffffffffffffffffffffff1673ffffffffffffffffffffffffffffffffffffffff1663980d69d3846040518263ffffffff1660e01b8152600401610e8b9190611092565b602060405180830381600087803b158015610ea557600080fd5b505af1158015610eb9573d6000803e3d6000fd5b505050506040513d601f19601f82011682018060405250810190610edd91906114c6565b90503373ffffffffffffffffffffffffffffffffffffffff166108fc829081150290604051600060405180830381858888f19350505050158015610f25573d6000803e3d6000fd5b50600860009054906101000a900473ffffffffffffffffffffffffffffffffffffffff1673ffffffffffffffffffffffffffffffffffffffff166323b872dd3330866040518463ffffffff1660e01b8152600401610f859392919061160f565b602060405180830381600087803b158015610f9f57600080fd5b505af1158015610fb3573d6000803e3d6000fd5b505050506040513d601f19601f82011682018060405250810190610fd7919061142d565b505050600160008190555050565b600080fd5b6000819050919050565b610ffd81610fea565b811461100857600080fd5b50565b60008135905061101a81610ff4565b92915050565b60006020828403121561103657611035610fe5565b5b60006110448482850161100b565b91505092915050565b60008115159050919050565b6110628161104d565b82525050565b600060208201905061107d6000830184611059565b92915050565b61108c81610fea565b82525050565b60006020820190506110a76000830184611083565b92915050565b600082825260208201905092915050565b7f5265656e7472616e637947756172643a207265656e7472616e742063616c6c00600082015250565b60006110f4601f836110ad565b91506110ff826110be565b602082019050919050565b60006020820190508181036000830152611123816110e7565b9050919050565b7f596f75206d75737420776974686472617720612070657263656e74616765206260008201527f65747765656e203020616e642031303000000000000000000000000000000000602082015250565b60006111866030836110ad565b91506111918261112a565b604082019050919050565b600060208201905081810360008301526111b581611179565b9050919050565b6000815190506111cb81610ff4565b92915050565b6111da8161104d565b81146111e557600080fd5b50565b6000815190506111f7816111d1565b92915050565b60008060006060848603121561121657611215610fe5565b5b6000611224868287016111bc565b9350506020611235868287016111bc565b9250506040611246868287016111e8565b9150509250925092565b7f4e487b7100000000000000000000000000000000000000000000000000000000600052601160045260246000fd5b600061128a82610fea565b915061129583610fea565b9250817fffffffffffffffffffffffffffffffffffffffffffffffffffffffffffffffff04831182151516156112ce576112cd611250565b5b828202905092915050565b7f4e487b7100000000000000000000000000000000000000000000000000000000600052601260045260246000fd5b600061131382610fea565b915061131e83610fea565b92508261132e5761132d6112d9565b5b828204905092915050565b600061134482610fea565b915061134f83610fea565b92508282101561136257611361611250565b5b828203905092915050565b600061137882610fea565b915061138383610fea565b9250827fffffffffffffffffffffffffffffffffffffffffffffffffffffffffffffffff038211156113b8576113b7611250565b5b828201905092915050565b600073ffffffffffffffffffffffffffffffffffffffff82169050919050565b60006113ee826113c3565b9050919050565b6113fe816113e3565b82525050565b600060408201905061141960008301856113f5565b6114266020830184611083565b9392505050565b60006020828403121561144357611442610fe5565b5b6000611451848285016111e8565b91505092915050565b7f416d6f756e742063616e6e6f74206265207a65726f2100000000000000000000600082015250565b60006114906016836110ad565b915061149b8261145a565b602082019050919050565b600060208201905081810360008301526114bf81611483565b9050919050565b6000602082840312156114dc576114db610fe5565b5b60006114ea848285016111bc565b91505092915050565b600060208201905061150860008301846113f5565b92915050565b7f4e6f7420456e6f7567682046756e647300000000000000000000000000000000600082015250565b60006115446010836110ad565b915061154f8261150e565b602082019050919050565b6000602082019050818103600083015261157381611537565b9050919050565b7f496e76616c696420416d6f756e74000000000000000000000000000000000000600082015250565b60006115b0600e836110ad565b91506115bb8261157a565b602082019050919050565b600060208201905081810360008301526115df816115a3565b9050919050565b60006040820190506115fb6000830185611083565b6116086020830184611083565b9392505050565b600060608201905061162460008301866113f5565b61163160208301856113f5565b61163e6040830184611083565b949350505050565b600060808201905061165b60008301876113f5565b61166860208301866113f5565b6116756040830185611083565b6116826060830184611083565b9594505050505056fea264697066735822122016790ec2fde61963a207e82e9d3dde002e59f9c6a34a1e268cc867b7860d9b8864736f6c63430008090033",
  "linkReferences": {},
  "deployedLinkReferences": {}
}