{
  "_format": "hh-sol-artifact-1",
  "contractName": "AutomatedMarketMaker",
  "sourceName": "contracts/AutomatedMarketMaker.sol",
  "abi": [
    {
      "inputs": [],
      "stateMutability": "nonpayable",
      "type": "constructor"
    },
    {
      "inputs": [
        {
          "internalType": "uint256",
          "name": "_amountToken2",
          "type": "uint256"
        }
      ],
      "name": "getEquivalentToken1Estimate",
      "outputs": [
        {
          "internalType": "uint256",
          "name": "reqToken1",
          "type": "uint256"
        }
      ],
      "stateMutability": "view",
      "type": "function"
    },
    {
      "inputs": [
        {
          "internalType": "uint256",
          "name": "_amountToken1",
          "type": "uint256"
        }
      ],
      "name": "getEquivalentToken2Estimate",
      "outputs": [
        {
          "internalType": "uint256",
          "name": "reqToken2",
          "type": "uint256"
        }
      ],
      "stateMutability": "view",
      "type": "function"
    },
    {
      "inputs": [
        {
          "internalType": "uint256",
          "name": "_amountToken1",
          "type": "uint256"
        }
      ],
      "name": "getSwapToken1Estimate",
      "outputs": [
        {
          "internalType": "uint256",
          "name": "amountToken2",
          "type": "uint256"
        }
      ],
      "stateMutability": "view",
      "type": "function"
    },
    {
      "inputs": [
        {
          "internalType": "uint256",
          "name": "_amountToken2",
          "type": "uint256"
        }
      ],
      "name": "getSwapToken1EstimateGivenToken2",
      "outputs": [
        {
          "internalType": "uint256",
          "name": "amountToken1",
          "type": "uint256"
        }
      ],
      "stateMutability": "view",
      "type": "function"
    },
    {
      "inputs": [
        {
          "internalType": "uint256",
          "name": "_amountToken2",
          "type": "uint256"
        }
      ],
      "name": "getSwapToken2Estimate",
      "outputs": [
        {
          "internalType": "uint256",
          "name": "amountToken1",
          "type": "uint256"
        }
      ],
      "stateMutability": "view",
      "type": "function"
    },
    {
      "inputs": [
        {
          "internalType": "uint256",
          "name": "_amountToken1",
          "type": "uint256"
        }
      ],
      "name": "getSwapToken2EstimateGivenToken1",
      "outputs": [
        {
          "internalType": "uint256",
          "name": "amountToken2",
          "type": "uint256"
        }
      ],
      "stateMutability": "view",
      "type": "function"
    },
    {
      "inputs": [
        {
          "internalType": "uint256",
          "name": "_amountToken1",
          "type": "uint256"
        },
        {
          "internalType": "uint256",
          "name": "_amountToken2",
          "type": "uint256"
        }
      ],
      "name": "provide",
      "outputs": [
        {
          "internalType": "bool",
          "name": "validShare",
          "type": "bool"
        }
      ],
      "stateMutability": "nonpayable",
      "type": "function"
    },
    {
      "inputs": [
        {
          "internalType": "uint256",
          "name": "_amountToken1",
          "type": "uint256"
        }
      ],
      "name": "swapToken1",
      "outputs": [
        {
          "internalType": "uint256",
          "name": "amountToken2",
          "type": "uint256"
        }
      ],
      "stateMutability": "nonpayable",
      "type": "function"
    },
    {
      "inputs": [
        {
          "internalType": "uint256",
          "name": "_amountToken2",
          "type": "uint256"
        }
      ],
      "name": "swapToken2",
      "outputs": [
        {
          "internalType": "uint256",
          "name": "amountToken1",
          "type": "uint256"
        }
      ],
      "stateMutability": "nonpayable",
      "type": "function"
    },
    {
      "inputs": [
        {
          "internalType": "uint256",
          "name": "",
          "type": "uint256"
        }
      ],
      "name": "tokenRatio",
      "outputs": [
        {
          "internalType": "uint256",
          "name": "",
          "type": "uint256"
        }
      ],
      "stateMutability": "view",
      "type": "function"
    },
    {
      "inputs": [],
      "name": "totalToken1",
      "outputs": [
        {
          "internalType": "uint256",
          "name": "",
          "type": "uint256"
        }
      ],
      "stateMutability": "view",
      "type": "function"
    },
    {
      "inputs": [],
      "name": "totalToken2",
      "outputs": [
        {
          "internalType": "uint256",
          "name": "",
          "type": "uint256"
        }
      ],
      "stateMutability": "view",
      "type": "function"
    },
    {
      "inputs": [
        {
          "internalType": "uint256",
          "name": "_share",
          "type": "uint256"
        }
      ],
      "name": "withdraw",
      "outputs": [
        {
          "internalType": "uint256",
          "name": "amountToken1",
          "type": "uint256"
        },
        {
          "internalType": "uint256",
          "name": "amountToken2",
          "type": "uint256"
        },
        {
          "internalType": "bool",
          "name": "validShare",
          "type": "bool"
        }
      ],
      "stateMutability": "nonpayable",
      "type": "function"
    }
  ],
  "bytecode": "0x608060405234801561001057600080fd5b506110d8806100206000396000f3fe608060405234801561001057600080fd5b50600436106100cf5760003560e01c806377f87b6e1161008c578063d212b44011610066578063d212b44014610262578063d3817b4a14610292578063e8c3c54f146102c2578063f4cb34d4146102f2576100cf565b806377f87b6e146101e457806380abfda814610214578063980d69d314610232576100cf565b8063078b7fdc146100d45780632e1a7d4d14610104578063319bb38f14610136578063450177c6146101665780634832cee1146101965780637565a92b146101b4575b600080fd5b6100ee60048036038101906100e99190610c31565b610322565b6040516100fb9190610c6d565b60405180910390f35b61011e60048036038101906101199190610c31565b610346565b60405161012d93929190610ca3565b60405180910390f35b610150600480360381019061014b9190610c31565b6105c7565b60405161015d9190610c6d565b60405180910390f35b610180600480360381019061017b9190610c31565b6105ea565b60405161018d9190610c6d565b60405180910390f35b61019e61064e565b6040516101ab9190610c6d565b60405180910390f35b6101ce60048036038101906101c99190610c31565b610654565b6040516101db9190610c6d565b60405180910390f35b6101fe60048036038101906101f99190610c31565b6106d4565b60405161020b9190610c6d565b60405180910390f35b61021c6106ef565b6040516102299190610c6d565b60405180910390f35b61024c60048036038101906102479190610c31565b6106f5565b6040516102599190610c6d565b60405180910390f35b61027c60048036038101906102779190610c31565b6107e4565b6040516102899190610c6d565b60405180910390f35b6102ac60048036038101906102a79190610c31565b610865565b6040516102b99190610c6d565b60405180910390f35b6102dc60048036038101906102d79190610cda565b6108ba565b6040516102e99190610d1a565b60405180910390f35b61030c60048036038101906103079190610c31565b610b07565b6040516103199190610c6d565b60405180910390f35b6000600154826000546103359190610d64565b61033f9190610ded565b9050919050565b600080600080600260003373ffffffffffffffffffffffffffffffffffffffff1673ffffffffffffffffffffffffffffffffffffffff168152602001908152602001600020541180156103d857506000600360003373ffffffffffffffffffffffffffffffffffffffff1673ffffffffffffffffffffffffffffffffffffffff16815260200190815260200160002054115b610417576040517f08c379a000000000000000000000000000000000000000000000000000000000815260040161040e90610ea1565b60405180910390fd5b606484600260003373ffffffffffffffffffffffffffffffffffffffff1673ffffffffffffffffffffffffffffffffffffffff168152602001908152602001600020546104649190610d64565b61046e9190610ded565b9250606484600360003373ffffffffffffffffffffffffffffffffffffffff1673ffffffffffffffffffffffffffffffffffffffff168152602001908152602001600020546104bd9190610d64565b6104c79190610ded565b915082600260003373ffffffffffffffffffffffffffffffffffffffff1673ffffffffffffffffffffffffffffffffffffffff16815260200190815260200160002060008282546105189190610ec1565b9250508190555081600360003373ffffffffffffffffffffffffffffffffffffffff1673ffffffffffffffffffffffffffffffffffffffff168152602001908152602001600020600082825461056e9190610ec1565b92505081905550826000808282546105869190610ec1565b92505081905550816001600082825461059f9190610ec1565b925050819055506001546000546105b69190610d64565b600481905550600190509193909250565b60008054826001546105d99190610d64565b6105e39190610ded565b9050919050565b600080826000546105fb9190610ef5565b905060008160045461060d9190610ded565b90508060015461061d9190610ec1565b9250600154831480156106335750600060015414155b1561064757828061064390610f4b565b9350505b5050919050565b60015481565b600080548210610699576040517f08c379a000000000000000000000000000000000000000000000000000000000815260040161069090610fc1565b60405180910390fd5b6000826000546106a99190610ec1565b90506000816004546106bb9190610ded565b9050600154816106cb9190610ec1565b92505050919050565b600581600281106106e457600080fd5b016000915090505481565b60005481565b600061070082610865565b9050806000808282546107139190610ec1565b92505081905550816001600082825461072c9190610ef5565b9250508190555080600260003373ffffffffffffffffffffffffffffffffffffffff1673ffffffffffffffffffffffffffffffffffffffff16815260200190815260200160002060008282546107829190610ef5565b9250508190555081600360003373ffffffffffffffffffffffffffffffffffffffff1673ffffffffffffffffffffffffffffffffffffffff16815260200190815260200160002060008282546107d89190610ec1565b92505081905550919050565b6000600154821061082a576040517f08c379a000000000000000000000000000000000000000000000000000000000815260040161082190610fc1565b60405180910390fd5b60008260015461083a9190610ec1565b905060008160045461084c9190610ded565b90506000548161085c9190610ec1565b92505050919050565b600080826001546108769190610ef5565b90506000816004546108889190610ded565b9050806000546108989190610ec1565b92506000548314156108b35782806108af90610f4b565b9350505b5050919050565b6000806004541415610901578260056000600281106108dc576108db610fe1565b5b01819055508260056001600281106108f7576108f6610fe1565b5b0181905550610a0a565b600083600560006002811061091957610918610fe1565b5b01546109259190610ef5565b9050600083600560016002811061093f5761093e610fe1565b5b015461094b9190610ef5565b9050600560016002811061096257610961610fe1565b5b0154600560006002811061097957610978610fe1565b5b01546109859190610ded565b81836109919190610ded565b146109d1576040517f08c379a00000000000000000000000000000000000000000000000000000000081526004016109c890611082565b60405180910390fd5b8160056000600281106109e7576109e6610fe1565b5b0181905550806005600160028110610a0257610a01610fe1565b5b018190555050505b82600260003373ffffffffffffffffffffffffffffffffffffffff1673ffffffffffffffffffffffffffffffffffffffff1681526020019081526020016000206000828254610a599190610ef5565b9250508190555081600360003373ffffffffffffffffffffffffffffffffffffffff1673ffffffffffffffffffffffffffffffffffffffff1681526020019081526020016000206000828254610aaf9190610ef5565b9250508190555082600080828254610ac79190610ef5565b925050819055508160016000828254610ae09190610ef5565b92505081905550600154600054610af79190610d64565b6004819055506001905092915050565b6000610b12826105ea565b905081600080828254610b259190610ef5565b925050819055508060016000828254610b3e9190610ec1565b9250508190555081600260003373ffffffffffffffffffffffffffffffffffffffff1673ffffffffffffffffffffffffffffffffffffffff1681526020019081526020016000206000828254610b949190610ec1565b9250508190555080600360003373ffffffffffffffffffffffffffffffffffffffff1673ffffffffffffffffffffffffffffffffffffffff1681526020019081526020016000206000828254610bea9190610ef5565b92505081905550919050565b600080fd5b6000819050919050565b610c0e81610bfb565b8114610c1957600080fd5b50565b600081359050610c2b81610c05565b92915050565b600060208284031215610c4757610c46610bf6565b5b6000610c5584828501610c1c565b91505092915050565b610c6781610bfb565b82525050565b6000602082019050610c826000830184610c5e565b92915050565b60008115159050919050565b610c9d81610c88565b82525050565b6000606082019050610cb86000830186610c5e565b610cc56020830185610c5e565b610cd26040830184610c94565b949350505050565b60008060408385031215610cf157610cf0610bf6565b5b6000610cff85828601610c1c565b9250506020610d1085828601610c1c565b9150509250929050565b6000602082019050610d2f6000830184610c94565b92915050565b7f4e487b7100000000000000000000000000000000000000000000000000000000600052601160045260246000fd5b6000610d6f82610bfb565b9150610d7a83610bfb565b9250817fffffffffffffffffffffffffffffffffffffffffffffffffffffffffffffffff0483118215151615610db357610db2610d35565b5b828202905092915050565b7f4e487b7100000000000000000000000000000000000000000000000000000000600052601260045260246000fd5b6000610df882610bfb565b9150610e0383610bfb565b925082610e1357610e12610dbe565b5b828204905092915050565b600082825260208201905092915050565b7f596f7520646f206e6f74206861766520616e797468696e6720746f207769746860008201527f6472617700000000000000000000000000000000000000000000000000000000602082015250565b6000610e8b602483610e1e565b9150610e9682610e2f565b604082019050919050565b60006020820190508181036000830152610eba81610e7e565b9050919050565b6000610ecc82610bfb565b9150610ed783610bfb565b925082821015610eea57610ee9610d35565b5b828203905092915050565b6000610f0082610bfb565b9150610f0b83610bfb565b9250827fffffffffffffffffffffffffffffffffffffffffffffffffffffffffffffffff03821115610f4057610f3f610d35565b5b828201905092915050565b6000610f5682610bfb565b91506000821415610f6a57610f69610d35565b5b600182039050919050565b7f496e73756666696369656e7420706f6f6c2062616c616e636500000000000000600082015250565b6000610fab601983610e1e565b9150610fb682610f75565b602082019050919050565b60006020820190508181036000830152610fda81610f9e565b9050919050565b7f4e487b7100000000000000000000000000000000000000000000000000000000600052603260045260246000fd5b7f50726f766964656420746f6b656e7320617265206e6f74206f6620657175697660008201527f616c656e742076616c75652e0000000000000000000000000000000000000000602082015250565b600061106c602c83610e1e565b915061107782611010565b604082019050919050565b6000602082019050818103600083015261109b8161105f565b905091905056fea26469706673582212204fcad04bf993a03c9550e54118985de4e33e78f98ca850663bba4b20f6aa2ef364736f6c63430008090033",
  "linkReferences": {},
  "deployedLinkReferences": {}
}