{
  "_format": "hh-sol-artifact-1",
  "contractName": "DexToken",
  "sourceName": "contracts/DexToken.sol",
  "abi": [
    {
      "inputs": [],
      "stateMutability": "nonpayable",
      "type": "constructor"
    },
    {
      "anonymous": false,
      "inputs": [
        {
          "indexed": true,
          "internalType": "address",
          "name": "owner",
          "type": "address"
        },
        {
          "indexed": true,
          "internalType": "address",
          "name": "spender",
          "type": "address"
        },
        {
          "indexed": false,
          "internalType": "uint256",
          "name": "value",
          "type": "uint256"
        }
      ],
      "name": "Approval",
      "type": "event"
    },
    {
      "anonymous": false,
      "inputs": [
        {
          "indexed": true,
          "internalType": "address",
          "name": "previousOwner",
          "type": "address"
        },
        {
          "indexed": true,
          "internalType": "address",
          "name": "newOwner",
          "type": "address"
        }
      ],
      "name": "OwnershipTransferred",
      "type": "event"
    },
    {
      "anonymous": false,
      "inputs": [
        {
          "indexed": true,
          "internalType": "address",
          "name": "from",
          "type": "address"
        },
        {
          "indexed": true,
          "internalType": "address",
          "name": "to",
          "type": "address"
        },
        {
          "indexed": false,
          "internalType": "uint256",
          "name": "value",
          "type": "uint256"
        }
      ],
      "name": "Transfer",
      "type": "event"
    },
    {
      "inputs": [
        {
          "internalType": "address",
          "name": "owner",
          "type": "address"
        },
        {
          "internalType": "address",
          "name": "spender",
          "type": "address"
        }
      ],
      "name": "allowance",
      "outputs": [
        {
          "internalType": "uint256",
          "name": "",
          "type": "uint256"
        }
      ],
      "stateMutability": "view",
      "type": "function"
    },
    {
      "inputs": [
        {
          "internalType": "address",
          "name": "spender",
          "type": "address"
        },
        {
          "internalType": "uint256",
          "name": "amount",
          "type": "uint256"
        }
      ],
      "name": "approve",
      "outputs": [
        {
          "internalType": "bool",
          "name": "",
          "type": "bool"
        }
      ],
      "stateMutability": "nonpayable",
      "type": "function"
    },
    {
      "inputs": [
        {
          "internalType": "address",
          "name": "account",
          "type": "address"
        }
      ],
      "name": "balanceOf",
      "outputs": [
        {
          "internalType": "uint256",
          "name": "",
          "type": "uint256"
        }
      ],
      "stateMutability": "view",
      "type": "function"
    },
    {
      "inputs": [
        {
          "internalType": "uint256",
          "name": "amount",
          "type": "uint256"
        }
      ],
      "name": "burn",
      "outputs": [],
      "stateMutability": "nonpayable",
      "type": "function"
    },
    {
      "inputs": [],
      "name": "decimals",
      "outputs": [
        {
          "internalType": "uint8",
          "name": "",
          "type": "uint8"
        }
      ],
      "stateMutability": "view",
      "type": "function"
    },
    {
      "inputs": [
        {
          "internalType": "address",
          "name": "spender",
          "type": "address"
        },
        {
          "internalType": "uint256",
          "name": "subtractedValue",
          "type": "uint256"
        }
      ],
      "name": "decreaseAllowance",
      "outputs": [
        {
          "internalType": "bool",
          "name": "",
          "type": "bool"
        }
      ],
      "stateMutability": "nonpayable",
      "type": "function"
    },
    {
      "inputs": [],
      "name": "getMaxSupply",
      "outputs": [
        {
          "internalType": "uint256",
          "name": "",
          "type": "uint256"
        }
      ],
      "stateMutability": "view",
      "type": "function"
    },
    {
      "inputs": [
        {
          "internalType": "address",
          "name": "spender",
          "type": "address"
        },
        {
          "internalType": "uint256",
          "name": "addedValue",
          "type": "uint256"
        }
      ],
      "name": "increaseAllowance",
      "outputs": [
        {
          "internalType": "bool",
          "name": "",
          "type": "bool"
        }
      ],
      "stateMutability": "nonpayable",
      "type": "function"
    },
    {
      "inputs": [
        {
          "internalType": "address",
          "name": "to",
          "type": "address"
        },
        {
          "internalType": "uint256",
          "name": "amount",
          "type": "uint256"
        }
      ],
      "name": "mint",
      "outputs": [],
      "stateMutability": "nonpayable",
      "type": "function"
    },
    {
      "inputs": [],
      "name": "name",
      "outputs": [
        {
          "internalType": "string",
          "name": "",
          "type": "string"
        }
      ],
      "stateMutability": "view",
      "type": "function"
    },
    {
      "inputs": [],
      "name": "owner",
      "outputs": [
        {
          "internalType": "address",
          "name": "",
          "type": "address"
        }
      ],
      "stateMutability": "view",
      "type": "function"
    },
    {
      "inputs": [],
      "name": "renounceOwnership",
      "outputs": [],
      "stateMutability": "nonpayable",
      "type": "function"
    },
    {
      "inputs": [],
      "name": "symbol",
      "outputs": [
        {
          "internalType": "string",
          "name": "",
          "type": "string"
        }
      ],
      "stateMutability": "view",
      "type": "function"
    },
    {
      "inputs": [],
      "name": "totalSupply",
      "outputs": [
        {
          "internalType": "uint256",
          "name": "",
          "type": "uint256"
        }
      ],
      "stateMutability": "view",
      "type": "function"
    },
    {
      "inputs": [
        {
          "internalType": "address",
          "name": "to",
          "type": "address"
        },
        {
          "internalType": "uint256",
          "name": "amount",
          "type": "uint256"
        }
      ],
      "name": "transfer",
      "outputs": [
        {
          "internalType": "bool",
          "name": "",
          "type": "bool"
        }
      ],
      "stateMutability": "nonpayable",
      "type": "function"
    },
    {
      "inputs": [
        {
          "internalType": "address",
          "name": "from",
          "type": "address"
        },
        {
          "internalType": "address",
          "name": "to",
          "type": "address"
        },
        {
          "internalType": "uint256",
          "name": "amount",
          "type": "uint256"
        }
      ],
      "name": "transferFrom",
      "outputs": [
        {
          "internalType": "bool",
          "name": "",
          "type": "bool"
        }
      ],
      "stateMutability": "nonpayable",
      "type": "function"
    },
    {
      "inputs": [
        {
          "internalType": "address",
          "name": "newOwner",
          "type": "address"
        }
      ],
      "name": "transferOwnership",
      "outputs": [],
      "stateMutability": "nonpayable",
      "type": "function"
    }
  ],
  "bytecode": "0x60806040526040518060400160405280600981526020017f44657820546f6b656e00000000000000000000000000000000000000000000008152506006908051906020019062000051929190620004a2565b506040518060400160405280600381526020017f4445580000000000000000000000000000000000000000000000000000000000815250600790805190602001906200009f929190620004a2565b506a52b7d2dcc80cd2e4000000600855348015620000bc57600080fd5b5060068054620000cc9062000581565b80601f0160208091040260200160405190810160405280929190818152602001828054620000fa9062000581565b80156200014b5780601f106200011f576101008083540402835291602001916200014b565b820191906000526020600020905b8154815290600101906020018083116200012d57829003601f168201915b5050505050600780546200015f9062000581565b80601f01602080910402602001604051908101604052809291908181526020018280546200018d9062000581565b8015620001de5780601f10620001b257610100808354040283529160200191620001de565b820191906000526020600020905b815481529060010190602001808311620001c057829003601f168201915b50505050508160039080519060200190620001fb929190620004a2565b50806004908051906020019062000214929190620004a2565b505050620002376200022b6200025160201b60201c565b6200025960201b60201c565b6200024b336008546200031f60201b60201c565b620006fe565b600033905090565b6000600560009054906101000a900473ffffffffffffffffffffffffffffffffffffffff16905081600560006101000a81548173ffffffffffffffffffffffffffffffffffffffff021916908373ffffffffffffffffffffffffffffffffffffffff1602179055508173ffffffffffffffffffffffffffffffffffffffff168173ffffffffffffffffffffffffffffffffffffffff167f8be0079c531659141344cd1fd0a4f28419497f9722a3daafe3b4186f6b6457e060405160405180910390a35050565b600073ffffffffffffffffffffffffffffffffffffffff168273ffffffffffffffffffffffffffffffffffffffff16141562000392576040517f08c379a0000000000000000000000000000000000000000000000000000000008152600401620003899062000618565b60405180910390fd5b620003a6600083836200049860201b60201c565b8060026000828254620003ba919062000673565b92505081905550806000808473ffffffffffffffffffffffffffffffffffffffff1673ffffffffffffffffffffffffffffffffffffffff168152602001908152602001600020600082825462000411919062000673565b925050819055508173ffffffffffffffffffffffffffffffffffffffff16600073ffffffffffffffffffffffffffffffffffffffff167fddf252ad1be2c89b69c2b068fc378daa952ba7f163c4a11628f55a4df523b3ef83604051620004789190620006e1565b60405180910390a362000494600083836200049d60201b60201c565b5050565b505050565b505050565b828054620004b09062000581565b90600052602060002090601f016020900481019282620004d4576000855562000520565b82601f10620004ef57805160ff191683800117855562000520565b8280016001018555821562000520579182015b828111156200051f57825182559160200191906001019062000502565b5b5090506200052f919062000533565b5090565b5b808211156200054e57600081600090555060010162000534565b5090565b7f4e487b7100000000000000000000000000000000000000000000000000000000600052602260045260246000fd5b600060028204905060018216806200059a57607f821691505b60208210811415620005b157620005b062000552565b5b50919050565b600082825260208201905092915050565b7f45524332303a206d696e7420746f20746865207a65726f206164647265737300600082015250565b600062000600601f83620005b7565b91506200060d82620005c8565b602082019050919050565b600060208201905081810360008301526200063381620005f1565b9050919050565b6000819050919050565b7f4e487b7100000000000000000000000000000000000000000000000000000000600052601160045260246000fd5b600062000680826200063a565b91506200068d836200063a565b9250827fffffffffffffffffffffffffffffffffffffffffffffffffffffffffffffffff03821115620006c557620006c462000644565b5b828201905092915050565b620006db816200063a565b82525050565b6000602082019050620006f86000830184620006d0565b92915050565b611e73806200070e6000396000f3fe608060405234801561001057600080fd5b506004361061010b5760003560e01c80634c0f38c2116100a257806395d89b411161007157806395d89b41146102a8578063a457c2d7146102c6578063a9059cbb146102f6578063dd62ed3e14610326578063f2fde38b146103565761010b565b80634c0f38c21461023257806370a0823114610250578063715018a6146102805780638da5cb5b1461028a5761010b565b8063313ce567116100de578063313ce567146101ac57806339509351146101ca57806340c10f19146101fa57806342966c68146102165761010b565b806306fdde0314610110578063095ea7b31461012e57806318160ddd1461015e57806323b872dd1461017c575b600080fd5b610118610372565b60405161012591906113a8565b60405180910390f35b61014860048036038101906101439190611463565b610404565b60405161015591906114be565b60405180910390f35b610166610427565b60405161017391906114e8565b60405180910390f35b61019660048036038101906101919190611503565b610431565b6040516101a391906114be565b60405180910390f35b6101b4610460565b6040516101c19190611572565b60405180910390f35b6101e460048036038101906101df9190611463565b610469565b6040516101f191906114be565b60405180910390f35b610214600480360381019061020f9190611463565b610513565b005b610230600480360381019061022b919061158d565b6105f9565b005b61023a610606565b60405161024791906114e8565b60405180910390f35b61026a600480360381019061026591906115ba565b610610565b60405161027791906114e8565b60405180910390f35b610288610658565b005b6102926106e0565b60405161029f91906115f6565b60405180910390f35b6102b061070a565b6040516102bd91906113a8565b60405180910390f35b6102e060048036038101906102db9190611463565b61079c565b6040516102ed91906114be565b60405180910390f35b610310600480360381019061030b9190611463565b610886565b60405161031d91906114be565b60405180910390f35b610340600480360381019061033b9190611611565b6108a9565b60405161034d91906114e8565b60405180910390f35b610370600480360381019061036b91906115ba565b610930565b005b60606003805461038190611680565b80601f01602080910402602001604051908101604052809291908181526020018280546103ad90611680565b80156103fa5780601f106103cf576101008083540402835291602001916103fa565b820191906000526020600020905b8154815290600101906020018083116103dd57829003601f168201915b5050505050905090565b60008061040f610a28565b905061041c818585610a30565b600191505092915050565b6000600254905090565b60008061043c610a28565b9050610449858285610bfb565b610454858585610c87565b60019150509392505050565b60006012905090565b600080610474610a28565b9050610508818585600160008673ffffffffffffffffffffffffffffffffffffffff1673ffffffffffffffffffffffffffffffffffffffff16815260200190815260200160002060008973ffffffffffffffffffffffffffffffffffffffff1673ffffffffffffffffffffffffffffffffffffffff1681526020019081526020016000205461050391906116e1565b610a30565b600191505092915050565b61051b610a28565b73ffffffffffffffffffffffffffffffffffffffff166105396106e0565b73ffffffffffffffffffffffffffffffffffffffff161461058f576040517f08c379a000000000000000000000000000000000000000000000000000000000815260040161058690611783565b60405180910390fd5b610597610606565b816105a0610427565b6105aa91906116e1565b11156105eb576040517f08c379a00000000000000000000000000000000000000000000000000000000081526004016105e2906117ef565b60405180910390fd5b6105f58282610f08565b5050565b6106033382611068565b50565b6000600854905090565b60008060008373ffffffffffffffffffffffffffffffffffffffff1673ffffffffffffffffffffffffffffffffffffffff168152602001908152602001600020549050919050565b610660610a28565b73ffffffffffffffffffffffffffffffffffffffff1661067e6106e0565b73ffffffffffffffffffffffffffffffffffffffff16146106d4576040517f08c379a00000000000000000000000000000000000000000000000000000000081526004016106cb90611783565b60405180910390fd5b6106de600061123f565b565b6000600560009054906101000a900473ffffffffffffffffffffffffffffffffffffffff16905090565b60606004805461071990611680565b80601f016020809104026020016040519081016040528092919081815260200182805461074590611680565b80156107925780601f1061076757610100808354040283529160200191610792565b820191906000526020600020905b81548152906001019060200180831161077557829003601f168201915b5050505050905090565b6000806107a7610a28565b90506000600160008373ffffffffffffffffffffffffffffffffffffffff1673ffffffffffffffffffffffffffffffffffffffff16815260200190815260200160002060008673ffffffffffffffffffffffffffffffffffffffff1673ffffffffffffffffffffffffffffffffffffffff1681526020019081526020016000205490508381101561086d576040517f08c379a000000000000000000000000000000000000000000000000000000000815260040161086490611881565b60405180910390fd5b61087a8286868403610a30565b60019250505092915050565b600080610891610a28565b905061089e818585610c87565b600191505092915050565b6000600160008473ffffffffffffffffffffffffffffffffffffffff1673ffffffffffffffffffffffffffffffffffffffff16815260200190815260200160002060008373ffffffffffffffffffffffffffffffffffffffff1673ffffffffffffffffffffffffffffffffffffffff16815260200190815260200160002054905092915050565b610938610a28565b73ffffffffffffffffffffffffffffffffffffffff166109566106e0565b73ffffffffffffffffffffffffffffffffffffffff16146109ac576040517f08c379a00000000000000000000000000000000000000000000000000000000081526004016109a390611783565b60405180910390fd5b600073ffffffffffffffffffffffffffffffffffffffff168173ffffffffffffffffffffffffffffffffffffffff161415610a1c576040517f08c379a0000000000000000000000000000000000000000000000000000000008152600401610a1390611913565b60405180910390fd5b610a258161123f565b50565b600033905090565b600073ffffffffffffffffffffffffffffffffffffffff168373ffffffffffffffffffffffffffffffffffffffff161415610aa0576040517f08c379a0000000000000000000000000000000000000000000000000000000008152600401610a97906119a5565b60405180910390fd5b600073ffffffffffffffffffffffffffffffffffffffff168273ffffffffffffffffffffffffffffffffffffffff161415610b10576040517f08c379a0000000000000000000000000000000000000000000000000000000008152600401610b0790611a37565b60405180910390fd5b80600160008573ffffffffffffffffffffffffffffffffffffffff1673ffffffffffffffffffffffffffffffffffffffff16815260200190815260200160002060008473ffffffffffffffffffffffffffffffffffffffff1673ffffffffffffffffffffffffffffffffffffffff168152602001908152602001600020819055508173ffffffffffffffffffffffffffffffffffffffff168373ffffffffffffffffffffffffffffffffffffffff167f8c5be1e5ebec7d5bd14f71427d1e84f3dd0314c0f7b2291e5b200ac8c7c3b92583604051610bee91906114e8565b60405180910390a3505050565b6000610c0784846108a9565b90507fffffffffffffffffffffffffffffffffffffffffffffffffffffffffffffffff8114610c815781811015610c73576040517f08c379a0000000000000000000000000000000000000000000000000000000008152600401610c6a90611aa3565b60405180910390fd5b610c808484848403610a30565b5b50505050565b600073ffffffffffffffffffffffffffffffffffffffff168373ffffffffffffffffffffffffffffffffffffffff161415610cf7576040517f08c379a0000000000000000000000000000000000000000000000000000000008152600401610cee90611b35565b60405180910390fd5b600073ffffffffffffffffffffffffffffffffffffffff168273ffffffffffffffffffffffffffffffffffffffff161415610d67576040517f08c379a0000000000000000000000000000000000000000000000000000000008152600401610d5e90611bc7565b60405180910390fd5b610d72838383611305565b60008060008573ffffffffffffffffffffffffffffffffffffffff1673ffffffffffffffffffffffffffffffffffffffff16815260200190815260200160002054905081811015610df8576040517f08c379a0000000000000000000000000000000000000000000000000000000008152600401610def90611c59565b60405180910390fd5b8181036000808673ffffffffffffffffffffffffffffffffffffffff1673ffffffffffffffffffffffffffffffffffffffff16815260200190815260200160002081905550816000808573ffffffffffffffffffffffffffffffffffffffff1673ffffffffffffffffffffffffffffffffffffffff1681526020019081526020016000206000828254610e8b91906116e1565b925050819055508273ffffffffffffffffffffffffffffffffffffffff168473ffffffffffffffffffffffffffffffffffffffff167fddf252ad1be2c89b69c2b068fc378daa952ba7f163c4a11628f55a4df523b3ef84604051610eef91906114e8565b60405180910390a3610f0284848461130a565b50505050565b600073ffffffffffffffffffffffffffffffffffffffff168273ffffffffffffffffffffffffffffffffffffffff161415610f78576040517f08c379a0000000000000000000000000000000000000000000000000000000008152600401610f6f90611cc5565b60405180910390fd5b610f8460008383611305565b8060026000828254610f9691906116e1565b92505081905550806000808473ffffffffffffffffffffffffffffffffffffffff1673ffffffffffffffffffffffffffffffffffffffff1681526020019081526020016000206000828254610feb91906116e1565b925050819055508173ffffffffffffffffffffffffffffffffffffffff16600073ffffffffffffffffffffffffffffffffffffffff167fddf252ad1be2c89b69c2b068fc378daa952ba7f163c4a11628f55a4df523b3ef8360405161105091906114e8565b60405180910390a36110646000838361130a565b5050565b600073ffffffffffffffffffffffffffffffffffffffff168273ffffffffffffffffffffffffffffffffffffffff1614156110d8576040517f08c379a00000000000000000000000000000000000000000000000000000000081526004016110cf90611d57565b60405180910390fd5b6110e482600083611305565b60008060008473ffffffffffffffffffffffffffffffffffffffff1673ffffffffffffffffffffffffffffffffffffffff1681526020019081526020016000205490508181101561116a576040517f08c379a000000000000000000000000000000000000000000000000000000000815260040161116190611de9565b60405180910390fd5b8181036000808573ffffffffffffffffffffffffffffffffffffffff1673ffffffffffffffffffffffffffffffffffffffff1681526020019081526020016000208190555081600260008282546111c19190611e09565b92505081905550600073ffffffffffffffffffffffffffffffffffffffff168373ffffffffffffffffffffffffffffffffffffffff167fddf252ad1be2c89b69c2b068fc378daa952ba7f163c4a11628f55a4df523b3ef8460405161122691906114e8565b60405180910390a361123a8360008461130a565b505050565b6000600560009054906101000a900473ffffffffffffffffffffffffffffffffffffffff16905081600560006101000a81548173ffffffffffffffffffffffffffffffffffffffff021916908373ffffffffffffffffffffffffffffffffffffffff1602179055508173ffffffffffffffffffffffffffffffffffffffff168173ffffffffffffffffffffffffffffffffffffffff167f8be0079c531659141344cd1fd0a4f28419497f9722a3daafe3b4186f6b6457e060405160405180910390a35050565b505050565b505050565b600081519050919050565b600082825260208201905092915050565b60005b8381101561134957808201518184015260208101905061132e565b83811115611358576000848401525b50505050565b6000601f19601f8301169050919050565b600061137a8261130f565b611384818561131a565b935061139481856020860161132b565b61139d8161135e565b840191505092915050565b600060208201905081810360008301526113c2818461136f565b905092915050565b600080fd5b600073ffffffffffffffffffffffffffffffffffffffff82169050919050565b60006113fa826113cf565b9050919050565b61140a816113ef565b811461141557600080fd5b50565b60008135905061142781611401565b92915050565b6000819050919050565b6114408161142d565b811461144b57600080fd5b50565b60008135905061145d81611437565b92915050565b6000806040838503121561147a576114796113ca565b5b600061148885828601611418565b92505060206114998582860161144e565b9150509250929050565b60008115159050919050565b6114b8816114a3565b82525050565b60006020820190506114d360008301846114af565b92915050565b6114e28161142d565b82525050565b60006020820190506114fd60008301846114d9565b92915050565b60008060006060848603121561151c5761151b6113ca565b5b600061152a86828701611418565b935050602061153b86828701611418565b925050604061154c8682870161144e565b9150509250925092565b600060ff82169050919050565b61156c81611556565b82525050565b60006020820190506115876000830184611563565b92915050565b6000602082840312156115a3576115a26113ca565b5b60006115b18482850161144e565b91505092915050565b6000602082840312156115d0576115cf6113ca565b5b60006115de84828501611418565b91505092915050565b6115f0816113ef565b82525050565b600060208201905061160b60008301846115e7565b92915050565b60008060408385031215611628576116276113ca565b5b600061163685828601611418565b925050602061164785828601611418565b9150509250929050565b7f4e487b7100000000000000000000000000000000000000000000000000000000600052602260045260246000fd5b6000600282049050600182168061169857607f821691505b602082108114156116ac576116ab611651565b5b50919050565b7f4e487b7100000000000000000000000000000000000000000000000000000000600052601160045260246000fd5b60006116ec8261142d565b91506116f78361142d565b9250827fffffffffffffffffffffffffffffffffffffffffffffffffffffffffffffffff0382111561172c5761172b6116b2565b5b828201905092915050565b7f4f776e61626c653a2063616c6c6572206973206e6f7420746865206f776e6572600082015250565b600061176d60208361131a565b915061177882611737565b602082019050919050565b6000602082019050818103600083015261179c81611760565b9050919050565b7f4d6178696d756d20737570706c79206578636565646564000000000000000000600082015250565b60006117d960178361131a565b91506117e4826117a3565b602082019050919050565b60006020820190508181036000830152611808816117cc565b9050919050565b7f45524332303a2064656372656173656420616c6c6f77616e63652062656c6f7760008201527f207a65726f000000000000000000000000000000000000000000000000000000602082015250565b600061186b60258361131a565b91506118768261180f565b604082019050919050565b6000602082019050818103600083015261189a8161185e565b9050919050565b7f4f776e61626c653a206e6577206f776e657220697320746865207a65726f206160008201527f6464726573730000000000000000000000000000000000000000000000000000602082015250565b60006118fd60268361131a565b9150611908826118a1565b604082019050919050565b6000602082019050818103600083015261192c816118f0565b9050919050565b7f45524332303a20617070726f76652066726f6d20746865207a65726f2061646460008201527f7265737300000000000000000000000000000000000000000000000000000000602082015250565b600061198f60248361131a565b915061199a82611933565b604082019050919050565b600060208201905081810360008301526119be81611982565b9050919050565b7f45524332303a20617070726f766520746f20746865207a65726f20616464726560008201527f7373000000000000000000000000000000000000000000000000000000000000602082015250565b6000611a2160228361131a565b9150611a2c826119c5565b604082019050919050565b60006020820190508181036000830152611a5081611a14565b9050919050565b7f45524332303a20696e73756666696369656e7420616c6c6f77616e6365000000600082015250565b6000611a8d601d8361131a565b9150611a9882611a57565b602082019050919050565b60006020820190508181036000830152611abc81611a80565b9050919050565b7f45524332303a207472616e736665722066726f6d20746865207a65726f20616460008201527f6472657373000000000000000000000000000000000000000000000000000000602082015250565b6000611b1f60258361131a565b9150611b2a82611ac3565b604082019050919050565b60006020820190508181036000830152611b4e81611b12565b9050919050565b7f45524332303a207472616e7366657220746f20746865207a65726f206164647260008201527f6573730000000000000000000000000000000000000000000000000000000000602082015250565b6000611bb160238361131a565b9150611bbc82611b55565b604082019050919050565b60006020820190508181036000830152611be081611ba4565b9050919050565b7f45524332303a207472616e7366657220616d6f756e742065786365656473206260008201527f616c616e63650000000000000000000000000000000000000000000000000000602082015250565b6000611c4360268361131a565b9150611c4e82611be7565b604082019050919050565b60006020820190508181036000830152611c7281611c36565b9050919050565b7f45524332303a206d696e7420746f20746865207a65726f206164647265737300600082015250565b6000611caf601f8361131a565b9150611cba82611c79565b602082019050919050565b60006020820190508181036000830152611cde81611ca2565b9050919050565b7f45524332303a206275726e2066726f6d20746865207a65726f2061646472657360008201527f7300000000000000000000000000000000000000000000000000000000000000602082015250565b6000611d4160218361131a565b9150611d4c82611ce5565b604082019050919050565b60006020820190508181036000830152611d7081611d34565b9050919050565b7f45524332303a206275726e20616d6f756e7420657863656564732062616c616e60008201527f6365000000000000000000000000000000000000000000000000000000000000602082015250565b6000611dd360228361131a565b9150611dde82611d77565b604082019050919050565b60006020820190508181036000830152611e0281611dc6565b9050919050565b6000611e148261142d565b9150611e1f8361142d565b925082821015611e3257611e316116b2565b5b82820390509291505056fea26469706673582212200501564d27499b6e016eb96b90218d9117b84438e3d0ea23b5df3dd40b7ab6d664736f6c63430008090033",
  "linkReferences": {},
  "deployedLinkReferences": {}
}